{
  "contractName": "AaveTreasury",
  "abi": [
    {
      "inputs": [
        {
          "internalType": "contract IERC20",
          "name": "dai",
          "type": "address"
        },
        {
          "internalType": "contract IAaveToken",
          "name": "aaveToken",
          "type": "address"
        },
        {
          "internalType": "contract ILendingPoolAddressesProvider",
          "name": "aaveAddressProvider",
          "type": "address"
        }
      ],
      "stateMutability": "nonpayable",
      "type": "constructor"
    },
    {
      "anonymous": false,
      "inputs": [
        {
          "indexed": true,
          "internalType": "bytes32",
          "name": "role",
          "type": "bytes32"
        },
        {
          "indexed": true,
          "internalType": "bytes32",
          "name": "previousAdminRole",
          "type": "bytes32"
        },
        {
          "indexed": true,
          "internalType": "bytes32",
          "name": "newAdminRole",
          "type": "bytes32"
        }
      ],
      "name": "RoleAdminChanged",
      "type": "event"
    },
    {
      "anonymous": false,
      "inputs": [
        {
          "indexed": true,
          "internalType": "bytes32",
          "name": "role",
          "type": "bytes32"
        },
        {
          "indexed": true,
          "internalType": "address",
          "name": "account",
          "type": "address"
        },
        {
          "indexed": true,
          "internalType": "address",
          "name": "sender",
          "type": "address"
        }
      ],
      "name": "RoleGranted",
      "type": "event"
    },
    {
      "anonymous": false,
      "inputs": [
        {
          "indexed": true,
          "internalType": "bytes32",
          "name": "role",
          "type": "bytes32"
        },
        {
          "indexed": true,
          "internalType": "address",
          "name": "account",
          "type": "address"
        },
        {
          "indexed": true,
          "internalType": "address",
          "name": "sender",
          "type": "address"
        }
      ],
      "name": "RoleRevoked",
      "type": "event"
    },
    {
      "inputs": [],
      "name": "DEFAULT_ADMIN_ROLE",
      "outputs": [
        {
          "internalType": "bytes32",
          "name": "",
          "type": "bytes32"
        }
      ],
      "stateMutability": "view",
      "type": "function",
      "constant": true
    },
    {
      "inputs": [],
      "name": "TREASURER_ROLE",
      "outputs": [
        {
          "internalType": "bytes32",
          "name": "",
          "type": "bytes32"
        }
      ],
      "stateMutability": "view",
      "type": "function",
      "constant": true
    },
    {
      "inputs": [
        {
          "internalType": "address",
          "name": "newTreasurer",
          "type": "address"
        }
      ],
      "name": "addTreasurer",
      "outputs": [],
      "stateMutability": "nonpayable",
      "type": "function"
    },
    {
      "inputs": [
        {
          "internalType": "uint256",
          "name": "earmarkedFunds",
          "type": "uint256"
        }
      ],
      "name": "earmarkFunds",
      "outputs": [],
      "stateMutability": "nonpayable",
      "type": "function"
    },
    {
      "inputs": [
        {
          "internalType": "bytes32",
          "name": "role",
          "type": "bytes32"
        }
      ],
      "name": "getRoleAdmin",
      "outputs": [
        {
          "internalType": "bytes32",
          "name": "",
          "type": "bytes32"
        }
      ],
      "stateMutability": "view",
      "type": "function",
      "constant": true
    },
    {
      "inputs": [
        {
          "internalType": "bytes32",
          "name": "role",
          "type": "bytes32"
        },
        {
          "internalType": "uint256",
          "name": "index",
          "type": "uint256"
        }
      ],
      "name": "getRoleMember",
      "outputs": [
        {
          "internalType": "address",
          "name": "",
          "type": "address"
        }
      ],
      "stateMutability": "view",
      "type": "function",
      "constant": true
    },
    {
      "inputs": [
        {
          "internalType": "bytes32",
          "name": "role",
          "type": "bytes32"
        }
      ],
      "name": "getRoleMemberCount",
      "outputs": [
        {
          "internalType": "uint256",
          "name": "",
          "type": "uint256"
        }
      ],
      "stateMutability": "view",
      "type": "function",
      "constant": true
    },
    {
      "inputs": [
        {
          "internalType": "bytes32",
          "name": "role",
          "type": "bytes32"
        },
        {
          "internalType": "address",
          "name": "account",
          "type": "address"
        }
      ],
      "name": "grantRole",
      "outputs": [],
      "stateMutability": "nonpayable",
      "type": "function"
    },
    {
      "inputs": [
        {
          "internalType": "bytes32",
          "name": "role",
          "type": "bytes32"
        },
        {
          "internalType": "address",
          "name": "account",
          "type": "address"
        }
      ],
      "name": "hasRole",
      "outputs": [
        {
          "internalType": "bool",
          "name": "",
          "type": "bool"
        }
      ],
      "stateMutability": "view",
      "type": "function",
      "constant": true
    },
    {
      "inputs": [
        {
          "internalType": "uint256",
          "name": "amount",
          "type": "uint256"
        }
      ],
      "name": "isCapitalAvailable",
      "outputs": [
        {
          "internalType": "bool",
          "name": "",
          "type": "bool"
        }
      ],
      "stateMutability": "view",
      "type": "function",
      "constant": true
    },
    {
      "inputs": [
        {
          "internalType": "uint256",
          "name": "amount",
          "type": "uint256"
        },
        {
          "internalType": "address",
          "name": "payee",
          "type": "address"
        }
      ],
      "name": "payout",
      "outputs": [],
      "stateMutability": "nonpayable",
      "type": "function"
    },
    {
      "inputs": [
        {
          "internalType": "uint256",
          "name": "amount",
          "type": "uint256"
        },
        {
          "internalType": "address",
          "name": "payee",
          "type": "address"
        }
      ],
      "name": "payoutEarmarked",
      "outputs": [],
      "stateMutability": "nonpayable",
      "type": "function"
    },
    {
      "inputs": [
        {
          "internalType": "uint256",
          "name": "releasedFunds",
          "type": "uint256"
        }
      ],
      "name": "releaseFunds",
      "outputs": [],
      "stateMutability": "nonpayable",
      "type": "function"
    },
    {
      "inputs": [
        {
          "internalType": "address",
          "name": "treasurer",
          "type": "address"
        }
      ],
      "name": "removeTreasurer",
      "outputs": [],
      "stateMutability": "nonpayable",
      "type": "function"
    },
    {
      "inputs": [
        {
          "internalType": "bytes32",
          "name": "role",
          "type": "bytes32"
        },
        {
          "internalType": "address",
          "name": "account",
          "type": "address"
        }
      ],
      "name": "renounceRole",
      "outputs": [],
      "stateMutability": "nonpayable",
      "type": "function"
    },
    {
      "inputs": [
        {
          "internalType": "bytes32",
          "name": "role",
          "type": "bytes32"
        },
        {
          "internalType": "address",
          "name": "account",
          "type": "address"
        }
      ],
      "name": "revokeRole",
      "outputs": [],
      "stateMutability": "nonpayable",
      "type": "function"
    },
    {
      "inputs": [],
      "name": "totalEarmarkedFunds",
      "outputs": [
        {
          "internalType": "uint256",
          "name": "",
          "type": "uint256"
        }
      ],
      "stateMutability": "view",
      "type": "function",
      "constant": true
    },
    {
      "stateMutability": "payable",
      "type": "receive",
      "payable": true
    },
    {
      "inputs": [
        {
          "internalType": "uint256",
          "name": "amount",
          "type": "uint256"
        },
        {
          "internalType": "address",
          "name": "payee",
          "type": "address"
        }
      ],
      "name": "deposit",
      "outputs": [],
      "stateMutability": "nonpayable",
      "type": "function"
    },
    {
      "inputs": [],
      "name": "totalBalance",
      "outputs": [
        {
          "internalType": "uint256",
          "name": "",
          "type": "uint256"
        }
      ],
      "stateMutability": "view",
      "type": "function",
      "constant": true
    },
    {
      "inputs": [],
      "name": "reservesBalance",
      "outputs": [
        {
          "internalType": "uint256",
          "name": "",
          "type": "uint256"
        }
      ],
      "stateMutability": "view",
      "type": "function",
      "constant": true
    },
    {
      "inputs": [],
      "name": "investmentsBalance",
      "outputs": [
        {
          "internalType": "uint256",
          "name": "",
          "type": "uint256"
        }
      ],
      "stateMutability": "view",
      "type": "function",
      "constant": true
    }
  ],
  "bytecode": "0x60806040523480156200001157600080fd5b5060405162002c4e38038062002c4e833981810160405281019062000037919062000304565b826200005c6000801b620000506200012960201b60201c565b6200013160201b60201c565b80600260006101000a81548173ffffffffffffffffffffffffffffffffffffffff021916908373ffffffffffffffffffffffffffffffffffffffff1602179055505080600460006101000a81548173ffffffffffffffffffffffffffffffffffffffff021916908373ffffffffffffffffffffffffffffffffffffffff16021790555081600360006101000a81548173ffffffffffffffffffffffffffffffffffffffff021916908373ffffffffffffffffffffffffffffffffffffffff16021790555050505062000418565b600033905090565b6200014382826200014760201b60201c565b5050565b6200017581600080858152602001908152602001600020600001620001ea60201b62000ef51790919060201c565b15620001e6576200018b6200012960201b60201c565b73ffffffffffffffffffffffffffffffffffffffff168173ffffffffffffffffffffffffffffffffffffffff16837f2f8788117e7eff1d82e926ec794901d17c78024a50270940304540a733656f0d60405160405180910390a45b5050565b60006200021a836000018373ffffffffffffffffffffffffffffffffffffffff1660001b6200022260201b60201c565b905092915050565b60006200023683836200029c60201b60201c565b6200029157826000018290806001815401808255809150506001900390600052602060002001600090919091909150558260000180549050836001016000848152602001908152602001600020819055506001905062000296565b600090505b92915050565b600080836001016000848152602001908152602001600020541415905092915050565b600081519050620002d081620003ca565b92915050565b600081519050620002e781620003e4565b92915050565b600081519050620002fe81620003fe565b92915050565b6000806000606084860312156200031a57600080fd5b60006200032a86828701620002d6565b93505060206200033d86828701620002bf565b92505060406200035086828701620002ed565b9150509250925092565b60006200036782620003aa565b9050919050565b60006200037b826200035a565b9050919050565b60006200038f826200035a565b9050919050565b6000620003a3826200035a565b9050919050565b600073ffffffffffffffffffffffffffffffffffffffff82169050919050565b620003d5816200036e565b8114620003e157600080fd5b50565b620003ef8162000382565b8114620003fb57600080fd5b50565b620004098162000396565b81146200041557600080fd5b50565b61282680620004286000396000f3fe60806040526004361061012e5760003560e01c80639010d07c116100ab578063ab56a29c1161006f578063ab56a29c146103f9578063ad7a672f14610422578063be95e01a1461044d578063ca15c87314610476578063d547741f146104b3578063f0a3a97c146104dc57610135565b80639010d07c1461030057806391d148541461033d57806396f0248a1461037a5780639e74ad74146103a3578063a217fddf146103ce57610135565b80634d68282f116100f25780634d68282f1461022f5780634edd74e8146102585780636e553f65146102835780637c8cd6e0146102ac5780637ee41478146102d757610135565b8063248a9ca31461013a5780632f2ff15d14610177578063323bcc42146101a057806336568abe146101c957806341ad07b1146101f257610135565b3661013557005b600080fd5b34801561014657600080fd5b50610161600480360381019061015c9190611d2a565b610507565b60405161016e9190612475565b60405180910390f35b34801561018357600080fd5b5061019e60048036038101906101999190611d53565b610526565b005b3480156101ac57600080fd5b506101c760048036038101906101c29190611e1d565b610599565b005b3480156101d557600080fd5b506101f060048036038101906101eb9190611d53565b610620565b005b3480156101fe57600080fd5b5061021960048036038101906102149190611dcb565b6106a3565b604051610226919061245a565b60405180910390f35b34801561023b57600080fd5b5061025660048036038101906102519190611dcb565b6106cb565b005b34801561026457600080fd5b5061026d610747565b60405161027a9190612632565b60405180910390f35b34801561028f57600080fd5b506102aa60048036038101906102a59190611e1d565b6107f9565b005b3480156102b857600080fd5b506102c1610ac1565b6040516102ce9190612632565b60405180910390f35b3480156102e357600080fd5b506102fe60048036038101906102f99190611dcb565b610ac7565b005b34801561030c57600080fd5b5061032760048036038101906103229190611d8f565b610c1d565b6040516103349190612364565b60405180910390f35b34801561034957600080fd5b50610364600480360381019061035f9190611d53565b610c4e565b604051610371919061245a565b60405180910390f35b34801561038657600080fd5b506103a1600480360381019061039c9190611c86565b610c7f565b005b3480156103af57600080fd5b506103b8610cac565b6040516103c59190612632565b60405180910390f35b3480156103da57600080fd5b506103e3610d5e565b6040516103f09190612475565b60405180910390f35b34801561040557600080fd5b50610420600480360381019061041b9190611c86565b610d65565b005b34801561042e57600080fd5b50610437610d92565b6040516104449190612632565b60405180910390f35b34801561045957600080fd5b50610474600480360381019061046f9190611e1d565b610dba565b005b34801561048257600080fd5b5061049d60048036038101906104989190611d2a565b610e38565b6040516104aa9190612632565b60405180910390f35b3480156104bf57600080fd5b506104da60048036038101906104d59190611d53565b610e5e565b005b3480156104e857600080fd5b506104f1610ed1565b6040516104fe9190612475565b60405180910390f35b6000806000838152602001908152602001600020600201549050919050565b61054c60008084815260200190815260200160002060020154610547610f25565b610c4e565b61058b576040517f08c379a0000000000000000000000000000000000000000000000000000000008152600401610582906124d2565b60405180910390fd5b6105958282610f2d565b5050565b6105ca7f3496e2e73c4d42b75d702e60d9e48102720b8691234415963a5a857b86425d076105c5610f25565b610c4e565b610609576040517f08c379a000000000000000000000000000000000000000000000000000000000815260040161060090612532565b60405180910390fd5b61061282610fc0565b61061c8282611023565b5050565b610628610f25565b73ffffffffffffffffffffffffffffffffffffffff168173ffffffffffffffffffffffffffffffffffffffff1614610695576040517f08c379a000000000000000000000000000000000000000000000000000000000815260040161068c90612612565b60405180910390fd5b61069f82826111d9565b5050565b60006106ba8260015461126c90919063ffffffff16565b6106c2610d92565b10159050919050565b6106fc7f3496e2e73c4d42b75d702e60d9e48102720b8691234415963a5a857b86425d076106f7610f25565b610c4e565b61073b576040517f08c379a000000000000000000000000000000000000000000000000000000000815260040161073290612532565b60405180910390fd5b61074481610fc0565b50565b6000600260009054906101000a900473ffffffffffffffffffffffffffffffffffffffff1673ffffffffffffffffffffffffffffffffffffffff166370a08231306040518263ffffffff1660e01b81526004016107a4919061237f565b60206040518083038186803b1580156107bc57600080fd5b505afa1580156107d0573d6000803e3d6000fd5b505050506040513d601f19601f820116820180604052508101906107f49190611df4565b905090565b6000829050610807836112c1565b15610a6d576108356127106108276103e88661132990919063ffffffff16565b61139990919063ffffffff16565b9050600061084c82856113e390919063ffffffff16565b905061093a600460009054906101000a900473ffffffffffffffffffffffffffffffffffffffff1673ffffffffffffffffffffffffffffffffffffffff1663ed6ff7606040518163ffffffff1660e01b815260040160206040518083038186803b1580156108b957600080fd5b505afa1580156108cd573d6000803e3d6000fd5b505050506040513d601f19601f820116820180604052508101906108f19190611cd8565b82600260009054906101000a900473ffffffffffffffffffffffffffffffffffffffff1673ffffffffffffffffffffffffffffffffffffffff1661142d9092919063ffffffff16565b600460009054906101000a900473ffffffffffffffffffffffffffffffffffffffff1673ffffffffffffffffffffffffffffffffffffffff16630261bf8b6040518163ffffffff1660e01b815260040160206040518083038186803b1580156109a257600080fd5b505afa1580156109b6573d6000803e3d6000fd5b505050506040513d601f19601f820116820180604052508101906109da9190611caf565b73ffffffffffffffffffffffffffffffffffffffff1663d2d0e066600260009054906101000a900473ffffffffffffffffffffffffffffffffffffffff168360006040518463ffffffff1660e01b8152600401610a3993929190612423565b600060405180830381600087803b158015610a5357600080fd5b505af1158015610a67573d6000803e3d6000fd5b50505050505b610abc823083600260009054906101000a900473ffffffffffffffffffffffffffffffffffffffff1673ffffffffffffffffffffffffffffffffffffffff1661158b909392919063ffffffff16565b505050565b60015481565b610af87f3496e2e73c4d42b75d702e60d9e48102720b8691234415963a5a857b86425d07610af3610f25565b610c4e565b610b37576040517f08c379a0000000000000000000000000000000000000000000000000000000008152600401610b2e90612532565b60405180910390fd5b3073ffffffffffffffffffffffffffffffffffffffff166341ad07b1826040518263ffffffff1660e01b8152600401610b709190612632565b60206040518083038186803b158015610b8857600080fd5b505afa158015610b9c573d6000803e3d6000fd5b505050506040513d601f19601f82011682018060405250810190610bc09190611d01565b610bff576040517f08c379a0000000000000000000000000000000000000000000000000000000008152600401610bf690612512565b60405180910390fd5b610c148160015461126c90919063ffffffff16565b60018190555050565b6000610c468260008086815260200190815260200160002060000161161490919063ffffffff16565b905092915050565b6000610c778260008086815260200190815260200160002060000161162e90919063ffffffff16565b905092915050565b610ca97f3496e2e73c4d42b75d702e60d9e48102720b8691234415963a5a857b86425d0782610e5e565b50565b6000600360009054906101000a900473ffffffffffffffffffffffffffffffffffffffff1673ffffffffffffffffffffffffffffffffffffffff166370a08231306040518263ffffffff1660e01b8152600401610d09919061237f565b60206040518083038186803b158015610d2157600080fd5b505afa158015610d35573d6000803e3d6000fd5b505050506040513d601f19601f82011682018060405250810190610d599190611df4565b905090565b6000801b81565b610d8f7f3496e2e73c4d42b75d702e60d9e48102720b8691234415963a5a857b86425d0782610526565b50565b6000610db5610d9f610cac565b610da7610747565b61126c90919063ffffffff16565b905090565b610deb7f3496e2e73c4d42b75d702e60d9e48102720b8691234415963a5a857b86425d07610de6610f25565b610c4e565b610e2a576040517f08c379a0000000000000000000000000000000000000000000000000000000008152600401610e2190612532565b60405180910390fd5b610e348282611023565b5050565b6000610e5760008084815260200190815260200160002060000161165e565b9050919050565b610e8460008084815260200190815260200160002060020154610e7f610f25565b610c4e565b610ec3576040517f08c379a0000000000000000000000000000000000000000000000000000000008152600401610eba90612552565b60405180910390fd5b610ecd82826111d9565b5050565b7f3496e2e73c4d42b75d702e60d9e48102720b8691234415963a5a857b86425d0781565b6000610f1d836000018373ffffffffffffffffffffffffffffffffffffffff1660001b611673565b905092915050565b600033905090565b610f5481600080858152602001908152602001600020600001610ef590919063ffffffff16565b15610fbc57610f61610f25565b73ffffffffffffffffffffffffffffffffffffffff168173ffffffffffffffffffffffffffffffffffffffff16837f2f8788117e7eff1d82e926ec794901d17c78024a50270940304540a733656f0d60405160405180910390a45b5050565b806001541015611005576040517f08c379a0000000000000000000000000000000000000000000000000000000008152600401610ffc90612572565b60405180910390fd5b61101a816001546113e390919063ffffffff16565b60018190555050565b3073ffffffffffffffffffffffffffffffffffffffff166341ad07b1836040518263ffffffff1660e01b815260040161105c9190612632565b60206040518083038186803b15801561107457600080fd5b505afa158015611088573d6000803e3d6000fd5b505050506040513d601f19601f820116820180604052508101906110ac9190611d01565b6110eb576040517f08c379a00000000000000000000000000000000000000000000000000000000081526004016110e290612512565b60405180910390fd5b816110f4610747565b101561118857600360009054906101000a900473ffffffffffffffffffffffffffffffffffffffff1673ffffffffffffffffffffffffffffffffffffffff1663db006a75836040518263ffffffff1660e01b81526004016111559190612632565b600060405180830381600087803b15801561116f57600080fd5b505af1158015611183573d6000803e3d6000fd5b505050505b6111d58183600260009054906101000a900473ffffffffffffffffffffffffffffffffffffffff1673ffffffffffffffffffffffffffffffffffffffff166116e39092919063ffffffff16565b5050565b6112008160008085815260200190815260200160002060000161176990919063ffffffff16565b156112685761120d610f25565b73ffffffffffffffffffffffffffffffffffffffff168173ffffffffffffffffffffffffffffffffffffffff16837ff6391f5c32d9c69d2a47ea670b442974b53935d1edc7fd64eb21e047a839171b60405160405180910390a45b5050565b6000808284019050838110156112b7576040517f08c379a00000000000000000000000000000000000000000000000000000000081526004016112ae906124f2565b60405180910390fd5b8091505092915050565b6000683635c9adc5dea0000082118015611322575060006112e0610d92565b148061132157506103e861131f6112f5610d92565b611311612710611303610747565b61132990919063ffffffff16565b61139990919063ffffffff16565b115b5b9050919050565b60008083141561133c5760009050611393565b600082840290508284828161134d57fe5b041461138e576040517f08c379a000000000000000000000000000000000000000000000000000000000815260040161138590612592565b60405180910390fd5b809150505b92915050565b60006113db83836040518060400160405280601a81526020017f536166654d6174683a206469766973696f6e206279207a65726f000000000000815250611799565b905092915050565b600061142583836040518060400160405280601e81526020017f536166654d6174683a207375627472616374696f6e206f766572666c6f7700008152506117fa565b905092915050565b60008114806114c6575060008373ffffffffffffffffffffffffffffffffffffffff1663dd62ed3e30856040518363ffffffff1660e01b815260040161147492919061239a565b60206040518083038186803b15801561148c57600080fd5b505afa1580156114a0573d6000803e3d6000fd5b505050506040513d601f19601f820116820180604052508101906114c49190611df4565b145b611505576040517f08c379a00000000000000000000000000000000000000000000000000000000081526004016114fc906125f2565b60405180910390fd5b6115868363095ea7b360e01b84846040516024016115249291906123fa565b604051602081830303815290604052907bffffffffffffffffffffffffffffffffffffffffffffffffffffffff19166020820180517bffffffffffffffffffffffffffffffffffffffffffffffffffffffff8381831617835250505050611855565b505050565b61160e846323b872dd60e01b8585856040516024016115ac939291906123c3565b604051602081830303815290604052907bffffffffffffffffffffffffffffffffffffffffffffffffffffffff19166020820180517bffffffffffffffffffffffffffffffffffffffffffffffffffffffff8381831617835250505050611855565b50505050565b6000611623836000018361191c565b60001c905092915050565b6000611656836000018373ffffffffffffffffffffffffffffffffffffffff1660001b611989565b905092915050565b600061166c826000016119ac565b9050919050565b600061167f8383611989565b6116d85782600001829080600181540180825580915050600190039060005260206000200160009091909190915055826000018054905083600101600084815260200190815260200160002081905550600190506116dd565b600090505b92915050565b6117648363a9059cbb60e01b84846040516024016117029291906123fa565b604051602081830303815290604052907bffffffffffffffffffffffffffffffffffffffffffffffffffffffff19166020820180517bffffffffffffffffffffffffffffffffffffffffffffffffffffffff8381831617835250505050611855565b505050565b6000611791836000018373ffffffffffffffffffffffffffffffffffffffff1660001b6119bd565b905092915050565b600080831182906117e0576040517f08c379a00000000000000000000000000000000000000000000000000000000081526004016117d79190612490565b60405180910390fd5b5060008385816117ec57fe5b049050809150509392505050565b6000838311158290611842576040517f08c379a00000000000000000000000000000000000000000000000000000000081526004016118399190612490565b60405180910390fd5b5060008385039050809150509392505050565b60606118b7826040518060400160405280602081526020017f5361666545524332303a206c6f772d6c6576656c2063616c6c206661696c65648152508573ffffffffffffffffffffffffffffffffffffffff16611aa59092919063ffffffff16565b905060008151111561191757808060200190518101906118d79190611d01565b611916576040517f08c379a000000000000000000000000000000000000000000000000000000000815260040161190d906125d2565b60405180910390fd5b5b505050565b600081836000018054905011611967576040517f08c379a000000000000000000000000000000000000000000000000000000000815260040161195e906124b2565b60405180910390fd5b82600001828154811061197657fe5b9060005260206000200154905092915050565b600080836001016000848152602001908152602001600020541415905092915050565b600081600001805490509050919050565b60008083600101600084815260200190815260200160002054905060008114611a995760006001820390506000600186600001805490500390506000866000018281548110611a0857fe5b9060005260206000200154905080876000018481548110611a2557fe5b9060005260206000200181905550600183018760010160008381526020019081526020016000208190555086600001805480611a5d57fe5b60019003818190600052602060002001600090559055866001016000878152602001908152602001600020600090556001945050505050611a9f565b60009150505b92915050565b6060611ab48484600085611abd565b90509392505050565b6060611ac885611be0565b611b07576040517f08c379a0000000000000000000000000000000000000000000000000000000008152600401611afe906125b2565b60405180910390fd5b600060608673ffffffffffffffffffffffffffffffffffffffff168587604051611b31919061234d565b60006040518083038185875af1925050503d8060008114611b6e576040519150601f19603f3d011682016040523d82523d6000602084013e611b73565b606091505b50915091508115611b88578092505050611bd8565b600081511115611b9b5780518082602001fd5b836040517f08c379a0000000000000000000000000000000000000000000000000000000008152600401611bcf9190612490565b60405180910390fd5b949350505050565b600080823b905060008111915050919050565b600081359050611c028161277d565b92915050565b600081519050611c178161277d565b92915050565b600081519050611c2c81612794565b92915050565b600081519050611c41816127ab565b92915050565b600081359050611c56816127c2565b92915050565b600081359050611c6b816127d9565b92915050565b600081519050611c80816127d9565b92915050565b600060208284031215611c9857600080fd5b6000611ca684828501611bf3565b91505092915050565b600060208284031215611cc157600080fd5b6000611ccf84828501611c08565b91505092915050565b600060208284031215611cea57600080fd5b6000611cf884828501611c1d565b91505092915050565b600060208284031215611d1357600080fd5b6000611d2184828501611c32565b91505092915050565b600060208284031215611d3c57600080fd5b6000611d4a84828501611c47565b91505092915050565b60008060408385031215611d6657600080fd5b6000611d7485828601611c47565b9250506020611d8585828601611bf3565b9150509250929050565b60008060408385031215611da257600080fd5b6000611db085828601611c47565b9250506020611dc185828601611c5c565b9150509250929050565b600060208284031215611ddd57600080fd5b6000611deb84828501611c5c565b91505092915050565b600060208284031215611e0657600080fd5b6000611e1484828501611c71565b91505092915050565b60008060408385031215611e3057600080fd5b6000611e3e85828601611c5c565b9250506020611e4f85828601611bf3565b9150509250929050565b611e62816126f1565b82525050565b611e718161267f565b82525050565b611e80816126a3565b82525050565b611e8f816126af565b82525050565b6000611ea08261264d565b611eaa8185612663565b9350611eba818560208601612739565b80840191505092915050565b611ecf81612703565b82525050565b6000611ee082612658565b611eea818561266e565b9350611efa818560208601612739565b611f038161276c565b840191505092915050565b6000611f1b60228361266e565b91507f456e756d657261626c655365743a20696e646578206f7574206f6620626f756e60008301527f64730000000000000000000000000000000000000000000000000000000000006020830152604082019050919050565b6000611f81602f8361266e565b91507f416363657373436f6e74726f6c3a2073656e646572206d75737420626520616e60008301527f2061646d696e20746f206772616e7400000000000000000000000000000000006020830152604082019050919050565b6000611fe7601b8361266e565b91507f536166654d6174683a206164646974696f6e206f766572666c6f7700000000006000830152602082019050919050565b600061202760128361266e565b91507f496e73756666696369656e742046756e647300000000000000000000000000006000830152602082019050919050565b6000612067600d8361266e565b91507f4163636573732044656e696564000000000000000000000000000000000000006000830152602082019050919050565b60006120a760308361266e565b91507f416363657373436f6e74726f6c3a2073656e646572206d75737420626520616e60008301527f2061646d696e20746f207265766f6b65000000000000000000000000000000006020830152604082019050919050565b600061210d60228361266e565b91507f43616e6e6f742072656c65617365206d6f7265207468616e206561726d61726b60008301527f65640000000000000000000000000000000000000000000000000000000000006020830152604082019050919050565b600061217360218361266e565b91507f536166654d6174683a206d756c7469706c69636174696f6e206f766572666c6f60008301527f77000000000000000000000000000000000000000000000000000000000000006020830152604082019050919050565b60006121d9601d8361266e565b91507f416464726573733a2063616c6c20746f206e6f6e2d636f6e74726163740000006000830152602082019050919050565b6000612219602a8361266e565b91507f5361666545524332303a204552433230206f7065726174696f6e20646964206e60008301527f6f742073756363656564000000000000000000000000000000000000000000006020830152604082019050919050565b600061227f60368361266e565b91507f5361666545524332303a20617070726f76652066726f6d206e6f6e2d7a65726f60008301527f20746f206e6f6e2d7a65726f20616c6c6f77616e6365000000000000000000006020830152604082019050919050565b60006122e5602f8361266e565b91507f416363657373436f6e74726f6c3a2063616e206f6e6c792072656e6f756e636560008301527f20726f6c657320666f722073656c6600000000000000000000000000000000006020830152604082019050919050565b612347816126e7565b82525050565b60006123598284611e95565b915081905092915050565b60006020820190506123796000830184611e68565b92915050565b60006020820190506123946000830184611e59565b92915050565b60006040820190506123af6000830185611e68565b6123bc6020830184611e68565b9392505050565b60006060820190506123d86000830186611e68565b6123e56020830185611e68565b6123f2604083018461233e565b949350505050565b600060408201905061240f6000830185611e68565b61241c602083018461233e565b9392505050565b60006060820190506124386000830186611e68565b612445602083018561233e565b6124526040830184611ec6565b949350505050565b600060208201905061246f6000830184611e77565b92915050565b600060208201905061248a6000830184611e86565b92915050565b600060208201905081810360008301526124aa8184611ed5565b905092915050565b600060208201905081810360008301526124cb81611f0e565b9050919050565b600060208201905081810360008301526124eb81611f74565b9050919050565b6000602082019050818103600083015261250b81611fda565b9050919050565b6000602082019050818103600083015261252b8161201a565b9050919050565b6000602082019050818103600083015261254b8161205a565b9050919050565b6000602082019050818103600083015261256b8161209a565b9050919050565b6000602082019050818103600083015261258b81612100565b9050919050565b600060208201905081810360008301526125ab81612166565b9050919050565b600060208201905081810360008301526125cb816121cc565b9050919050565b600060208201905081810360008301526125eb8161220c565b9050919050565b6000602082019050818103600083015261260b81612272565b9050919050565b6000602082019050818103600083015261262b816122d8565b9050919050565b6000602082019050612647600083018461233e565b92915050565b600081519050919050565b600081519050919050565b600081905092915050565b600082825260208201905092915050565b600061268a826126c7565b9050919050565b600061269c826126c7565b9050919050565b60008115159050919050565b6000819050919050565b600061ffff82169050919050565b600073ffffffffffffffffffffffffffffffffffffffff82169050919050565b6000819050919050565b60006126fc82612715565b9050919050565b600061270e826126b9565b9050919050565b600061272082612727565b9050919050565b6000612732826126c7565b9050919050565b60005b8381101561275757808201518184015260208101905061273c565b83811115612766576000848401525b50505050565b6000601f19601f8301169050919050565b6127868161267f565b811461279157600080fd5b50565b61279d81612691565b81146127a857600080fd5b50565b6127b4816126a3565b81146127bf57600080fd5b50565b6127cb816126af565b81146127d657600080fd5b50565b6127e2816126e7565b81146127ed57600080fd5b5056fea2646970667358221220cd896765350636c237cc3a76027479f82bfe3cab7d836fbe7364f03684f9905264736f6c634300060c0033",
  "immutableReferences": {},
  "source": "// SPDX-License-Identifier: MIT\npragma solidity >=0.6.2 <0.7.0;\npragma experimental ABIEncoderV2;\n\nimport \"@openzeppelin/contracts/math/SafeMath.sol\";\nimport \"@openzeppelin/contracts/access/AccessControl.sol\";\nimport \"@openzeppelin/contracts/token/ERC20/SafeERC20.sol\";\nimport \"./Treasury.sol\";\nimport \"./interfaces/IAave.sol\";\nimport \"./interfaces/IAaveToken.sol\";\nimport \"./interfaces/ILendingPoolAddressesProvider.sol\";\n\ncontract AaveTreasury is Treasury {\n    using SafeMath for uint256;\n    using SafeERC20 for IERC20;\n\n    IAaveToken private _aaveToken;\n    ILendingPoolAddressesProvider private _aaveAddressProvider;\n\n    uint256 private constant _TARGET_RESERVES_IN_BPS = 1000;\n    uint256 private constant _100_PCT_IN_BPS = 10000;\n    uint256 private constant _INVESTMENT_TRIGGER_AMOUNT = 1000 * 1e18; //1000 DAI\n\n    constructor(\n        IERC20 dai,\n        IAaveToken aaveToken,\n        ILendingPoolAddressesProvider aaveAddressProvider\n    ) public Treasury(dai) {\n        _aaveAddressProvider = aaveAddressProvider;\n        _aaveToken = aaveToken;\n    }\n\n    function deposit(uint256 amount, address payee) external override {\n        uint256 reserves = amount;\n        if (_shouldInvest(amount)) {\n            reserves = amount.mul(_TARGET_RESERVES_IN_BPS).div(_100_PCT_IN_BPS);\n            uint256 investment = amount.sub(reserves);\n            _dai.safeApprove(\n                _aaveAddressProvider.getLendingPoolCore(),\n                investment\n            );\n            IAave(_aaveAddressProvider.getLendingPool()).deposit(\n                address(_dai),\n                investment,\n                0\n            );\n        }\n        _dai.safeTransferFrom(payee, address(this), reserves);\n    }\n\n    function _shouldInvest(uint256 amount) private view returns (bool) {\n        return\n            amount > _INVESTMENT_TRIGGER_AMOUNT &&\n            (totalBalance() == 0 ||\n                reservesBalance().mul(_100_PCT_IN_BPS).div(totalBalance()) >\n                _TARGET_RESERVES_IN_BPS);\n    }\n\n    function totalBalance() public override view returns (uint256) {\n        return reservesBalance().add(investmentsBalance());\n    }\n\n    function reservesBalance() public view returns (uint256) {\n        return _dai.balanceOf(address(this));\n    }\n\n    function investmentsBalance() public view returns (uint256) {\n        return _aaveToken.balanceOf(address(this));\n    }\n\n    function _payout(uint256 amount, address payee) internal override {\n        require(this.isCapitalAvailable(amount), \"Insufficient Funds\");\n        if (reservesBalance() < amount) {\n            _aaveToken.redeem(amount);\n        }\n        _dai.safeTransfer(payee, amount);\n    }\n}\n",
  "sourcePath": "/AaveTreasury.sol",
  "compiler": {
    "name": "solc",
    "version": "0.6.12+commit.27d51765.Emscripten.clang"
  },
  "schemaVersion": "3.2.5",
  "updatedAt": "2020-09-27T15:52:52.644Z",
  "networkType": "ethereum",
  "devdoc": {
    "kind": "dev",
    "methods": {
      "getRoleAdmin(bytes32)": {
        "details": "Returns the admin role that controls `role`. See {grantRole} and {revokeRole}. To change a role's admin, use {_setRoleAdmin}."
      },
      "getRoleMember(bytes32,uint256)": {
        "details": "Returns one of the accounts that have `role`. `index` must be a value between 0 and {getRoleMemberCount}, non-inclusive. Role bearers are not sorted in any particular way, and their ordering may change at any point. WARNING: When using {getRoleMember} and {getRoleMemberCount}, make sure you perform all queries on the same block. See the following https://forum.openzeppelin.com/t/iterating-over-elements-on-enumerableset-in-openzeppelin-contracts/2296[forum post] for more information."
      },
      "getRoleMemberCount(bytes32)": {
        "details": "Returns the number of accounts that have `role`. Can be used together with {getRoleMember} to enumerate all bearers of a role."
      },
      "grantRole(bytes32,address)": {
        "details": "Grants `role` to `account`. If `account` had not been already granted `role`, emits a {RoleGranted} event. Requirements: - the caller must have ``role``'s admin role."
      },
      "hasRole(bytes32,address)": {
        "details": "Returns `true` if `account` has been granted `role`."
      },
      "renounceRole(bytes32,address)": {
        "details": "Revokes `role` from the calling account. Roles are often managed via {grantRole} and {revokeRole}: this function's purpose is to provide a mechanism for accounts to lose their privileges if they are compromised (such as when a trusted device is misplaced). If the calling account had been granted `role`, emits a {RoleRevoked} event. Requirements: - the caller must be `account`."
      },
      "revokeRole(bytes32,address)": {
        "details": "Revokes `role` from `account`. If `account` had been granted `role`, emits a {RoleRevoked} event. Requirements: - the caller must have ``role``'s admin role."
      }
    },
    "version": 1
  },
  "userdoc": {
    "kind": "user",
    "methods": {},
    "version": 1
  }
}