{
  "contractName": "ControllablePriceFetcher",
  "abi": [
    {
      "inputs": [],
      "stateMutability": "nonpayable",
      "type": "constructor"
    },
    {
      "inputs": [],
      "name": "counter",
      "outputs": [
        {
          "internalType": "uint256",
          "name": "",
          "type": "uint256"
        }
      ],
      "stateMutability": "view",
      "type": "function",
      "constant": true
    },
    {
      "inputs": [
        {
          "internalType": "string",
          "name": "_code",
          "type": "string"
        }
      ],
      "name": "requestPrice",
      "outputs": [
        {
          "internalType": "bytes32",
          "name": "",
          "type": "bytes32"
        }
      ],
      "stateMutability": "nonpayable",
      "type": "function"
    },
    {
      "inputs": [
        {
          "internalType": "bytes32",
          "name": "requestId",
          "type": "bytes32"
        },
        {
          "internalType": "uint256",
          "name": "currentPrice",
          "type": "uint256"
        }
      ],
      "name": "onPriceResponse",
      "outputs": [],
      "stateMutability": "nonpayable",
      "type": "function"
    },
    {
      "inputs": [
        {
          "internalType": "address",
          "name": "newUser",
          "type": "address"
        }
      ],
      "name": "addUser",
      "outputs": [],
      "stateMutability": "nonpayable",
      "type": "function"
    },
    {
      "inputs": [
        {
          "internalType": "address",
          "name": "user",
          "type": "address"
        }
      ],
      "name": "removeUser",
      "outputs": [],
      "stateMutability": "nonpayable",
      "type": "function"
    }
  ],
  "bytecode": "0x608060405234801561001057600080fd5b50610534806100206000396000f3fe608060405234801561001057600080fd5b50600436106100575760003560e01c8063421b2d8b1461005c57806361bc221a146100785780639857518814610096578063c1c1f85a146100b2578063d4fe6bd0146100ce575b600080fd5b610076600480360381019061007191906102e8565b6100fe565b005b610080610101565b60405161008d91906103f0565b60405180910390f35b6100b060048036038101906100ab91906102e8565b610107565b005b6100cc60048036038101906100c79190610311565b61010a565b005b6100e860048036038101906100e3919061034d565b6101e4565b6040516100f591906103ac565b60405180910390f35b50565b60005481565b50565b6001600083815260200190815260200160002060009054906101000a900473ffffffffffffffffffffffffffffffffffffffff1673ffffffffffffffffffffffffffffffffffffffff1663c1c1f85a83836040518363ffffffff1660e01b81526004016101789291906103c7565b600060405180830381600087803b15801561019257600080fd5b505af11580156101a6573d6000803e3d6000fd5b505050506001600083815260200190815260200160002060006101000a81549073ffffffffffffffffffffffffffffffffffffffff02191690555050565b600080600080815460010191905081905560001b9050336001600083815260200190815260200160002060006101000a81548173ffffffffffffffffffffffffffffffffffffffff021916908373ffffffffffffffffffffffffffffffffffffffff16021790555080915050919050565b600081359050610264816104b9565b92915050565b600081359050610279816104d0565b92915050565b600082601f83011261029057600080fd5b81356102a361029e82610438565b61040b565b915080825260208301602083018583830111156102bf57600080fd5b6102ca8382846104aa565b50505092915050565b6000813590506102e2816104e7565b92915050565b6000602082840312156102fa57600080fd5b600061030884828501610255565b91505092915050565b6000806040838503121561032457600080fd5b60006103328582860161026a565b9250506020610343858286016102d3565b9150509250929050565b60006020828403121561035f57600080fd5b600082013567ffffffffffffffff81111561037957600080fd5b6103858482850161027f565b91505092915050565b61039781610476565b82525050565b6103a6816104a0565b82525050565b60006020820190506103c1600083018461038e565b92915050565b60006040820190506103dc600083018561038e565b6103e9602083018461039d565b9392505050565b6000602082019050610405600083018461039d565b92915050565b6000604051905081810181811067ffffffffffffffff8211171561042e57600080fd5b8060405250919050565b600067ffffffffffffffff82111561044f57600080fd5b601f19601f8301169050602081019050919050565b600061046f82610480565b9050919050565b6000819050919050565b600073ffffffffffffffffffffffffffffffffffffffff82169050919050565b6000819050919050565b82818337600083830152505050565b6104c281610464565b81146104cd57600080fd5b50565b6104d981610476565b81146104e457600080fd5b50565b6104f0816104a0565b81146104fb57600080fd5b5056fea264697066735822122095f838e1a09325ff37d1d1b824504269df347716384e36bbc83035b5e52d5e4864736f6c634300060c0033",
  "immutableReferences": {},
  "source": "// SPDX-License-Identifier: MIT\npragma solidity >=0.6.0 <0.7.0;\npragma experimental ABIEncoderV2;\n\nimport \"../interfaces/IPriceConsumer.sol\";\nimport \"../interfaces/IPriceProducer.sol\";\n\ncontract ControllablePriceFetcher is IPriceProducer {\n    uint256 public counter;\n    mapping(bytes32 => IPriceConsumer) private _pendingRequestConsumers;\n\n    constructor() public {}\n\n    function requestPrice(string memory _code)\n        public\n        override\n        returns (bytes32)\n    {\n        bytes32 requestId = bytes32(++counter);\n        _pendingRequestConsumers[requestId] = IPriceConsumer(msg.sender);\n        return requestId;\n    }\n\n    function onPriceResponse(bytes32 requestId, uint256 currentPrice) public {\n        _pendingRequestConsumers[requestId].onPriceResponse(\n            requestId,\n            currentPrice\n        );\n        delete _pendingRequestConsumers[requestId];\n    }\n\n    function addUser(address newUser) external {}\n\n    function removeUser(address user) external {}\n}\n",
  "sourcePath": "/mocks/ControllablePriceFetcher.sol",
  "compiler": {
    "name": "solc",
    "version": "0.6.12+commit.27d51765.Emscripten.clang"
  },
  "schemaVersion": "3.2.5",
  "updatedAt": "2020-09-27T15:52:52.624Z",
  "networkType": "ethereum",
  "devdoc": {
    "kind": "dev",
    "methods": {},
    "version": 1
  },
  "userdoc": {
    "kind": "user",
    "methods": {},
    "version": 1
  }
}