{
  "contractName": "DateHelper",
  "abi": [
    {
      "inputs": [],
      "stateMutability": "nonpayable",
      "type": "constructor"
    },
    {
      "inputs": [
        {
          "internalType": "uint256",
          "name": "timestamp",
          "type": "uint256"
        }
      ],
      "name": "isoYearMonth",
      "outputs": [
        {
          "internalType": "string",
          "name": "",
          "type": "string"
        }
      ],
      "stateMutability": "view",
      "type": "function",
      "constant": true
    }
  ],
  "bytecode": "0x60806040523480156200001157600080fd5b506040518060400160405280600281526020017f30310000000000000000000000000000000000000000000000000000000000008152506000806001815260200190815260200160002090805190602001906200007092919062000c6c565b506040518060400160405280600281526020017f3032000000000000000000000000000000000000000000000000000000000000815250600080600281526020019081526020016000209080519060200190620000cf92919062000c6c565b506040518060400160405280600281526020017f30330000000000000000000000000000000000000000000000000000000000008152506000806003815260200190815260200160002090805190602001906200012e92919062000c6c565b506040518060400160405280600281526020017f30340000000000000000000000000000000000000000000000000000000000008152506000806004815260200190815260200160002090805190602001906200018d92919062000c6c565b506040518060400160405280600281526020017f3035000000000000000000000000000000000000000000000000000000000000815250600080600581526020019081526020016000209080519060200190620001ec92919062000c6c565b506040518060400160405280600281526020017f30360000000000000000000000000000000000000000000000000000000000008152506000806006815260200190815260200160002090805190602001906200024b92919062000c6c565b506040518060400160405280600281526020017f3037000000000000000000000000000000000000000000000000000000000000815250600080600781526020019081526020016000209080519060200190620002aa92919062000c6c565b506040518060400160405280600281526020017f30380000000000000000000000000000000000000000000000000000000000008152506000806008815260200190815260200160002090805190602001906200030992919062000c6c565b506040518060400160405280600281526020017f30390000000000000000000000000000000000000000000000000000000000008152506000806009815260200190815260200160002090805190602001906200036892919062000c6c565b506040518060400160405280600281526020017f3130000000000000000000000000000000000000000000000000000000000000815250600080600a81526020019081526020016000209080519060200190620003c792919062000c6c565b506040518060400160405280600281526020017f3131000000000000000000000000000000000000000000000000000000000000815250600080600b815260200190815260200160002090805190602001906200042692919062000c6c565b506040518060400160405280600281526020017f3132000000000000000000000000000000000000000000000000000000000000815250600080600c815260200190815260200160002090805190602001906200048592919062000c6c565b506040518060400160405280600481526020017f32303230000000000000000000000000000000000000000000000000000000008152506000806107e481526020019081526020016000209080519060200190620004e592919062000c6c565b506040518060400160405280600481526020017f32303231000000000000000000000000000000000000000000000000000000008152506000806107e5815260200190815260200160002090805190602001906200054592919062000c6c565b506040518060400160405280600481526020017f32303232000000000000000000000000000000000000000000000000000000008152506000806107e681526020019081526020016000209080519060200190620005a592919062000c6c565b506040518060400160405280600481526020017f32303233000000000000000000000000000000000000000000000000000000008152506000806107e7815260200190815260200160002090805190602001906200060592919062000c6c565b506040518060400160405280600481526020017f32303234000000000000000000000000000000000000000000000000000000008152506000806107e8815260200190815260200160002090805190602001906200066592919062000c6c565b506040518060400160405280600481526020017f32303235000000000000000000000000000000000000000000000000000000008152506000806107e981526020019081526020016000209080519060200190620006c592919062000c6c565b506040518060400160405280600481526020017f32303236000000000000000000000000000000000000000000000000000000008152506000806107ea815260200190815260200160002090805190602001906200072592919062000c6c565b506040518060400160405280600481526020017f32303237000000000000000000000000000000000000000000000000000000008152506000806107eb815260200190815260200160002090805190602001906200078592919062000c6c565b506040518060400160405280600481526020017f32303238000000000000000000000000000000000000000000000000000000008152506000806107ec81526020019081526020016000209080519060200190620007e592919062000c6c565b506040518060400160405280600481526020017f32303239000000000000000000000000000000000000000000000000000000008152506000806107ed815260200190815260200160002090805190602001906200084592919062000c6c565b506040518060400160405280600481526020017f32303330000000000000000000000000000000000000000000000000000000008152506000806107ee81526020019081526020016000209080519060200190620008a592919062000c6c565b506040518060400160405280600481526020017f32303331000000000000000000000000000000000000000000000000000000008152506000806107ef815260200190815260200160002090805190602001906200090592919062000c6c565b506040518060400160405280600481526020017f32303332000000000000000000000000000000000000000000000000000000008152506000806107f0815260200190815260200160002090805190602001906200096592919062000c6c565b506040518060400160405280600481526020017f32303333000000000000000000000000000000000000000000000000000000008152506000806107f181526020019081526020016000209080519060200190620009c592919062000c6c565b506040518060400160405280600481526020017f32303334000000000000000000000000000000000000000000000000000000008152506000806107f28152602001908152602001600020908051906020019062000a2592919062000c6c565b506040518060400160405280600481526020017f32303335000000000000000000000000000000000000000000000000000000008152506000806107f38152602001908152602001600020908051906020019062000a8592919062000c6c565b506040518060400160405280600481526020017f32303336000000000000000000000000000000000000000000000000000000008152506000806107f48152602001908152602001600020908051906020019062000ae592919062000c6c565b506040518060400160405280600481526020017f32303337000000000000000000000000000000000000000000000000000000008152506000806107f58152602001908152602001600020908051906020019062000b4592919062000c6c565b506040518060400160405280600481526020017f32303338000000000000000000000000000000000000000000000000000000008152506000806107f68152602001908152602001600020908051906020019062000ba592919062000c6c565b506040518060400160405280600481526020017f32303339000000000000000000000000000000000000000000000000000000008152506000806107f78152602001908152602001600020908051906020019062000c0592919062000c6c565b506040518060400160405280600481526020017f32303430000000000000000000000000000000000000000000000000000000008152506000806107f88152602001908152602001600020908051906020019062000c6592919062000c6c565b5062000d12565b828054600181600116156101000203166002900490600052602060002090601f016020900481019282601f1062000caf57805160ff191683800117855562000ce0565b8280016001018555821562000ce0579182015b8281111562000cdf57825182559160200191906001019062000cc2565b5b50905062000cef919062000cf3565b5090565b5b8082111562000d0e57600081600090555060010162000cf4565b5090565b6104b28062000d226000396000f3fe608060405234801561001057600080fd5b506004361061002b5760003560e01c806320884fc614610030575b600080fd5b61005c6004803603602081101561004657600080fd5b81019080803590602001909291905050506100d7565b6040518080602001828103825283818151815260200191508051906020019080838360005b8381101561009c578082015181840152602081019050610081565b50505050905090810190601f1680156100c95780820380516001836020036101000a031916815260200191505b509250505060405180910390f35b6060600080806100e68561028f565b905060006100f96107b261ffff16610341565b61010283610341565b039050806301e285000284019350806107b261ffff168303036301e133800284019350600080600194505b600c851161016a5761013f8585610374565b620151800290508786820111156101585784915061016a565b8086019550848060010195505061012d565b60008085815260200190815260200160002060008084815260200190815260200160002060405160200180838054600181600116156101000203166002900480156101ec5780601f106101ca5761010080835404028352918201916101ec565b820191906000526020600020905b8154815290600101906020018083116101d8575b5050807f2d000000000000000000000000000000000000000000000000000000000000008152506001018280546001816001161561010002031660029004801561026d5780601f1061024b57610100808354040283529182019161026d565b820191906000526020600020905b815481529060010190602001808311610259575b5050925050506040516020818303038152906040529650505050505050919050565b6000806000905060006301e1338084816102a557fe5b046107b261ffff1601905060006102c16107b261ffff16610341565b6102ce8361ffff16610341565b039050806301e285000283019250806107b2830361ffff16036301e1338002830192505b848311156103325761030a6001830361ffff1661041f565b1561031d576301e2850083039250610327565b6301e13380830392505b6001820391506102f2565b8161ffff169350505050919050565b6000600182039150610190828161035457fe5b046064838161035f57fe5b046004848161036a57fe5b0403019050919050565b600060018314806103855750600383145b806103905750600583145b8061039b5750600783145b806103a65750600883145b806103b15750600a83145b806103bc5750600c83145b156103ca57601f9050610419565b60048314806103d95750600683145b806103e45750600983145b806103ef5750600b83145b156103fd57601e9050610419565b6104068261041f565b1561041457601d9050610419565b601c90505b92915050565b6000806004838161042c57fe5b061461043b5760009050610477565b60006064838161044757fe5b06146104565760019050610477565b6000610190838161046357fe5b06146104725760009050610477565b600190505b91905056fea264697066735822122045757157529d0e0185e9c4b85dab9b8e8909c02acbacff71978dfec8d7132dc164736f6c634300060c0033",
  "immutableReferences": {},
  "source": "// SPDX-License-Identifier: MIT\npragma solidity >=0.6.0 <0.7.0;\n\nimport \"./interfaces/IDateHelper.sol\";\n\ncontract DateHelper is IDateHelper {\n    uint256 private constant _DAY_IN_SECONDS = 86400;\n    uint256 private constant _YEAR_IN_SECONDS = 31536000;\n    uint256 private constant _LEAP_YEAR_IN_SECONDS = 31622400;\n    uint16 private constant _ORIGIN_YEAR = 1970;\n    mapping(uint256 => string) private _itoa;\n\n    constructor() public {\n        _itoa[1] = \"01\";\n        _itoa[2] = \"02\";\n        _itoa[3] = \"03\";\n        _itoa[4] = \"04\";\n        _itoa[5] = \"05\";\n        _itoa[6] = \"06\";\n        _itoa[7] = \"07\";\n        _itoa[8] = \"08\";\n        _itoa[9] = \"09\";\n        _itoa[10] = \"10\";\n        _itoa[11] = \"11\";\n        _itoa[12] = \"12\";\n\n        _itoa[2020] = \"2020\";\n        _itoa[2021] = \"2021\";\n        _itoa[2022] = \"2022\";\n        _itoa[2023] = \"2023\";\n        _itoa[2024] = \"2024\";\n        _itoa[2025] = \"2025\";\n        _itoa[2026] = \"2026\";\n        _itoa[2027] = \"2027\";\n        _itoa[2028] = \"2028\";\n        _itoa[2029] = \"2029\";\n        _itoa[2030] = \"2030\";\n        _itoa[2031] = \"2031\";\n        _itoa[2032] = \"2032\";\n        _itoa[2033] = \"2033\";\n        _itoa[2034] = \"2034\";\n        _itoa[2035] = \"2035\";\n        _itoa[2036] = \"2036\";\n        _itoa[2037] = \"2037\";\n        _itoa[2038] = \"2038\";\n        _itoa[2039] = \"2039\";\n        _itoa[2040] = \"2040\";\n    }\n\n    function _isLeapYear(uint256 year) private pure returns (bool) {\n        if (year % 4 != 0) {\n            return false;\n        }\n        if (year % 100 != 0) {\n            return true;\n        }\n        if (year % 400 != 0) {\n            return false;\n        }\n        return true;\n    }\n\n    function _leapYearsBefore(uint256 year) private pure returns (uint256) {\n        year -= 1;\n        return year / 4 - year / 100 + year / 400;\n    }\n\n    function _getDaysInMonth(uint256 month, uint256 year)\n        private\n        pure\n        returns (uint256)\n    {\n        if (\n            month == 1 ||\n            month == 3 ||\n            month == 5 ||\n            month == 7 ||\n            month == 8 ||\n            month == 10 ||\n            month == 12\n        ) {\n            return 31;\n        } else if (month == 4 || month == 6 || month == 9 || month == 11) {\n            return 30;\n        } else if (_isLeapYear(year)) {\n            return 29;\n        } else {\n            return 28;\n        }\n    }\n\n    function isoYearMonth(uint256 timestamp)\n        public\n        override\n        view\n        returns (string memory)\n    {\n        uint256 secondsAccountedFor = 0;\n        uint256 i;\n        uint256 year = _getYear(timestamp);\n        uint256 buf = _leapYearsBefore(year) - _leapYearsBefore(_ORIGIN_YEAR);\n\n        secondsAccountedFor += _LEAP_YEAR_IN_SECONDS * buf;\n        secondsAccountedFor += _YEAR_IN_SECONDS * (year - _ORIGIN_YEAR - buf);\n\n        // Month\n        uint256 month;\n        uint256 secondsInMonth;\n        for (i = 1; i <= 12; i++) {\n            secondsInMonth = _DAY_IN_SECONDS * _getDaysInMonth(i, year);\n            if (secondsInMonth + secondsAccountedFor > timestamp) {\n                month = i;\n                break;\n            }\n            secondsAccountedFor += secondsInMonth;\n        }\n\n        return string(abi.encodePacked(_itoa[year], \"-\", _itoa[month]));\n    }\n\n    function _getYear(uint256 timestamp) internal pure returns (uint256) {\n        uint256 secondsAccountedFor = 0;\n        uint16 year = uint16(_ORIGIN_YEAR + timestamp / _YEAR_IN_SECONDS);\n        uint256 numLeapYears = _leapYearsBefore(year) -\n            _leapYearsBefore(_ORIGIN_YEAR);\n\n        secondsAccountedFor += _LEAP_YEAR_IN_SECONDS * numLeapYears;\n        secondsAccountedFor +=\n            _YEAR_IN_SECONDS *\n            (year - _ORIGIN_YEAR - numLeapYears);\n\n        while (secondsAccountedFor > timestamp) {\n            if (_isLeapYear(uint16(year - 1))) {\n                secondsAccountedFor -= _LEAP_YEAR_IN_SECONDS;\n            } else {\n                secondsAccountedFor -= _YEAR_IN_SECONDS;\n            }\n            year -= 1;\n        }\n        return year;\n    }\n}\n",
  "sourcePath": "/DateHelper.sol",
  "compiler": {
    "name": "solc",
    "version": "0.6.12+commit.27d51765.Emscripten.clang"
  },
  "schemaVersion": "3.2.5",
  "updatedAt": "2020-09-27T11:32:33.106Z",
  "networkType": "ethereum",
  "devdoc": {
    "kind": "dev",
    "methods": {},
    "version": 1
  },
  "userdoc": {
    "kind": "user",
    "methods": {},
    "version": 1
  }
}