{
  "contractName": "Policy",
  "abi": [
    {
      "inputs": [
        {
          "internalType": "contract ITreasury",
          "name": "treasury",
          "type": "address"
        },
        {
          "internalType": "contract IPriceProducer",
          "name": "priceFetcher",
          "type": "address"
        }
      ],
      "stateMutability": "nonpayable",
      "type": "constructor"
    },
    {
      "anonymous": false,
      "inputs": [
        {
          "indexed": true,
          "internalType": "address",
          "name": "owner",
          "type": "address"
        },
        {
          "indexed": true,
          "internalType": "address",
          "name": "approved",
          "type": "address"
        },
        {
          "indexed": true,
          "internalType": "uint256",
          "name": "tokenId",
          "type": "uint256"
        }
      ],
      "name": "Approval",
      "type": "event"
    },
    {
      "anonymous": false,
      "inputs": [
        {
          "indexed": true,
          "internalType": "address",
          "name": "owner",
          "type": "address"
        },
        {
          "indexed": true,
          "internalType": "address",
          "name": "operator",
          "type": "address"
        },
        {
          "indexed": false,
          "internalType": "bool",
          "name": "approved",
          "type": "bool"
        }
      ],
      "name": "ApprovalForAll",
      "type": "event"
    },
    {
      "anonymous": false,
      "inputs": [
        {
          "indexed": true,
          "internalType": "address",
          "name": "previousOwner",
          "type": "address"
        },
        {
          "indexed": true,
          "internalType": "address",
          "name": "newOwner",
          "type": "address"
        }
      ],
      "name": "OwnershipTransferred",
      "type": "event"
    },
    {
      "anonymous": false,
      "inputs": [
        {
          "indexed": true,
          "internalType": "address",
          "name": "holder",
          "type": "address"
        },
        {
          "indexed": false,
          "internalType": "uint256",
          "name": "policyId",
          "type": "uint256"
        },
        {
          "indexed": false,
          "internalType": "bool",
          "name": "succees",
          "type": "bool"
        }
      ],
      "name": "PolicyClaimed",
      "type": "event"
    },
    {
      "anonymous": false,
      "inputs": [
        {
          "indexed": true,
          "internalType": "address",
          "name": "from",
          "type": "address"
        },
        {
          "indexed": true,
          "internalType": "address",
          "name": "to",
          "type": "address"
        },
        {
          "indexed": true,
          "internalType": "uint256",
          "name": "tokenId",
          "type": "uint256"
        }
      ],
      "name": "Transfer",
      "type": "event"
    },
    {
      "inputs": [
        {
          "internalType": "address",
          "name": "to",
          "type": "address"
        },
        {
          "internalType": "uint256",
          "name": "tokenId",
          "type": "uint256"
        }
      ],
      "name": "approve",
      "outputs": [],
      "stateMutability": "nonpayable",
      "type": "function"
    },
    {
      "inputs": [
        {
          "internalType": "address",
          "name": "owner",
          "type": "address"
        }
      ],
      "name": "balanceOf",
      "outputs": [
        {
          "internalType": "uint256",
          "name": "",
          "type": "uint256"
        }
      ],
      "stateMutability": "view",
      "type": "function",
      "constant": true
    },
    {
      "inputs": [],
      "name": "baseURI",
      "outputs": [
        {
          "internalType": "string",
          "name": "",
          "type": "string"
        }
      ],
      "stateMutability": "view",
      "type": "function",
      "constant": true
    },
    {
      "inputs": [
        {
          "internalType": "uint256",
          "name": "tokenId",
          "type": "uint256"
        }
      ],
      "name": "getApproved",
      "outputs": [
        {
          "internalType": "address",
          "name": "",
          "type": "address"
        }
      ],
      "stateMutability": "view",
      "type": "function",
      "constant": true
    },
    {
      "inputs": [
        {
          "internalType": "address",
          "name": "owner",
          "type": "address"
        },
        {
          "internalType": "address",
          "name": "operator",
          "type": "address"
        }
      ],
      "name": "isApprovedForAll",
      "outputs": [
        {
          "internalType": "bool",
          "name": "",
          "type": "bool"
        }
      ],
      "stateMutability": "view",
      "type": "function",
      "constant": true
    },
    {
      "inputs": [],
      "name": "name",
      "outputs": [
        {
          "internalType": "string",
          "name": "",
          "type": "string"
        }
      ],
      "stateMutability": "view",
      "type": "function",
      "constant": true
    },
    {
      "inputs": [],
      "name": "owner",
      "outputs": [
        {
          "internalType": "address",
          "name": "",
          "type": "address"
        }
      ],
      "stateMutability": "view",
      "type": "function",
      "constant": true
    },
    {
      "inputs": [
        {
          "internalType": "uint256",
          "name": "tokenId",
          "type": "uint256"
        }
      ],
      "name": "ownerOf",
      "outputs": [
        {
          "internalType": "address",
          "name": "",
          "type": "address"
        }
      ],
      "stateMutability": "view",
      "type": "function",
      "constant": true
    },
    {
      "inputs": [
        {
          "internalType": "uint256",
          "name": "",
          "type": "uint256"
        }
      ],
      "name": "policies",
      "outputs": [
        {
          "internalType": "uint256",
          "name": "policyId",
          "type": "uint256"
        },
        {
          "internalType": "uint256",
          "name": "coverAmount",
          "type": "uint256"
        },
        {
          "internalType": "uint256",
          "name": "end",
          "type": "uint256"
        },
        {
          "internalType": "string",
          "name": "externalCode",
          "type": "string"
        },
        {
          "internalType": "uint256",
          "name": "strikePrice",
          "type": "uint256"
        },
        {
          "internalType": "bool",
          "name": "active",
          "type": "bool"
        }
      ],
      "stateMutability": "view",
      "type": "function",
      "constant": true
    },
    {
      "inputs": [],
      "name": "renounceOwnership",
      "outputs": [],
      "stateMutability": "nonpayable",
      "type": "function"
    },
    {
      "inputs": [
        {
          "internalType": "address",
          "name": "from",
          "type": "address"
        },
        {
          "internalType": "address",
          "name": "to",
          "type": "address"
        },
        {
          "internalType": "uint256",
          "name": "tokenId",
          "type": "uint256"
        }
      ],
      "name": "safeTransferFrom",
      "outputs": [],
      "stateMutability": "nonpayable",
      "type": "function"
    },
    {
      "inputs": [
        {
          "internalType": "address",
          "name": "from",
          "type": "address"
        },
        {
          "internalType": "address",
          "name": "to",
          "type": "address"
        },
        {
          "internalType": "uint256",
          "name": "tokenId",
          "type": "uint256"
        },
        {
          "internalType": "bytes",
          "name": "_data",
          "type": "bytes"
        }
      ],
      "name": "safeTransferFrom",
      "outputs": [],
      "stateMutability": "nonpayable",
      "type": "function"
    },
    {
      "inputs": [
        {
          "internalType": "address",
          "name": "operator",
          "type": "address"
        },
        {
          "internalType": "bool",
          "name": "approved",
          "type": "bool"
        }
      ],
      "name": "setApprovalForAll",
      "outputs": [],
      "stateMutability": "nonpayable",
      "type": "function"
    },
    {
      "inputs": [
        {
          "internalType": "bytes4",
          "name": "interfaceId",
          "type": "bytes4"
        }
      ],
      "name": "supportsInterface",
      "outputs": [
        {
          "internalType": "bool",
          "name": "",
          "type": "bool"
        }
      ],
      "stateMutability": "view",
      "type": "function",
      "constant": true
    },
    {
      "inputs": [],
      "name": "symbol",
      "outputs": [
        {
          "internalType": "string",
          "name": "",
          "type": "string"
        }
      ],
      "stateMutability": "view",
      "type": "function",
      "constant": true
    },
    {
      "inputs": [
        {
          "internalType": "uint256",
          "name": "index",
          "type": "uint256"
        }
      ],
      "name": "tokenByIndex",
      "outputs": [
        {
          "internalType": "uint256",
          "name": "",
          "type": "uint256"
        }
      ],
      "stateMutability": "view",
      "type": "function",
      "constant": true
    },
    {
      "inputs": [
        {
          "internalType": "address",
          "name": "owner",
          "type": "address"
        },
        {
          "internalType": "uint256",
          "name": "index",
          "type": "uint256"
        }
      ],
      "name": "tokenOfOwnerByIndex",
      "outputs": [
        {
          "internalType": "uint256",
          "name": "",
          "type": "uint256"
        }
      ],
      "stateMutability": "view",
      "type": "function",
      "constant": true
    },
    {
      "inputs": [
        {
          "internalType": "uint256",
          "name": "tokenId",
          "type": "uint256"
        }
      ],
      "name": "tokenURI",
      "outputs": [
        {
          "internalType": "string",
          "name": "",
          "type": "string"
        }
      ],
      "stateMutability": "view",
      "type": "function",
      "constant": true
    },
    {
      "inputs": [],
      "name": "totalSupply",
      "outputs": [
        {
          "internalType": "uint256",
          "name": "",
          "type": "uint256"
        }
      ],
      "stateMutability": "view",
      "type": "function",
      "constant": true
    },
    {
      "inputs": [
        {
          "internalType": "address",
          "name": "from",
          "type": "address"
        },
        {
          "internalType": "address",
          "name": "to",
          "type": "address"
        },
        {
          "internalType": "uint256",
          "name": "tokenId",
          "type": "uint256"
        }
      ],
      "name": "transferFrom",
      "outputs": [],
      "stateMutability": "nonpayable",
      "type": "function"
    },
    {
      "inputs": [
        {
          "internalType": "address",
          "name": "newOwner",
          "type": "address"
        }
      ],
      "name": "transferOwnership",
      "outputs": [],
      "stateMutability": "nonpayable",
      "type": "function"
    },
    {
      "inputs": [
        {
          "internalType": "address",
          "name": "to",
          "type": "address"
        },
        {
          "components": [
            {
              "internalType": "uint256",
              "name": "policyId",
              "type": "uint256"
            },
            {
              "internalType": "uint256",
              "name": "coverAmount",
              "type": "uint256"
            },
            {
              "internalType": "uint256",
              "name": "end",
              "type": "uint256"
            },
            {
              "internalType": "string",
              "name": "externalCode",
              "type": "string"
            },
            {
              "internalType": "uint256",
              "name": "strikePrice",
              "type": "uint256"
            },
            {
              "internalType": "bool",
              "name": "active",
              "type": "bool"
            }
          ],
          "internalType": "struct IPolicy.PolicyData",
          "name": "data",
          "type": "tuple"
        }
      ],
      "name": "mintPolicy",
      "outputs": [
        {
          "internalType": "uint256",
          "name": "tokenId",
          "type": "uint256"
        }
      ],
      "stateMutability": "nonpayable",
      "type": "function"
    },
    {
      "inputs": [
        {
          "internalType": "uint256",
          "name": "policyId",
          "type": "uint256"
        }
      ],
      "name": "claim",
      "outputs": [],
      "stateMutability": "nonpayable",
      "type": "function"
    },
    {
      "inputs": [
        {
          "internalType": "bytes32",
          "name": "requestId",
          "type": "bytes32"
        },
        {
          "internalType": "uint256",
          "name": "currentPrice",
          "type": "uint256"
        }
      ],
      "name": "onPriceResponse",
      "outputs": [],
      "stateMutability": "nonpayable",
      "type": "function"
    },
    {
      "inputs": [
        {
          "internalType": "uint256",
          "name": "policyId",
          "type": "uint256"
        }
      ],
      "name": "burnExpiredPolicy",
      "outputs": [],
      "stateMutability": "nonpayable",
      "type": "function"
    }
  ],
  "bytecode": "0x60806040523480156200001157600080fd5b50604051620045de380380620045de833981810160405281019062000037919062000425565b6040518060400160405280600681526020017f506f6c69637900000000000000000000000000000000000000000000000000008152506040518060400160405280600581526020017f5245504c430000000000000000000000000000000000000000000000000000008152506000620000b56200027160201b60201c565b9050806000806101000a81548173ffffffffffffffffffffffffffffffffffffffff021916908373ffffffffffffffffffffffffffffffffffffffff1602179055508073ffffffffffffffffffffffffffffffffffffffff16600073ffffffffffffffffffffffffffffffffffffffff167f8be0079c531659141344cd1fd0a4f28419497f9722a3daafe3b4186f6b6457e060405160405180910390a3506200016b6301ffc9a760e01b6200027960201b60201c565b81600790805190602001906200018392919062000351565b5080600890805190602001906200019c92919062000351565b50620001b56380ac58cd60e01b6200027960201b60201c565b620001cd635b5e139f60e01b6200027960201b60201c565b620001e563780e9d6360e01b6200027960201b60201c565b505081600c60006101000a81548173ffffffffffffffffffffffffffffffffffffffff021916908373ffffffffffffffffffffffffffffffffffffffff16021790555080600d60006101000a81548173ffffffffffffffffffffffffffffffffffffffff021916908373ffffffffffffffffffffffffffffffffffffffff16021790555050506200056b565b600033905090565b63ffffffff60e01b817bffffffffffffffffffffffffffffffffffffffffffffffffffffffff19161415620002e5576040517f08c379a0000000000000000000000000000000000000000000000000000000008152600401620002dc90620004a8565b60405180910390fd5b6001806000837bffffffffffffffffffffffffffffffffffffffffffffffffffffffff19167bffffffffffffffffffffffffffffffffffffffffffffffffffffffff1916815260200190815260200160002060006101000a81548160ff02191690831515021790555050565b828054600181600116156101000203166002900490600052602060002090601f016020900481019282601f106200039457805160ff1916838001178555620003c5565b82800160010185558215620003c5579182015b82811115620003c4578251825591602001919060010190620003a7565b5b509050620003d49190620003d8565b5090565b5b80821115620003f3576000816000905550600101620003d9565b5090565b600081519050620004088162000537565b92915050565b6000815190506200041f8162000551565b92915050565b600080604083850312156200043957600080fd5b600062000449858286016200040e565b92505060206200045c85828601620003f7565b9150509250929050565b600062000475601c83620004ca565b91507f4552433136353a20696e76616c696420696e74657266616365206964000000006000830152602082019050919050565b60006020820190508181036000830152620004c38162000466565b9050919050565b600082825260208201905092915050565b6000620004e88262000517565b9050919050565b6000620004fc82620004db565b9050919050565b60006200051082620004db565b9050919050565b600073ffffffffffffffffffffffffffffffffffffffff82169050919050565b6200054281620004ef565b81146200054e57600080fd5b50565b6200055c8162000503565b81146200056857600080fd5b50565b614063806200057b6000396000f3fe608060405234801561001057600080fd5b50600436106101735760003560e01c80636c0360eb116100de578063a22cb46511610097578063c87b56dd11610071578063c87b56dd14610448578063d3e8948314610478578063e985e9c5146104ad578063f2fde38b146104dd57610173565b8063a22cb465146103f4578063b88d4fde14610410578063c1c1f85a1461042c57610173565b80636c0360eb1461033057806370a082311461034e578063715018a61461037e5780638d501cc8146103885780638da5cb5b146103b857806395d89b41146103d657610173565b80632f745c59116101305780632f745c591461024c578063379607f51461027c57806342842e0e146102985780634f6ccce7146102b457806360fe02f9146102e45780636352211e1461030057610173565b806301ffc9a71461017857806306fdde03146101a8578063081812fc146101c6578063095ea7b3146101f657806318160ddd1461021257806323b872dd14610230575b600080fd5b610192600480360381019061018d9190612fa8565b6104f9565b60405161019f91906139e0565b60405180910390f35b6101b0610561565b6040516101bd91906139fb565b60405180910390f35b6101e060048036038101906101db9190612ffa565b610603565b6040516101ed9190613979565b60405180910390f35b610210600480360381019061020b9190612f07565b610688565b005b61021a6107a0565b6040516102279190613cbf565b60405180910390f35b61024a60048036038101906102459190612dad565b6107b1565b005b61026660048036038101906102619190612f07565b610811565b6040516102739190613cbf565b60405180910390f35b61029660048036038101906102919190612ffa565b61086c565b005b6102b260048036038101906102ad9190612dad565b6109c0565b005b6102ce60048036038101906102c99190612ffa565b6109e0565b6040516102db9190613cbf565b60405180910390f35b6102fe60048036038101906102f99190612ffa565b610a03565b005b61031a60048036038101906103159190612ffa565b610ab8565b6040516103279190613979565b60405180910390f35b610338610aef565b60405161034591906139fb565b60405180910390f35b61036860048036038101906103639190612d48565b610b91565b6040516103759190613cbf565b60405180910390f35b610386610c50565b005b6103a2600480360381019061039d9190612eb3565b610da3565b6040516103af9190613cbf565b60405180910390f35b6103c0610ee6565b6040516103cd9190613979565b60405180910390f35b6103de610f0f565b6040516103eb91906139fb565b60405180910390f35b61040e60048036038101906104099190612e77565b610fb1565b005b61042a60048036038101906104259190612dfc565b611132565b005b61044660048036038101906104419190612f6c565b611194565b005b610462600480360381019061045d9190612ffa565b6113d1565b60405161046f91906139fb565b60405180910390f35b610492600480360381019061048d9190612ffa565b61155c565b6040516104a496959493929190613d2c565b60405180910390f35b6104c760048036038101906104c29190612d71565b61163d565b6040516104d491906139e0565b60405180910390f35b6104f760048036038101906104f29190612d48565b6116d1565b005b600060016000837bffffffffffffffffffffffffffffffffffffffffffffffffffffffff19167bffffffffffffffffffffffffffffffffffffffffffffffffffffffff1916815260200190815260200160002060009054906101000a900460ff169050919050565b606060078054600181600116156101000203166002900480601f0160208091040260200160405190810160405280929190818152602001828054600181600116156101000203166002900480156105f95780601f106105ce576101008083540402835291602001916105f9565b820191906000526020600020905b8154815290600101906020018083116105dc57829003601f168201915b5050505050905090565b600061060e82611893565b61064d576040517f08c379a000000000000000000000000000000000000000000000000000000000815260040161064490613b9f565b60405180910390fd5b6005600083815260200190815260200160002060009054906101000a900473ffffffffffffffffffffffffffffffffffffffff169050919050565b600061069382610ab8565b90508073ffffffffffffffffffffffffffffffffffffffff168373ffffffffffffffffffffffffffffffffffffffff161415610704576040517f08c379a00000000000000000000000000000000000000000000000000000000081526004016106fb90613c3f565b60405180910390fd5b8073ffffffffffffffffffffffffffffffffffffffff166107236118b0565b73ffffffffffffffffffffffffffffffffffffffff16148061075257506107518161074c6118b0565b61163d565b5b610791576040517f08c379a000000000000000000000000000000000000000000000000000000000815260040161078890613b1f565b60405180910390fd5b61079b83836118b8565b505050565b60006107ac6003611971565b905090565b6107c26107bc6118b0565b82611986565b610801576040517f08c379a00000000000000000000000000000000000000000000000000000000081526004016107f890613c5f565b60405180910390fd5b61080c838383611a64565b505050565b600061086482600260008673ffffffffffffffffffffffffffffffffffffffff1673ffffffffffffffffffffffffffffffffffffffff168152602001908152602001600020611c7b90919063ffffffff16565b905092915050565b6000600e600083815260200190815260200160002090508060050160009054906101000a900460ff166108d4576040517f08c379a00000000000000000000000000000000000000000000000000000000081526004016108cb90613c1f565b60405180910390fd5b42816002015410156108ee576108e982611c95565b6109bc565b6000600d60009054906101000a900473ffffffffffffffffffffffffffffffffffffffff1673ffffffffffffffffffffffffffffffffffffffff1663d4fe6bd0836003016040518263ffffffff1660e01b815260040161094e9190613a1d565b602060405180830381600087803b15801561096857600080fd5b505af115801561097c573d6000803e3d6000fd5b505050506040513d601f19601f820116820180604052508101906109a09190612f43565b905082600f600083815260200190815260200160002081905550505b5050565b6109db83838360405180602001604052806000815250611132565b505050565b6000806109f7836003611cfb90919063ffffffff16565b50905080915050919050565b6000600e60008381526020019081526020016000209050600c60009054906101000a900473ffffffffffffffffffffffffffffffffffffffff1673ffffffffffffffffffffffffffffffffffffffff16634d68282f82600101546040518263ffffffff1660e01b8152600401610a799190613cbf565b600060405180830381600087803b158015610a9357600080fd5b505af1158015610aa7573d6000803e3d6000fd5b50505050610ab482611c95565b5050565b6000610ae882604051806060016040528060298152602001614005602991396003611d279092919063ffffffff16565b9050919050565b6060600a8054600181600116156101000203166002900480601f016020809104026020016040519081016040528092919081815260200182805460018160011615610100020316600290048015610b875780601f10610b5c57610100808354040283529160200191610b87565b820191906000526020600020905b815481529060010190602001808311610b6a57829003601f168201915b5050505050905090565b60008073ffffffffffffffffffffffffffffffffffffffff168273ffffffffffffffffffffffffffffffffffffffff161415610c02576040517f08c379a0000000000000000000000000000000000000000000000000000000008152600401610bf990613b3f565b60405180910390fd5b610c49600260008473ffffffffffffffffffffffffffffffffffffffff1673ffffffffffffffffffffffffffffffffffffffff168152602001908152602001600020611d46565b9050919050565b610c586118b0565b73ffffffffffffffffffffffffffffffffffffffff1660008054906101000a900473ffffffffffffffffffffffffffffffffffffffff1673ffffffffffffffffffffffffffffffffffffffff1614610ce5576040517f08c379a0000000000000000000000000000000000000000000000000000000008152600401610cdc90613bbf565b60405180910390fd5b600073ffffffffffffffffffffffffffffffffffffffff1660008054906101000a900473ffffffffffffffffffffffffffffffffffffffff1673ffffffffffffffffffffffffffffffffffffffff167f8be0079c531659141344cd1fd0a4f28419497f9722a3daafe3b4186f6b6457e060405160405180910390a360008060006101000a81548173ffffffffffffffffffffffffffffffffffffffff021916908373ffffffffffffffffffffffffffffffffffffffff160217905550565b6000610dad6118b0565b73ffffffffffffffffffffffffffffffffffffffff1660008054906101000a900473ffffffffffffffffffffffffffffffffffffffff1673ffffffffffffffffffffffffffffffffffffffff1614610e3a576040517f08c379a0000000000000000000000000000000000000000000000000000000008152600401610e3190613bbf565b60405180910390fd5b610e44600b611d5b565b9050610e508382611d69565b610e5a600b611ef7565b8082600001818152505081600e60008381526020019081526020016000206000820151816000015560208201518160010155604082015181600201556060820151816003019080519060200190610eb2929190612a74565b506080820151816004015560a08201518160050160006101000a81548160ff02191690831515021790555090505092915050565b60008060009054906101000a900473ffffffffffffffffffffffffffffffffffffffff16905090565b606060088054600181600116156101000203166002900480601f016020809104026020016040519081016040528092919081815260200182805460018160011615610100020316600290048015610fa75780601f10610f7c57610100808354040283529160200191610fa7565b820191906000526020600020905b815481529060010190602001808311610f8a57829003601f168201915b5050505050905090565b610fb96118b0565b73ffffffffffffffffffffffffffffffffffffffff168273ffffffffffffffffffffffffffffffffffffffff161415611027576040517f08c379a000000000000000000000000000000000000000000000000000000000815260040161101e90613adf565b60405180910390fd5b80600660006110346118b0565b73ffffffffffffffffffffffffffffffffffffffff1673ffffffffffffffffffffffffffffffffffffffff16815260200190815260200160002060008473ffffffffffffffffffffffffffffffffffffffff1673ffffffffffffffffffffffffffffffffffffffff16815260200190815260200160002060006101000a81548160ff0219169083151502179055508173ffffffffffffffffffffffffffffffffffffffff166110e16118b0565b73ffffffffffffffffffffffffffffffffffffffff167f17307eab39ab6107e8899845ad3d59bd9653f200f220920489ca2b5937696c318360405161112691906139e0565b60405180910390a35050565b61114361113d6118b0565b83611986565b611182576040517f08c379a000000000000000000000000000000000000000000000000000000000815260040161117990613c5f565b60405180910390fd5b61118e84848484611f0d565b50505050565b600d60009054906101000a900473ffffffffffffffffffffffffffffffffffffffff1673ffffffffffffffffffffffffffffffffffffffff163373ffffffffffffffffffffffffffffffffffffffff1614611224576040517f08c379a000000000000000000000000000000000000000000000000000000000815260040161121b90613c9f565b60405180910390fd5b6000600f60008481526020019081526020016000205490506000600e60008381526020019081526020016000209050600061125e83610ab8565b90508160050160009054906101000a900460ff1680156112815750816004015484105b1561137857600c60009054906101000a900473ffffffffffffffffffffffffffffffffffffffff1673ffffffffffffffffffffffffffffffffffffffff1663323bcc428360010154836040518363ffffffff1660e01b81526004016112e7929190613cda565b600060405180830381600087803b15801561130157600080fd5b505af1158015611315573d6000803e3d6000fd5b5050505061132283611c95565b8073ffffffffffffffffffffffffffffffffffffffff167f9807d4727ae6308b32cd43219b52031088c7bad64a9936c1afaf6df0c6ce723d84600160405161136b929190613d03565b60405180910390a26113ca565b8073ffffffffffffffffffffffffffffffffffffffff167f9807d4727ae6308b32cd43219b52031088c7bad64a9936c1afaf6df0c6ce723d8460006040516113c1929190613d03565b60405180910390a25b5050505050565b60606113dc82611893565b61141b576040517f08c379a000000000000000000000000000000000000000000000000000000000815260040161141290613bff565b60405180910390fd5b6060600960008481526020019081526020016000208054600181600116156101000203166002900480601f0160208091040260200160405190810160405280929190818152602001828054600181600116156101000203166002900480156114c45780601f10611499576101008083540402835291602001916114c4565b820191906000526020600020905b8154815290600101906020018083116114a757829003601f168201915b505050505090506000600a80546001816001161561010002031660029004905014156114f35780915050611557565b60008151111561152857600a81604051602001611511929190613955565b604051602081830303815290604052915050611557565b600a61153384611f69565b604051602001611544929190613955565b6040516020818303038152906040529150505b919050565b600e602052806000526040600020600091509050806000015490806001015490806002015490806003018054600181600116156101000203166002900480601f01602080910402602001604051908101604052809291908181526020018280546001816001161561010002031660029004801561161a5780601f106115ef5761010080835404028352916020019161161a565b820191906000526020600020905b8154815290600101906020018083116115fd57829003601f168201915b5050505050908060040154908060050160009054906101000a900460ff16905086565b6000600660008473ffffffffffffffffffffffffffffffffffffffff1673ffffffffffffffffffffffffffffffffffffffff16815260200190815260200160002060008373ffffffffffffffffffffffffffffffffffffffff1673ffffffffffffffffffffffffffffffffffffffff16815260200190815260200160002060009054906101000a900460ff16905092915050565b6116d96118b0565b73ffffffffffffffffffffffffffffffffffffffff1660008054906101000a900473ffffffffffffffffffffffffffffffffffffffff1673ffffffffffffffffffffffffffffffffffffffff1614611766576040517f08c379a000000000000000000000000000000000000000000000000000000000815260040161175d90613bbf565b60405180910390fd5b600073ffffffffffffffffffffffffffffffffffffffff168173ffffffffffffffffffffffffffffffffffffffff1614156117d6576040517f08c379a00000000000000000000000000000000000000000000000000000000081526004016117cd90613a7f565b60405180910390fd5b8073ffffffffffffffffffffffffffffffffffffffff1660008054906101000a900473ffffffffffffffffffffffffffffffffffffffff1673ffffffffffffffffffffffffffffffffffffffff167f8be0079c531659141344cd1fd0a4f28419497f9722a3daafe3b4186f6b6457e060405160405180910390a3806000806101000a81548173ffffffffffffffffffffffffffffffffffffffff021916908373ffffffffffffffffffffffffffffffffffffffff16021790555050565b60006118a98260036120b090919063ffffffff16565b9050919050565b600033905090565b816005600083815260200190815260200160002060006101000a81548173ffffffffffffffffffffffffffffffffffffffff021916908373ffffffffffffffffffffffffffffffffffffffff160217905550808273ffffffffffffffffffffffffffffffffffffffff1661192b83610ab8565b73ffffffffffffffffffffffffffffffffffffffff167f8c5be1e5ebec7d5bd14f71427d1e84f3dd0314c0f7b2291e5b200ac8c7c3b92560405160405180910390a45050565b600061197f826000016120ca565b9050919050565b600061199182611893565b6119d0576040517f08c379a00000000000000000000000000000000000000000000000000000000081526004016119c790613aff565b60405180910390fd5b60006119db83610ab8565b90508073ffffffffffffffffffffffffffffffffffffffff168473ffffffffffffffffffffffffffffffffffffffff161480611a4a57508373ffffffffffffffffffffffffffffffffffffffff16611a3284610603565b73ffffffffffffffffffffffffffffffffffffffff16145b80611a5b5750611a5a818561163d565b5b91505092915050565b8273ffffffffffffffffffffffffffffffffffffffff16611a8482610ab8565b73ffffffffffffffffffffffffffffffffffffffff1614611ada576040517f08c379a0000000000000000000000000000000000000000000000000000000008152600401611ad190613bdf565b60405180910390fd5b600073ffffffffffffffffffffffffffffffffffffffff168273ffffffffffffffffffffffffffffffffffffffff161415611b4a576040517f08c379a0000000000000000000000000000000000000000000000000000000008152600401611b4190613abf565b60405180910390fd5b611b558383836120db565b611b606000826118b8565b611bb181600260008673ffffffffffffffffffffffffffffffffffffffff1673ffffffffffffffffffffffffffffffffffffffff1681526020019081526020016000206120e090919063ffffffff16565b50611c0381600260008573ffffffffffffffffffffffffffffffffffffffff1673ffffffffffffffffffffffffffffffffffffffff1681526020019081526020016000206120fa90919063ffffffff16565b50611c1a818360036121149092919063ffffffff16565b50808273ffffffffffffffffffffffffffffffffffffffff168473ffffffffffffffffffffffffffffffffffffffff167fddf252ad1be2c89b69c2b068fc378daa952ba7f163c4a11628f55a4df523b3ef60405160405180910390a4505050565b6000611c8a8360000183612149565b60001c905092915050565b611c9e816121b6565b600e600082815260200190815260200160002060008082016000905560018201600090556002820160009055600382016000611cda9190612af4565b60048201600090556005820160006101000a81549060ff0219169055505050565b600080600080611d0e86600001866122f0565b915091508160001c8160001c9350935050509250929050565b6000611d3a846000018460001b84612373565b60001c90509392505050565b6000611d5482600001612404565b9050919050565b600081600001549050919050565b600073ffffffffffffffffffffffffffffffffffffffff168273ffffffffffffffffffffffffffffffffffffffff161415611dd9576040517f08c379a0000000000000000000000000000000000000000000000000000000008152600401611dd090613b7f565b60405180910390fd5b611de281611893565b15611e22576040517f08c379a0000000000000000000000000000000000000000000000000000000008152600401611e1990613a9f565b60405180910390fd5b611e2e600083836120db565b611e7f81600260008573ffffffffffffffffffffffffffffffffffffffff1673ffffffffffffffffffffffffffffffffffffffff1681526020019081526020016000206120fa90919063ffffffff16565b50611e96818360036121149092919063ffffffff16565b50808273ffffffffffffffffffffffffffffffffffffffff16600073ffffffffffffffffffffffffffffffffffffffff167fddf252ad1be2c89b69c2b068fc378daa952ba7f163c4a11628f55a4df523b3ef60405160405180910390a45050565b6001816000016000828254019250508190555050565b611f18848484611a64565b611f2484848484612415565b611f63576040517f08c379a0000000000000000000000000000000000000000000000000000000008152600401611f5a90613a5f565b60405180910390fd5b50505050565b60606000821415611fb1576040518060400160405280600181526020017f300000000000000000000000000000000000000000000000000000000000000081525090506120ab565b600082905060005b60008214611fdb578080600101915050600a8281611fd357fe5b049150611fb9565b60608167ffffffffffffffff81118015611ff457600080fd5b506040519080825280601f01601f1916602001820160405280156120275781602001600182028036833780820191505090505b50905060006001830390508593505b600084146120a357600a848161204857fe5b0660300160f81b8282806001900393508151811061206257fe5b60200101907effffffffffffffffffffffffffffffffffffffffffffffffffffffffffffff1916908160001a905350600a848161209b57fe5b049350612036565b819450505050505b919050565b60006120c2836000018360001b612579565b905092915050565b600081600001805490509050919050565b505050565b60006120f2836000018360001b61259c565b905092915050565b600061210c836000018360001b612684565b905092915050565b6000612140846000018460001b8473ffffffffffffffffffffffffffffffffffffffff1660001b6126f4565b90509392505050565b600081836000018054905011612194576040517f08c379a000000000000000000000000000000000000000000000000000000000815260040161218b90613a3f565b60405180910390fd5b8260000182815481106121a357fe5b9060005260206000200154905092915050565b60006121c182610ab8565b90506121cf816000846120db565b6121da6000836118b8565b60006009600084815260200190815260200160002080546001816001161561010002031660029004905014612229576009600083815260200190815260200160002060006122289190612af4565b5b61227a82600260008473ffffffffffffffffffffffffffffffffffffffff1673ffffffffffffffffffffffffffffffffffffffff1681526020019081526020016000206120e090919063ffffffff16565b5061228f8260036127d090919063ffffffff16565b5081600073ffffffffffffffffffffffffffffffffffffffff168273ffffffffffffffffffffffffffffffffffffffff167fddf252ad1be2c89b69c2b068fc378daa952ba7f163c4a11628f55a4df523b3ef60405160405180910390a45050565b6000808284600001805490501161233c576040517f08c379a000000000000000000000000000000000000000000000000000000000815260040161233390613b5f565b60405180910390fd5b600084600001848154811061234d57fe5b906000526020600020906002020190508060000154816001015492509250509250929050565b600080846001016000858152602001908152602001600020549050600081141583906123d5576040517f08c379a00000000000000000000000000000000000000000000000000000000081526004016123cc91906139fb565b60405180910390fd5b508460000160018203815481106123e857fe5b9060005260206000209060020201600101549150509392505050565b600081600001805490509050919050565b60006124368473ffffffffffffffffffffffffffffffffffffffff166127ea565b6124435760019050612571565b606061250a63150b7a0260e01b6124586118b0565b88878760405160240161246e9493929190613994565b604051602081830303815290604052907bffffffffffffffffffffffffffffffffffffffffffffffffffffffff19166020820180517bffffffffffffffffffffffffffffffffffffffffffffffffffffffff8381831617835250505050604051806060016040528060328152602001613fd3603291398773ffffffffffffffffffffffffffffffffffffffff166127fd9092919063ffffffff16565b90506000818060200190518101906125229190612fd1565b905063150b7a0260e01b7bffffffffffffffffffffffffffffffffffffffffffffffffffffffff1916817bffffffffffffffffffffffffffffffffffffffffffffffffffffffff191614925050505b949350505050565b600080836001016000848152602001908152602001600020541415905092915050565b6000808360010160008481526020019081526020016000205490506000811461267857600060018203905060006001866000018054905003905060008660000182815481106125e757fe5b906000526020600020015490508087600001848154811061260457fe5b906000526020600020018190555060018301876001016000838152602001908152602001600020819055508660000180548061263c57fe5b6001900381819060005260206000200160009055905586600101600087815260200190815260200160002060009055600194505050505061267e565b60009150505b92915050565b60006126908383612815565b6126e95782600001829080600181540180825580915050600190039060005260206000200160009091909190915055826000018054905083600101600084815260200190815260200160002081905550600190506126ee565b600090505b92915050565b600080846001016000858152602001908152602001600020549050600081141561279b578460000160405180604001604052808681526020018581525090806001815401808255809150506001900390600052602060002090600202016000909190919091506000820151816000015560208201518160010155505084600001805490508560010160008681526020019081526020016000208190555060019150506127c9565b828560000160018303815481106127ae57fe5b90600052602060002090600202016001018190555060009150505b9392505050565b60006127e2836000018360001b612838565b905092915050565b600080823b905060008111915050919050565b606061280c8484600085612951565b90509392505050565b600080836001016000848152602001908152602001600020541415905092915050565b60008083600101600084815260200190815260200160002054905060008114612945576000600182039050600060018660000180549050039050600086600001828154811061288357fe5b90600052602060002090600202019050808760000184815481106128a357fe5b90600052602060002090600202016000820154816000015560018201548160010155905050600183018760010160008360000154815260200190815260200160002081905550866000018054806128f657fe5b600190038181906000526020600020906002020160008082016000905560018201600090555050905586600101600087815260200190815260200160002060009055600194505050505061294b565b60009150505b92915050565b606061295c856127ea565b61299b576040517f08c379a000000000000000000000000000000000000000000000000000000000815260040161299290613c7f565b60405180910390fd5b600060608673ffffffffffffffffffffffffffffffffffffffff1685876040516129c5919061393e565b60006040518083038185875af1925050503d8060008114612a02576040519150601f19603f3d011682016040523d82523d6000602084013e612a07565b606091505b50915091508115612a1c578092505050612a6c565b600081511115612a2f5780518082602001fd5b836040517f08c379a0000000000000000000000000000000000000000000000000000000008152600401612a6391906139fb565b60405180910390fd5b949350505050565b828054600181600116156101000203166002900490600052602060002090601f016020900481019282601f10612ab557805160ff1916838001178555612ae3565b82800160010185558215612ae3579182015b82811115612ae2578251825591602001919060010190612ac7565b5b509050612af09190612b3c565b5090565b50805460018160011615610100020316600290046000825580601f10612b1a5750612b39565b601f016020900490600052602060002090810190612b389190612b3c565b5b50565b5b80821115612b55576000816000905550600101612b3d565b5090565b600081359050612b6881613f5f565b92915050565b600081359050612b7d81613f76565b92915050565b600081359050612b9281613f8d565b92915050565b600081519050612ba781613f8d565b92915050565b600081359050612bbc81613fa4565b92915050565b600081519050612bd181613fa4565b92915050565b600082601f830112612be857600080fd5b8135612bfb612bf682613dc1565b613d94565b91508082526020830160208301858383011115612c1757600080fd5b612c22838284613f0c565b50505092915050565b600082601f830112612c3c57600080fd5b8135612c4f612c4a82613ded565b613d94565b91508082526020830160208301858383011115612c6b57600080fd5b612c76838284613f0c565b50505092915050565b600060c08284031215612c9157600080fd5b612c9b60c0613d94565b90506000612cab84828501612d33565b6000830152506020612cbf84828501612d33565b6020830152506040612cd384828501612d33565b604083015250606082013567ffffffffffffffff811115612cf357600080fd5b612cff84828501612c2b565b6060830152506080612d1384828501612d33565b60808301525060a0612d2784828501612b6e565b60a08301525092915050565b600081359050612d4281613fbb565b92915050565b600060208284031215612d5a57600080fd5b6000612d6884828501612b59565b91505092915050565b60008060408385031215612d8457600080fd5b6000612d9285828601612b59565b9250506020612da385828601612b59565b9150509250929050565b600080600060608486031215612dc257600080fd5b6000612dd086828701612b59565b9350506020612de186828701612b59565b9250506040612df286828701612d33565b9150509250925092565b60008060008060808587031215612e1257600080fd5b6000612e2087828801612b59565b9450506020612e3187828801612b59565b9350506040612e4287828801612d33565b925050606085013567ffffffffffffffff811115612e5f57600080fd5b612e6b87828801612bd7565b91505092959194509250565b60008060408385031215612e8a57600080fd5b6000612e9885828601612b59565b9250506020612ea985828601612b6e565b9150509250929050565b60008060408385031215612ec657600080fd5b6000612ed485828601612b59565b925050602083013567ffffffffffffffff811115612ef157600080fd5b612efd85828601612c7f565b9150509250929050565b60008060408385031215612f1a57600080fd5b6000612f2885828601612b59565b9250506020612f3985828601612d33565b9150509250929050565b600060208284031215612f5557600080fd5b6000612f6384828501612b98565b91505092915050565b60008060408385031215612f7f57600080fd5b6000612f8d85828601612b83565b9250506020612f9e85828601612d33565b9150509250929050565b600060208284031215612fba57600080fd5b6000612fc884828501612bad565b91505092915050565b600060208284031215612fe357600080fd5b6000612ff184828501612bc2565b91505092915050565b60006020828403121561300c57600080fd5b600061301a84828501612d33565b91505092915050565b61302c81613e8e565b82525050565b61303b81613e7c565b82525050565b61304a81613ea0565b82525050565b600061305b82613e2e565b6130658185613e44565b9350613075818560208601613f1b565b61307e81613f4e565b840191505092915050565b600061309482613e2e565b61309e8185613e55565b93506130ae818560208601613f1b565b80840191505092915050565b60006130c582613e39565b6130cf8185613e60565b93506130df818560208601613f1b565b6130e881613f4e565b840191505092915050565b60006130fe82613e39565b6131088185613e71565b9350613118818560208601613f1b565b80840191505092915050565b6000815460018116600081146131415760018114613167576131ab565b607f60028304166131528187613e60565b955060ff1983168652602086019350506131ab565b600282046131758187613e60565b955061318085613e19565b60005b828110156131a257815481890152600182019150602081019050613183565b80880195505050505b505092915050565b6000815460018116600081146131d057600181146131f557613239565b607f60028304166131e18187613e71565b955060ff1983168652808601935050613239565b600282046132038187613e71565b955061320e85613e19565b60005b8281101561323057815481890152600182019150602081019050613211565b82880195505050505b505092915050565b600061324e602283613e60565b91507f456e756d657261626c655365743a20696e646578206f7574206f6620626f756e60008301527f64730000000000000000000000000000000000000000000000000000000000006020830152604082019050919050565b60006132b4603283613e60565b91507f4552433732313a207472616e7366657220746f206e6f6e20455243373231526560008301527f63656976657220696d706c656d656e74657200000000000000000000000000006020830152604082019050919050565b600061331a602683613e60565b91507f4f776e61626c653a206e6577206f776e657220697320746865207a65726f206160008301527f64647265737300000000000000000000000000000000000000000000000000006020830152604082019050919050565b6000613380601c83613e60565b91507f4552433732313a20746f6b656e20616c7265616479206d696e746564000000006000830152602082019050919050565b60006133c0602483613e60565b91507f4552433732313a207472616e7366657220746f20746865207a65726f2061646460008301527f72657373000000000000000000000000000000000000000000000000000000006020830152604082019050919050565b6000613426601983613e60565b91507f4552433732313a20617070726f766520746f2063616c6c6572000000000000006000830152602082019050919050565b6000613466602c83613e60565b91507f4552433732313a206f70657261746f7220717565727920666f72206e6f6e657860008301527f697374656e7420746f6b656e00000000000000000000000000000000000000006020830152604082019050919050565b60006134cc603883613e60565b91507f4552433732313a20617070726f76652063616c6c6572206973206e6f74206f7760008301527f6e6572206e6f7220617070726f76656420666f7220616c6c00000000000000006020830152604082019050919050565b6000613532602a83613e60565b91507f4552433732313a2062616c616e636520717565727920666f7220746865207a6560008301527f726f2061646472657373000000000000000000000000000000000000000000006020830152604082019050919050565b6000613598602283613e60565b91507f456e756d657261626c654d61703a20696e646578206f7574206f6620626f756e60008301527f64730000000000000000000000000000000000000000000000000000000000006020830152604082019050919050565b60006135fe602083613e60565b91507f4552433732313a206d696e7420746f20746865207a65726f20616464726573736000830152602082019050919050565b600061363e602c83613e60565b91507f4552433732313a20617070726f76656420717565727920666f72206e6f6e657860008301527f697374656e7420746f6b656e00000000000000000000000000000000000000006020830152604082019050919050565b60006136a4602083613e60565b91507f4f776e61626c653a2063616c6c6572206973206e6f7420746865206f776e65726000830152602082019050919050565b60006136e4602983613e60565b91507f4552433732313a207472616e73666572206f6620746f6b656e2074686174206960008301527f73206e6f74206f776e00000000000000000000000000000000000000000000006020830152604082019050919050565b600061374a602f83613e60565b91507f4552433732314d657461646174613a2055524920717565727920666f72206e6f60008301527f6e6578697374656e7420746f6b656e00000000000000000000000000000000006020830152604082019050919050565b60006137b0601983613e60565b91507f54686520706f6c696379206d75737420626520616374697665000000000000006000830152602082019050919050565b60006137f0602183613e60565b91507f4552433732313a20617070726f76616c20746f2063757272656e74206f776e6560008301527f72000000000000000000000000000000000000000000000000000000000000006020830152604082019050919050565b6000613856603183613e60565b91507f4552433732313a207472616e736665722063616c6c6572206973206e6f74206f60008301527f776e6572206e6f7220617070726f7665640000000000000000000000000000006020830152604082019050919050565b60006138bc601d83613e60565b91507f416464726573733a2063616c6c20746f206e6f6e2d636f6e74726163740000006000830152602082019050919050565b60006138fc600d83613e60565b91507f4163636573732064656e696564000000000000000000000000000000000000006000830152602082019050919050565b61393881613f02565b82525050565b600061394a8284613089565b915081905092915050565b600061396182856131b3565b915061396d82846130f3565b91508190509392505050565b600060208201905061398e6000830184613032565b92915050565b60006080820190506139a96000830187613023565b6139b66020830186613032565b6139c3604083018561392f565b81810360608301526139d58184613050565b905095945050505050565b60006020820190506139f56000830184613041565b92915050565b60006020820190508181036000830152613a1581846130ba565b905092915050565b60006020820190508181036000830152613a378184613124565b905092915050565b60006020820190508181036000830152613a5881613241565b9050919050565b60006020820190508181036000830152613a78816132a7565b9050919050565b60006020820190508181036000830152613a988161330d565b9050919050565b60006020820190508181036000830152613ab881613373565b9050919050565b60006020820190508181036000830152613ad8816133b3565b9050919050565b60006020820190508181036000830152613af881613419565b9050919050565b60006020820190508181036000830152613b1881613459565b9050919050565b60006020820190508181036000830152613b38816134bf565b9050919050565b60006020820190508181036000830152613b5881613525565b9050919050565b60006020820190508181036000830152613b788161358b565b9050919050565b60006020820190508181036000830152613b98816135f1565b9050919050565b60006020820190508181036000830152613bb881613631565b9050919050565b60006020820190508181036000830152613bd881613697565b9050919050565b60006020820190508181036000830152613bf8816136d7565b9050919050565b60006020820190508181036000830152613c188161373d565b9050919050565b60006020820190508181036000830152613c38816137a3565b9050919050565b60006020820190508181036000830152613c58816137e3565b9050919050565b60006020820190508181036000830152613c7881613849565b9050919050565b60006020820190508181036000830152613c98816138af565b9050919050565b60006020820190508181036000830152613cb8816138ef565b9050919050565b6000602082019050613cd4600083018461392f565b92915050565b6000604082019050613cef600083018561392f565b613cfc6020830184613032565b9392505050565b6000604082019050613d18600083018561392f565b613d256020830184613041565b9392505050565b600060c082019050613d41600083018961392f565b613d4e602083018861392f565b613d5b604083018761392f565b8181036060830152613d6d81866130ba565b9050613d7c608083018561392f565b613d8960a0830184613041565b979650505050505050565b6000604051905081810181811067ffffffffffffffff82111715613db757600080fd5b8060405250919050565b600067ffffffffffffffff821115613dd857600080fd5b601f19601f8301169050602081019050919050565b600067ffffffffffffffff821115613e0457600080fd5b601f19601f8301169050602081019050919050565b60008190508160005260206000209050919050565b600081519050919050565b600081519050919050565b600082825260208201905092915050565b600081905092915050565b600082825260208201905092915050565b600081905092915050565b6000613e8782613ee2565b9050919050565b6000613e9982613ee2565b9050919050565b60008115159050919050565b6000819050919050565b60007fffffffff0000000000000000000000000000000000000000000000000000000082169050919050565b600073ffffffffffffffffffffffffffffffffffffffff82169050919050565b6000819050919050565b82818337600083830152505050565b60005b83811015613f39578082015181840152602081019050613f1e565b83811115613f48576000848401525b50505050565b6000601f19601f8301169050919050565b613f6881613e7c565b8114613f7357600080fd5b50565b613f7f81613ea0565b8114613f8a57600080fd5b50565b613f9681613eac565b8114613fa157600080fd5b50565b613fad81613eb6565b8114613fb857600080fd5b50565b613fc481613f02565b8114613fcf57600080fd5b5056fe4552433732313a207472616e7366657220746f206e6f6e20455243373231526563656976657220696d706c656d656e7465724552433732313a206f776e657220717565727920666f72206e6f6e6578697374656e7420746f6b656ea2646970667358221220f38716e713fae031010e6601d9a446904fd566c0786b83e7be8ea52a49804fa664736f6c634300060c0033",
  "immutableReferences": {},
  "source": "// SPDX-License-Identifier: MIT\npragma solidity >=0.6.0 <0.7.0;\npragma experimental ABIEncoderV2;\n\nimport \"@openzeppelin/contracts/token/ERC721/ERC721.sol\";\nimport \"@openzeppelin/contracts/access/Ownable.sol\";\nimport \"@openzeppelin/contracts/utils/Counters.sol\";\nimport \"./interfaces/IPriceConsumer.sol\";\nimport \"./interfaces/IPriceProducer.sol\";\nimport \"./interfaces/ITreasury.sol\";\nimport \"./interfaces/IPolicy.sol\";\n\ncontract Policy is Ownable, ERC721, IPriceConsumer, IPolicy {\n    using Counters for Counters.Counter;\n\n    event PolicyClaimed(address indexed holder, uint256 policyId, bool succees);\n\n    Counters.Counter private _tokenIdTracker;\n\n    ITreasury private _treasury;\n    IPriceProducer private _priceFetcher;\n\n    mapping(uint256 => PolicyData) public policies;\n    mapping(bytes32 => uint256) private _pendingRequests;\n\n    constructor(ITreasury treasury, IPriceProducer priceFetcher)\n        public\n        ERC721(\"Policy\", \"REPLC\")\n    {\n        _treasury = treasury;\n        _priceFetcher = priceFetcher;\n    }\n\n    function mintPolicy(address to, PolicyData memory data)\n        public\n        override\n        onlyOwner\n        returns (uint256 tokenId)\n    {\n        // We can just use balanceOf to create the new tokenId because tokens\n        // can be burned (destroyed), so we need a separate counter.\n        tokenId = _tokenIdTracker.current();\n        _mint(to, tokenId);\n        _tokenIdTracker.increment();\n        data.policyId = tokenId;\n        policies[tokenId] = data;\n        return tokenId;\n    }\n\n    function claim(uint256 policyId) public {\n        PolicyData storage policy = policies[policyId];\n        require(policy.active, \"The policy must be active\");\n        if (policy.end < block.timestamp) {\n            _burnPolicy(policyId);\n        } else {\n            bytes32 requestId = _priceFetcher.requestPrice(policy.externalCode);\n            _pendingRequests[requestId] = policyId;\n        }\n    }\n\n    function onPriceResponse(bytes32 requestId, uint256 currentPrice)\n        public\n        override\n    {\n        require(msg.sender == address(_priceFetcher), \"Access denied\");\n        uint256 policyId = _pendingRequests[requestId];\n        PolicyData storage policy = policies[policyId];\n        address holder = ownerOf(policyId);\n        if (policy.active && currentPrice < policy.strikePrice) {\n            _treasury.payoutEarmarked(policy.coverAmount, holder);\n            _burnPolicy(policyId);\n            emit PolicyClaimed(holder, policyId, true);\n        } else {\n            emit PolicyClaimed(holder, policyId, false);\n        }\n    }\n\n    function burnExpiredPolicy(uint256 policyId) external {\n        PolicyData storage policy = policies[policyId];\n        _treasury.releaseFunds(policy.coverAmount);\n        _burnPolicy(policyId);\n    }\n\n    function _burnPolicy(uint256 policyId) private {\n        _burn(policyId);\n        delete policies[policyId];\n    }\n}\n",
  "sourcePath": "/Policy.sol",
  "compiler": {
    "name": "solc",
    "version": "0.6.12+commit.27d51765.Emscripten.clang"
  },
  "schemaVersion": "3.2.5",
  "updatedAt": "2020-09-27T15:52:52.650Z",
  "networkType": "ethereum",
  "devdoc": {
    "kind": "dev",
    "methods": {
      "approve(address,uint256)": {
        "details": "See {IERC721-approve}."
      },
      "balanceOf(address)": {
        "details": "See {IERC721-balanceOf}."
      },
      "baseURI()": {
        "details": "Returns the base URI set via {_setBaseURI}. This will be automatically added as a prefix in {tokenURI} to each token's URI, or to the token ID if no specific URI is set for that token ID."
      },
      "getApproved(uint256)": {
        "details": "See {IERC721-getApproved}."
      },
      "isApprovedForAll(address,address)": {
        "details": "See {IERC721-isApprovedForAll}."
      },
      "name()": {
        "details": "See {IERC721Metadata-name}."
      },
      "owner()": {
        "details": "Returns the address of the current owner."
      },
      "ownerOf(uint256)": {
        "details": "See {IERC721-ownerOf}."
      },
      "renounceOwnership()": {
        "details": "Leaves the contract without owner. It will not be possible to call `onlyOwner` functions anymore. Can only be called by the current owner. NOTE: Renouncing ownership will leave the contract without an owner, thereby removing any functionality that is only available to the owner."
      },
      "safeTransferFrom(address,address,uint256)": {
        "details": "See {IERC721-safeTransferFrom}."
      },
      "safeTransferFrom(address,address,uint256,bytes)": {
        "details": "See {IERC721-safeTransferFrom}."
      },
      "setApprovalForAll(address,bool)": {
        "details": "See {IERC721-setApprovalForAll}."
      },
      "supportsInterface(bytes4)": {
        "details": "See {IERC165-supportsInterface}. Time complexity O(1), guaranteed to always use less than 30 000 gas."
      },
      "symbol()": {
        "details": "See {IERC721Metadata-symbol}."
      },
      "tokenByIndex(uint256)": {
        "details": "See {IERC721Enumerable-tokenByIndex}."
      },
      "tokenOfOwnerByIndex(address,uint256)": {
        "details": "See {IERC721Enumerable-tokenOfOwnerByIndex}."
      },
      "tokenURI(uint256)": {
        "details": "See {IERC721Metadata-tokenURI}."
      },
      "totalSupply()": {
        "details": "See {IERC721Enumerable-totalSupply}."
      },
      "transferFrom(address,address,uint256)": {
        "details": "See {IERC721-transferFrom}."
      },
      "transferOwnership(address)": {
        "details": "Transfers ownership of the contract to a new account (`newOwner`). Can only be called by the current owner."
      }
    },
    "version": 1
  },
  "userdoc": {
    "kind": "user",
    "methods": {},
    "version": 1
  }
}