{
  "contractName": "PriceFetcher",
  "abi": [
    {
      "inputs": [
        {
          "internalType": "address",
          "name": "link",
          "type": "address"
        },
        {
          "internalType": "address",
          "name": "oracle",
          "type": "address"
        },
        {
          "internalType": "bytes32",
          "name": "jobId",
          "type": "bytes32"
        },
        {
          "internalType": "uint256",
          "name": "fee",
          "type": "uint256"
        },
        {
          "internalType": "contract IDateHelper",
          "name": "dateHelper",
          "type": "address"
        }
      ],
      "stateMutability": "nonpayable",
      "type": "constructor"
    },
    {
      "anonymous": false,
      "inputs": [
        {
          "indexed": true,
          "internalType": "bytes32",
          "name": "id",
          "type": "bytes32"
        }
      ],
      "name": "ChainlinkCancelled",
      "type": "event"
    },
    {
      "anonymous": false,
      "inputs": [
        {
          "indexed": true,
          "internalType": "bytes32",
          "name": "id",
          "type": "bytes32"
        }
      ],
      "name": "ChainlinkFulfilled",
      "type": "event"
    },
    {
      "anonymous": false,
      "inputs": [
        {
          "indexed": true,
          "internalType": "bytes32",
          "name": "id",
          "type": "bytes32"
        }
      ],
      "name": "ChainlinkRequested",
      "type": "event"
    },
    {
      "anonymous": false,
      "inputs": [
        {
          "indexed": true,
          "internalType": "bytes32",
          "name": "role",
          "type": "bytes32"
        },
        {
          "indexed": true,
          "internalType": "bytes32",
          "name": "previousAdminRole",
          "type": "bytes32"
        },
        {
          "indexed": true,
          "internalType": "bytes32",
          "name": "newAdminRole",
          "type": "bytes32"
        }
      ],
      "name": "RoleAdminChanged",
      "type": "event"
    },
    {
      "anonymous": false,
      "inputs": [
        {
          "indexed": true,
          "internalType": "bytes32",
          "name": "role",
          "type": "bytes32"
        },
        {
          "indexed": true,
          "internalType": "address",
          "name": "account",
          "type": "address"
        },
        {
          "indexed": true,
          "internalType": "address",
          "name": "sender",
          "type": "address"
        }
      ],
      "name": "RoleGranted",
      "type": "event"
    },
    {
      "anonymous": false,
      "inputs": [
        {
          "indexed": true,
          "internalType": "bytes32",
          "name": "role",
          "type": "bytes32"
        },
        {
          "indexed": true,
          "internalType": "address",
          "name": "account",
          "type": "address"
        },
        {
          "indexed": true,
          "internalType": "address",
          "name": "sender",
          "type": "address"
        }
      ],
      "name": "RoleRevoked",
      "type": "event"
    },
    {
      "inputs": [],
      "name": "DEFAULT_ADMIN_ROLE",
      "outputs": [
        {
          "internalType": "bytes32",
          "name": "",
          "type": "bytes32"
        }
      ],
      "stateMutability": "view",
      "type": "function",
      "constant": true
    },
    {
      "inputs": [],
      "name": "USER_ROLE",
      "outputs": [
        {
          "internalType": "bytes32",
          "name": "",
          "type": "bytes32"
        }
      ],
      "stateMutability": "view",
      "type": "function",
      "constant": true
    },
    {
      "inputs": [
        {
          "internalType": "bytes32",
          "name": "role",
          "type": "bytes32"
        }
      ],
      "name": "getRoleAdmin",
      "outputs": [
        {
          "internalType": "bytes32",
          "name": "",
          "type": "bytes32"
        }
      ],
      "stateMutability": "view",
      "type": "function",
      "constant": true
    },
    {
      "inputs": [
        {
          "internalType": "bytes32",
          "name": "role",
          "type": "bytes32"
        },
        {
          "internalType": "uint256",
          "name": "index",
          "type": "uint256"
        }
      ],
      "name": "getRoleMember",
      "outputs": [
        {
          "internalType": "address",
          "name": "",
          "type": "address"
        }
      ],
      "stateMutability": "view",
      "type": "function",
      "constant": true
    },
    {
      "inputs": [
        {
          "internalType": "bytes32",
          "name": "role",
          "type": "bytes32"
        }
      ],
      "name": "getRoleMemberCount",
      "outputs": [
        {
          "internalType": "uint256",
          "name": "",
          "type": "uint256"
        }
      ],
      "stateMutability": "view",
      "type": "function",
      "constant": true
    },
    {
      "inputs": [
        {
          "internalType": "bytes32",
          "name": "role",
          "type": "bytes32"
        },
        {
          "internalType": "address",
          "name": "account",
          "type": "address"
        }
      ],
      "name": "grantRole",
      "outputs": [],
      "stateMutability": "nonpayable",
      "type": "function"
    },
    {
      "inputs": [
        {
          "internalType": "bytes32",
          "name": "role",
          "type": "bytes32"
        },
        {
          "internalType": "address",
          "name": "account",
          "type": "address"
        }
      ],
      "name": "hasRole",
      "outputs": [
        {
          "internalType": "bool",
          "name": "",
          "type": "bool"
        }
      ],
      "stateMutability": "view",
      "type": "function",
      "constant": true
    },
    {
      "inputs": [
        {
          "internalType": "bytes32",
          "name": "role",
          "type": "bytes32"
        },
        {
          "internalType": "address",
          "name": "account",
          "type": "address"
        }
      ],
      "name": "renounceRole",
      "outputs": [],
      "stateMutability": "nonpayable",
      "type": "function"
    },
    {
      "inputs": [
        {
          "internalType": "bytes32",
          "name": "role",
          "type": "bytes32"
        },
        {
          "internalType": "address",
          "name": "account",
          "type": "address"
        }
      ],
      "name": "revokeRole",
      "outputs": [],
      "stateMutability": "nonpayable",
      "type": "function"
    },
    {
      "inputs": [
        {
          "internalType": "string",
          "name": "location",
          "type": "string"
        }
      ],
      "name": "requestPrice",
      "outputs": [
        {
          "internalType": "bytes32",
          "name": "",
          "type": "bytes32"
        }
      ],
      "stateMutability": "nonpayable",
      "type": "function"
    },
    {
      "inputs": [
        {
          "internalType": "bytes32",
          "name": "requestId",
          "type": "bytes32"
        },
        {
          "internalType": "uint256",
          "name": "currentPrice",
          "type": "uint256"
        }
      ],
      "name": "onPriceResponse",
      "outputs": [],
      "stateMutability": "nonpayable",
      "type": "function"
    },
    {
      "inputs": [
        {
          "internalType": "address",
          "name": "newUser",
          "type": "address"
        }
      ],
      "name": "addUser",
      "outputs": [],
      "stateMutability": "nonpayable",
      "type": "function"
    },
    {
      "inputs": [
        {
          "internalType": "address",
          "name": "user",
          "type": "address"
        }
      ],
      "name": "removeUser",
      "outputs": [],
      "stateMutability": "nonpayable",
      "type": "function"
    }
  ],
  "bytecode": "0x608060405260016005553480156200001657600080fd5b506040516200275d3803806200275d83398181016040528101906200003c919062000463565b620000606000801b620000546200015960201b60201c565b6200016160201b60201c565b600073ffffffffffffffffffffffffffffffffffffffff168573ffffffffffffffffffffffffffffffffffffffff161415620000ac57620000a66200017760201b60201c565b620000be565b620000bd856200021f60201b60201c565b5b83600760006101000a81548173ffffffffffffffffffffffffffffffffffffffff021916908373ffffffffffffffffffffffffffffffffffffffff1602179055508260088190555080600b60006101000a81548173ffffffffffffffffffffffffffffffffffffffff021916908373ffffffffffffffffffffffffffffffffffffffff160217905550816009819055505050505050620005a9565b600033905090565b6200017382826200026360201b60201c565b5050565b6200021d73c89bd4e1632d3a43cb03aaad5262cbe4038bc57173ffffffffffffffffffffffffffffffffffffffff166338cc48316040518163ffffffff1660e01b815260040160206040518083038186803b158015620001d657600080fd5b505afa158015620001eb573d6000803e3d6000fd5b505050506040513d601f19601f8201168201806040525081019062000211919062000437565b6200021f60201b60201c565b565b80600360006101000a81548173ffffffffffffffffffffffffffffffffffffffff021916908373ffffffffffffffffffffffffffffffffffffffff16021790555050565b62000291816000808581526020019081526020016000206000016200030660201b62000a421790919060201c565b156200030257620002a76200015960201b60201c565b73ffffffffffffffffffffffffffffffffffffffff168173ffffffffffffffffffffffffffffffffffffffff16837f2f8788117e7eff1d82e926ec794901d17c78024a50270940304540a733656f0d60405160405180910390a45b5050565b600062000336836000018373ffffffffffffffffffffffffffffffffffffffff1660001b6200033e60201b60201c565b905092915050565b6000620003528383620003b860201b60201c565b620003ad578260000182908060018154018082558091505060019003906000526020600020016000909190919091505582600001805490508360010160008481526020019081526020016000208190555060019050620003b2565b600090505b92915050565b600080836001016000848152602001908152602001600020541415905092915050565b600081519050620003ec8162000541565b92915050565b60008151905062000403816200055b565b92915050565b6000815190506200041a8162000575565b92915050565b60008151905062000431816200058f565b92915050565b6000602082840312156200044a57600080fd5b60006200045a84828501620003db565b91505092915050565b600080600080600060a086880312156200047c57600080fd5b60006200048c88828901620003db565b95505060206200049f88828901620003db565b9450506040620004b288828901620003f2565b9350506060620004c58882890162000420565b9250506080620004d88882890162000409565b9150509295509295909350565b6000620004f28262000517565b9050919050565b6000819050919050565b60006200051082620004e5565b9050919050565b600073ffffffffffffffffffffffffffffffffffffffff82169050919050565b6000819050919050565b6200054c81620004e5565b81146200055857600080fd5b50565b6200056681620004f9565b81146200057257600080fd5b50565b620005808162000503565b81146200058c57600080fd5b50565b6200059a8162000537565b8114620005a657600080fd5b50565b6121a480620005b96000396000f3fe608060405234801561001057600080fd5b50600436106100cf5760003560e01c806391d148541161008c578063c1c1f85a11610066578063c1c1f85a14610210578063ca15c8731461022c578063d4fe6bd01461025c578063d547741f1461028c576100cf565b806391d14854146101a657806398575188146101d6578063a217fddf146101f2576100cf565b806313119161146100d4578063248a9ca3146100f25780632f2ff15d1461012257806336568abe1461013e578063421b2d8b1461015a5780639010d07c14610176575b600080fd5b6100dc6102a8565b6040516100e99190611dd5565b60405180910390f35b61010c6004803603810190610107919061174c565b6102cc565b6040516101199190611dd5565b60405180910390f35b61013c60048036038101906101379190611775565b6102eb565b005b61015860048036038101906101539190611775565b61035e565b005b610174600480360381019061016f91906116fa565b6103e1565b005b610190600480360381019061018b91906117b1565b61040e565b60405161019d9190611cdc565b60405180910390f35b6101c060048036038101906101bb9190611775565b61043f565b6040516101cd9190611dba565b60405180910390f35b6101f060048036038101906101eb91906116fa565b610470565b005b6101fa61049d565b6040516102079190611dd5565b60405180910390f35b61022a600480360381019061022591906117b1565b6104a4565b005b6102466004803603810190610241919061174c565b610684565b6040516102539190611ef9565b60405180910390f35b610276600480360381019061027191906117ed565b6106aa565b6040516102839190611dd5565b60405180910390f35b6102a660048036038101906102a19190611775565b6109cf565b005b7f14823911f2da1b49f045a0929a60b8c1f2a7fc8c06c7284ca3e8ab4e193a08c881565b6000806000838152602001908152602001600020600201549050919050565b6103116000808481526020019081526020016000206002015461030c610a72565b61043f565b610350576040517f08c379a000000000000000000000000000000000000000000000000000000000815260040161034790611e39565b60405180910390fd5b61035a8282610a7a565b5050565b610366610a72565b73ffffffffffffffffffffffffffffffffffffffff168173ffffffffffffffffffffffffffffffffffffffff16146103d3576040517f08c379a00000000000000000000000000000000000000000000000000000000081526004016103ca90611ed9565b60405180910390fd5b6103dd8282610b0d565b5050565b61040b7f14823911f2da1b49f045a0929a60b8c1f2a7fc8c06c7284ca3e8ab4e193a08c8826102eb565b50565b600061043782600080868152602001908152602001600020600001610ba090919063ffffffff16565b905092915050565b600061046882600080868152602001908152602001600020600001610bba90919063ffffffff16565b905092915050565b61049a7f14823911f2da1b49f045a0929a60b8c1f2a7fc8c06c7284ca3e8ab4e193a08c8826109cf565b50565b6000801b81565b816006600082815260200190815260200160002060009054906101000a900473ffffffffffffffffffffffffffffffffffffffff1673ffffffffffffffffffffffffffffffffffffffff163373ffffffffffffffffffffffffffffffffffffffff1614610546576040517f08c379a000000000000000000000000000000000000000000000000000000000815260040161053d90611eb9565b60405180910390fd5b6006600082815260200190815260200160002060006101000a81549073ffffffffffffffffffffffffffffffffffffffff0219169055807f7cc135e0cebb02c3480ae5d74d377283180a2601f8f644edf7987b009316c63a60405160405180910390a2600a600084815260200190815260200160002060009054906101000a900473ffffffffffffffffffffffffffffffffffffffff1673ffffffffffffffffffffffffffffffffffffffff1663c1c1f85a84846040518363ffffffff1660e01b8152600401610617929190611df0565b600060405180830381600087803b15801561063157600080fd5b505af1158015610645573d6000803e3d6000fd5b50505050600a600084815260200190815260200160002060006101000a81549073ffffffffffffffffffffffffffffffffffffffff0219169055505050565b60006106a3600080848152602001908152602001600020600001610bea565b9050919050565b60006106dd7f14823911f2da1b49f045a0929a60b8c1f2a7fc8c06c7284ca3e8ab4e193a08c86106d8610a72565b61043f565b61071c576040517f08c379a000000000000000000000000000000000000000000000000000000000815260040161071390611e79565b60405180910390fd5b610724611577565b6107386008543063c1c1f85a60e01b610bff565b90506060600b60009054906101000a900473ffffffffffffffffffffffffffffffffffffffff1673ffffffffffffffffffffffffffffffffffffffff166320884fc66276a70042036040518263ffffffff1660e01b815260040161079c9190611ef9565b60006040518083038186803b1580156107b457600080fd5b505afa1580156107c8573d6000803e3d6000fd5b505050506040513d6000823e3d601f19601f820116820180604052508101906107f1919061182e565b90506108556040518060400160405280600381526020017f676574000000000000000000000000000000000000000000000000000000000081525060405180606001604052806032815260200161213d6032913984610c309092919063ffffffff16565b6108c06040518060400160405280600781526020017f657874506174680000000000000000000000000000000000000000000000000081525085836040516020016108a1929190611ca2565b60405160208183030381529060405284610c309092919063ffffffff16565b61093f6040518060400160405280600481526020017f70617468000000000000000000000000000000000000000000000000000000008152506040518060400160405280602081526020017f726573756c742e7072696d617279546f7069632e61766572616765507269636581525084610c309092919063ffffffff16565b6000610970600760009054906101000a900473ffffffffffffffffffffffffffffffffffffffff1684600954610c63565b905033600a600083815260200190815260200160002060006101000a81548173ffffffffffffffffffffffffffffffffffffffff021916908373ffffffffffffffffffffffffffffffffffffffff160217905550809350505050919050565b6109f5600080848152602001908152602001600020600201546109f0610a72565b61043f565b610a34576040517f08c379a0000000000000000000000000000000000000000000000000000000008152600401610a2b90611e99565b60405180910390fd5b610a3e8282610b0d565b5050565b6000610a6a836000018373ffffffffffffffffffffffffffffffffffffffff1660001b610e2d565b905092915050565b600033905090565b610aa181600080858152602001908152602001600020600001610a4290919063ffffffff16565b15610b0957610aae610a72565b73ffffffffffffffffffffffffffffffffffffffff168173ffffffffffffffffffffffffffffffffffffffff16837f2f8788117e7eff1d82e926ec794901d17c78024a50270940304540a733656f0d60405160405180910390a45b5050565b610b3481600080858152602001908152602001600020600001610e9d90919063ffffffff16565b15610b9c57610b41610a72565b73ffffffffffffffffffffffffffffffffffffffff168173ffffffffffffffffffffffffffffffffffffffff16837ff6391f5c32d9c69d2a47ea670b442974b53935d1edc7fd64eb21e047a839171b60405160405180910390a45b5050565b6000610baf8360000183610ecd565b60001c905092915050565b6000610be2836000018373ffffffffffffffffffffffffffffffffffffffff1660001b610f3a565b905092915050565b6000610bf882600001610f5d565b9050919050565b610c07611577565b610c0f611577565b610c2685858584610f6e909392919063ffffffff16565b9150509392505050565b610c4782846080015161101e90919063ffffffff16565b610c5e81846080015161101e90919063ffffffff16565b505050565b600030600554604051602001610c7a929190611c76565b604051602081830303815290604052805190602001209050600554836060018181525050836006600083815260200190815260200160002060006101000a81548173ffffffffffffffffffffffffffffffffffffffff021916908373ffffffffffffffffffffffffffffffffffffffff160217905550807fb5e6e01e79f91267dc17b4e6314d5d4d03593d2ceee0fbb452b750bd70ea5af960405160405180910390a2600360009054906101000a900473ffffffffffffffffffffffffffffffffffffffff1673ffffffffffffffffffffffffffffffffffffffff16634000aea08584610d6687611043565b6040518463ffffffff1660e01b8152600401610d8493929190611d7c565b602060405180830381600087803b158015610d9e57600080fd5b505af1158015610db2573d6000803e3d6000fd5b505050506040513d601f19601f82011682018060405250810190610dd69190611723565b610e15576040517f08c379a0000000000000000000000000000000000000000000000000000000008152600401610e0c90611e59565b60405180910390fd5b60016005600082825401925050819055509392505050565b6000610e398383610f3a565b610e92578260000182908060018154018082558091505060019003906000526020600020016000909190919091505582600001805490508360010160008481526020019081526020016000208190555060019050610e97565b600090505b92915050565b6000610ec5836000018373ffffffffffffffffffffffffffffffffffffffff1660001b6110ea565b905092915050565b600081836000018054905011610f18576040517f08c379a0000000000000000000000000000000000000000000000000000000008152600401610f0f90611e19565b60405180910390fd5b826000018281548110610f2757fe5b9060005260206000200154905092915050565b600080836001016000848152602001908152602001600020541415905092915050565b600081600001805490509050919050565b610f76611577565b610f8685608001516101006111d2565b508385600001818152505082856020019073ffffffffffffffffffffffffffffffffffffffff16908173ffffffffffffffffffffffffffffffffffffffff16815250508185604001907bffffffffffffffffffffffffffffffffffffffffffffffffffffffff191690817bffffffffffffffffffffffffffffffffffffffffffffffffffffffff191681525050849050949350505050565b61102b8260038351611226565b61103e818361136b90919063ffffffff16565b505050565b6060634042994660e01b60008084600001518560200151866040015187606001516001896080015160000151604051602401611086989796959493929190611cf7565b604051602081830303815290604052907bffffffffffffffffffffffffffffffffffffffffffffffffffffffff19166020820180517bffffffffffffffffffffffffffffffffffffffffffffffffffffffff83818316178352505050509050919050565b600080836001016000848152602001908152602001600020549050600081146111c6576000600182039050600060018660000180549050039050600086600001828154811061113557fe5b906000526020600020015490508087600001848154811061115257fe5b906000526020600020018190555060018301876001016000838152602001908152602001600020819055508660000180548061118a57fe5b600190038181906000526020600020016000905590558660010160008781526020019081526020016000206000905560019450505050506111cc565b60009150505b92915050565b6111da6115e4565b6000602083816111e657fe5b06146111ff57602082816111f657fe5b06602003820191505b81836020018181525050604051808452600081528281016020016040525082905092915050565b601781116112535761124d8160058460ff16901b60ff16178461138d90919063ffffffff16565b50611366565b60ff811161129557611278601860058460ff16901b178461138d90919063ffffffff16565b5061128f816001856113ad9092919063ffffffff16565b50611365565b61ffff81116112d8576112bb601960058460ff16901b178461138d90919063ffffffff16565b506112d2816002856113ad9092919063ffffffff16565b50611364565b63ffffffff811161131d57611300601a60058460ff16901b178461138d90919063ffffffff16565b50611317816004856113ad9092919063ffffffff16565b50611363565b67ffffffffffffffff811161136257611349601b60058460ff16901b178461138d90919063ffffffff16565b50611360816008856113ad9092919063ffffffff16565b505b5b5b5b5b505050565b6113736115e4565b611385838460000151518485516113cf565b905092915050565b6113956115e4565b6113a58384600001515184611488565b905092915050565b6113b56115e4565b6113c68485600001515185856114d6565b90509392505050565b6113d76115e4565b82518211156113e557600080fd5b846020015182850111156114105761140f8560026114098860200151888701611537565b02611553565b5b60008086518051876020830101935080888701111561142f5787860182525b60208701925050505b6020841061145b5780518252602082019150602081019050602084039350611438565b60006001856020036101000a03905080198251168184511681811785525050879350505050949350505050565b6114906115e4565b836020015183106114ad576114ac846002866020015102611553565b5b83518051602085830101848153818614156114c9576001820183525b5050508390509392505050565b6114de6115e4565b846020015184830111156114fc576114fb85600286850102611553565b5b60006001836101000a03905085518386820101858319825116178152815185880111156115295784870182525b505085915050949350505050565b6000818311156115495782905061154d565b8190505b92915050565b60608260000151905061156683836111d2565b50611571838261136b565b50505050565b6040518060a0016040528060008019168152602001600073ffffffffffffffffffffffffffffffffffffffff16815260200160007bffffffffffffffffffffffffffffffffffffffffffffffffffffffff19168152602001600081526020016115de6115e4565b81525090565b604051806040016040528060608152602001600081525090565b60008135905061160d816120e0565b92915050565b600081519050611622816120f7565b92915050565b6000813590506116378161210e565b92915050565b600082601f83011261164e57600080fd5b813561166161165c82611f41565b611f14565b9150808252602083016020830185838301111561167d57600080fd5b611688838284612052565b50505092915050565b600082601f8301126116a257600080fd5b81516116b56116b082611f41565b611f14565b915080825260208301602083018583830111156116d157600080fd5b6116dc838284612061565b50505092915050565b6000813590506116f481612125565b92915050565b60006020828403121561170c57600080fd5b600061171a848285016115fe565b91505092915050565b60006020828403121561173557600080fd5b600061174384828501611613565b91505092915050565b60006020828403121561175e57600080fd5b600061176c84828501611628565b91505092915050565b6000806040838503121561178857600080fd5b600061179685828601611628565b92505060206117a7858286016115fe565b9150509250929050565b600080604083850312156117c457600080fd5b60006117d285828601611628565b92505060206117e3858286016116e5565b9150509250929050565b6000602082840312156117ff57600080fd5b600082013567ffffffffffffffff81111561181957600080fd5b6118258482850161163d565b91505092915050565b60006020828403121561184057600080fd5b600082015167ffffffffffffffff81111561185a57600080fd5b61186684828501611691565b91505092915050565b61187881611fb0565b82525050565b61188781611fc2565b82525050565b61189681611fce565b82525050565b6118a581611fd8565b82525050565b60006118b682611f6d565b6118c08185611f83565b93506118d0818560208601612061565b6118d9816120c2565b840191505092915050565b6118f56118f08261202e565b612094565b82525050565b600061190682611f78565b6119108185611fa5565b9350611920818560208601612061565b80840191505092915050565b6000611939602283611f94565b91507f456e756d657261626c655365743a20696e646578206f7574206f6620626f756e60008301527f64730000000000000000000000000000000000000000000000000000000000006020830152604082019050919050565b600061199f602f83611f94565b91507f416363657373436f6e74726f6c3a2073656e646572206d75737420626520616e60008301527f2061646d696e20746f206772616e7400000000000000000000000000000000006020830152604082019050919050565b6000611a05602383611f94565b91507f756e61626c6520746f207472616e73666572416e6443616c6c20746f206f726160008301527f636c6500000000000000000000000000000000000000000000000000000000006020830152604082019050919050565b6000611a6b600d83611f94565b91507f4163636573732044656e696564000000000000000000000000000000000000006000830152602082019050919050565b6000611aab600783611fa5565b91507f2f6d6f6e74682f000000000000000000000000000000000000000000000000006000830152600782019050919050565b6000611aeb603083611f94565b91507f416363657373436f6e74726f6c3a2073656e646572206d75737420626520616e60008301527f2061646d696e20746f207265766f6b65000000000000000000000000000000006020830152604082019050919050565b6000611b51600583611fa5565b91507f2e6a736f6e0000000000000000000000000000000000000000000000000000006000830152600582019050919050565b6000611b91602883611f94565b91507f536f75726365206d75737420626520746865206f7261636c65206f662074686560008301527f20726571756573740000000000000000000000000000000000000000000000006020830152604082019050919050565b6000611bf7602f83611f94565b91507f416363657373436f6e74726f6c3a2063616e206f6e6c792072656e6f756e636560008301527f20726f6c657320666f722073656c6600000000000000000000000000000000006020830152604082019050919050565b611c5981612024565b82525050565b611c70611c6b82612024565b6120b8565b82525050565b6000611c8282856118e4565b601482019150611c928284611c5f565b6020820191508190509392505050565b6000611cae82856118fb565b9150611cb982611a9e565b9150611cc582846118fb565b9150611cd082611b44565b91508190509392505050565b6000602082019050611cf1600083018461186f565b92915050565b600061010082019050611d0d600083018b61186f565b611d1a602083018a611c50565b611d27604083018961188d565b611d34606083018861186f565b611d41608083018761189c565b611d4e60a0830186611c50565b611d5b60c0830185611c50565b81810360e0830152611d6d81846118ab565b90509998505050505050505050565b6000606082019050611d91600083018661186f565b611d9e6020830185611c50565b8181036040830152611db081846118ab565b9050949350505050565b6000602082019050611dcf600083018461187e565b92915050565b6000602082019050611dea600083018461188d565b92915050565b6000604082019050611e05600083018561188d565b611e126020830184611c50565b9392505050565b60006020820190508181036000830152611e328161192c565b9050919050565b60006020820190508181036000830152611e5281611992565b9050919050565b60006020820190508181036000830152611e72816119f8565b9050919050565b60006020820190508181036000830152611e9281611a5e565b9050919050565b60006020820190508181036000830152611eb281611ade565b9050919050565b60006020820190508181036000830152611ed281611b84565b9050919050565b60006020820190508181036000830152611ef281611bea565b9050919050565b6000602082019050611f0e6000830184611c50565b92915050565b6000604051905081810181811067ffffffffffffffff82111715611f3757600080fd5b8060405250919050565b600067ffffffffffffffff821115611f5857600080fd5b601f19601f8301169050602081019050919050565b600081519050919050565b600081519050919050565b600082825260208201905092915050565b600082825260208201905092915050565b600081905092915050565b6000611fbb82612004565b9050919050565b60008115159050919050565b6000819050919050565b60007fffffffff0000000000000000000000000000000000000000000000000000000082169050919050565b600073ffffffffffffffffffffffffffffffffffffffff82169050919050565b6000819050919050565b600061203982612040565b9050919050565b600061204b82612004565b9050919050565b82818337600083830152505050565b60005b8381101561207f578082015181840152602081019050612064565b8381111561208e576000848401525b50505050565b600061209f826120a6565b9050919050565b60006120b1826120d3565b9050919050565b6000819050919050565b6000601f19601f8301169050919050565b60008160601b9050919050565b6120e981611fb0565b81146120f457600080fd5b50565b61210081611fc2565b811461210b57600080fd5b50565b61211781611fce565b811461212257600080fd5b50565b61212e81612024565b811461213957600080fd5b5056fe68747470733a2f2f6c616e6472656769737472792e646174612e676f762e756b2f646174612f756b6870692f726567696f6ea2646970667358221220c8b67dc8147ab4c1ffbb342b4e330d83e7ac370c20b958999e24dea15b1f2a9a64736f6c634300060c0033",
  "immutableReferences": {},
  "source": "// SPDX-License-Identifier: MIT\npragma solidity >=0.6.0 <0.7.0;\npragma experimental ABIEncoderV2;\n\nimport \"@openzeppelin/contracts/access/AccessControl.sol\";\nimport \"@openzeppelin/contracts/utils/Counters.sol\";\nimport \"@chainlink/contracts/src/v0.6/ChainlinkClient.sol\";\nimport \"./interfaces/IDateHelper.sol\";\nimport \"./interfaces/IPriceConsumer.sol\";\nimport \"./interfaces/IPriceProducer.sol\";\n\ncontract PriceFetcher is AccessControl, ChainlinkClient, IPriceProducer {\n    bytes32 public constant USER_ROLE = keccak256(\"USER_ROLE\");\n\n    address private _oracle;\n    bytes32 private _jobId;\n    uint256 private _fee;\n    uint256 private constant _PRICES_TIME_OFFSET = 90 days;\n\n    mapping(bytes32 => IPriceConsumer) private _pendingRequestConsumers;\n\n    IDateHelper private _dateHelper;\n\n    constructor(\n        address link,\n        address oracle,\n        bytes32 jobId,\n        uint256 fee,\n        IDateHelper dateHelper\n    ) public {\n        _setupRole(DEFAULT_ADMIN_ROLE, _msgSender());\n\n        if (link == address(0)) {\n            setPublicChainlinkToken();\n        } else {\n            setChainlinkToken(link);\n        }\n\n        _oracle = oracle;\n        _jobId = jobId;\n        _dateHelper = dateHelper;\n        _fee = fee;\n    }\n\n    function requestPrice(string memory location)\n        public\n        override\n        returns (bytes32)\n    {\n        require(hasRole(USER_ROLE, _msgSender()), \"Access Denied\");\n\n        Chainlink.Request memory request = buildChainlinkRequest(\n            _jobId,\n            address(this),\n            this.onPriceResponse.selector\n        );\n        string memory yearMonth = _dateHelper.isoYearMonth(\n            block.timestamp - _PRICES_TIME_OFFSET\n        );\n        request.add(\n            \"get\",\n            \"https://landregistry.data.gov.uk/data/ukhpi/region\"\n        );\n        request.add(\n            \"extPath\",\n            string(abi.encodePacked(location, \"/month/\", yearMonth, \".json\"))\n        );\n\n        request.add(\"path\", \"result.primaryTopic.averagePrice\");\n\n        // Sends the request\n        bytes32 requestId = sendChainlinkRequestTo(_oracle, request, _fee);\n        _pendingRequestConsumers[requestId] = IPriceConsumer(msg.sender);\n        return requestId;\n    }\n\n    function onPriceResponse(bytes32 requestId, uint256 currentPrice)\n        public\n        recordChainlinkFulfillment(requestId)\n    {\n        _pendingRequestConsumers[requestId].onPriceResponse(\n            requestId,\n            currentPrice\n        );\n        delete _pendingRequestConsumers[requestId];\n    }\n\n    function addUser(address newUser) external {\n        grantRole(USER_ROLE, newUser);\n    }\n\n    function removeUser(address user) external {\n        revokeRole(USER_ROLE, user);\n    }\n}\n",
  "sourcePath": "/PriceFetcher.sol",
  "compiler": {
    "name": "solc",
    "version": "0.6.12+commit.27d51765.Emscripten.clang"
  },
  "schemaVersion": "3.2.5",
  "updatedAt": "2020-09-27T17:51:36.962Z",
  "networkType": "ethereum",
  "devdoc": {
    "kind": "dev",
    "methods": {
      "getRoleAdmin(bytes32)": {
        "details": "Returns the admin role that controls `role`. See {grantRole} and {revokeRole}. To change a role's admin, use {_setRoleAdmin}."
      },
      "getRoleMember(bytes32,uint256)": {
        "details": "Returns one of the accounts that have `role`. `index` must be a value between 0 and {getRoleMemberCount}, non-inclusive. Role bearers are not sorted in any particular way, and their ordering may change at any point. WARNING: When using {getRoleMember} and {getRoleMemberCount}, make sure you perform all queries on the same block. See the following https://forum.openzeppelin.com/t/iterating-over-elements-on-enumerableset-in-openzeppelin-contracts/2296[forum post] for more information."
      },
      "getRoleMemberCount(bytes32)": {
        "details": "Returns the number of accounts that have `role`. Can be used together with {getRoleMember} to enumerate all bearers of a role."
      },
      "grantRole(bytes32,address)": {
        "details": "Grants `role` to `account`. If `account` had not been already granted `role`, emits a {RoleGranted} event. Requirements: - the caller must have ``role``'s admin role."
      },
      "hasRole(bytes32,address)": {
        "details": "Returns `true` if `account` has been granted `role`."
      },
      "renounceRole(bytes32,address)": {
        "details": "Revokes `role` from the calling account. Roles are often managed via {grantRole} and {revokeRole}: this function's purpose is to provide a mechanism for accounts to lose their privileges if they are compromised (such as when a trusted device is misplaced). If the calling account had been granted `role`, emits a {RoleRevoked} event. Requirements: - the caller must be `account`."
      },
      "revokeRole(bytes32,address)": {
        "details": "Revokes `role` from `account`. If `account` had been granted `role`, emits a {RoleRevoked} event. Requirements: - the caller must have ``role``'s admin role."
      }
    },
    "version": 1
  },
  "userdoc": {
    "kind": "user",
    "methods": {},
    "version": 1
  }
}