{
  "contractName": "RDAI",
  "abi": [
    {
      "inputs": [
        {
          "internalType": "contract IERC20",
          "name": "dai",
          "type": "address"
        },
        {
          "internalType": "contract ITreasury",
          "name": "treasury",
          "type": "address"
        }
      ],
      "stateMutability": "nonpayable",
      "type": "constructor"
    },
    {
      "anonymous": false,
      "inputs": [
        {
          "indexed": true,
          "internalType": "address",
          "name": "owner",
          "type": "address"
        },
        {
          "indexed": true,
          "internalType": "address",
          "name": "spender",
          "type": "address"
        },
        {
          "indexed": false,
          "internalType": "uint256",
          "name": "value",
          "type": "uint256"
        }
      ],
      "name": "Approval",
      "type": "event"
    },
    {
      "anonymous": false,
      "inputs": [
        {
          "indexed": true,
          "internalType": "address",
          "name": "from",
          "type": "address"
        },
        {
          "indexed": true,
          "internalType": "address",
          "name": "to",
          "type": "address"
        },
        {
          "indexed": false,
          "internalType": "uint256",
          "name": "value",
          "type": "uint256"
        }
      ],
      "name": "Transfer",
      "type": "event"
    },
    {
      "inputs": [
        {
          "internalType": "address",
          "name": "owner",
          "type": "address"
        },
        {
          "internalType": "address",
          "name": "spender",
          "type": "address"
        }
      ],
      "name": "allowance",
      "outputs": [
        {
          "internalType": "uint256",
          "name": "",
          "type": "uint256"
        }
      ],
      "stateMutability": "view",
      "type": "function",
      "constant": true
    },
    {
      "inputs": [
        {
          "internalType": "address",
          "name": "spender",
          "type": "address"
        },
        {
          "internalType": "uint256",
          "name": "amount",
          "type": "uint256"
        }
      ],
      "name": "approve",
      "outputs": [
        {
          "internalType": "bool",
          "name": "",
          "type": "bool"
        }
      ],
      "stateMutability": "nonpayable",
      "type": "function"
    },
    {
      "inputs": [
        {
          "internalType": "address",
          "name": "account",
          "type": "address"
        }
      ],
      "name": "balanceOf",
      "outputs": [
        {
          "internalType": "uint256",
          "name": "",
          "type": "uint256"
        }
      ],
      "stateMutability": "view",
      "type": "function",
      "constant": true
    },
    {
      "inputs": [
        {
          "internalType": "uint256",
          "name": "amount",
          "type": "uint256"
        }
      ],
      "name": "burn",
      "outputs": [],
      "stateMutability": "nonpayable",
      "type": "function"
    },
    {
      "inputs": [
        {
          "internalType": "address",
          "name": "account",
          "type": "address"
        },
        {
          "internalType": "uint256",
          "name": "amount",
          "type": "uint256"
        }
      ],
      "name": "burnFrom",
      "outputs": [],
      "stateMutability": "nonpayable",
      "type": "function"
    },
    {
      "inputs": [],
      "name": "decimals",
      "outputs": [
        {
          "internalType": "uint8",
          "name": "",
          "type": "uint8"
        }
      ],
      "stateMutability": "view",
      "type": "function",
      "constant": true
    },
    {
      "inputs": [
        {
          "internalType": "address",
          "name": "spender",
          "type": "address"
        },
        {
          "internalType": "uint256",
          "name": "subtractedValue",
          "type": "uint256"
        }
      ],
      "name": "decreaseAllowance",
      "outputs": [
        {
          "internalType": "bool",
          "name": "",
          "type": "bool"
        }
      ],
      "stateMutability": "nonpayable",
      "type": "function"
    },
    {
      "inputs": [
        {
          "internalType": "address",
          "name": "spender",
          "type": "address"
        },
        {
          "internalType": "uint256",
          "name": "addedValue",
          "type": "uint256"
        }
      ],
      "name": "increaseAllowance",
      "outputs": [
        {
          "internalType": "bool",
          "name": "",
          "type": "bool"
        }
      ],
      "stateMutability": "nonpayable",
      "type": "function"
    },
    {
      "inputs": [],
      "name": "name",
      "outputs": [
        {
          "internalType": "string",
          "name": "",
          "type": "string"
        }
      ],
      "stateMutability": "view",
      "type": "function",
      "constant": true
    },
    {
      "inputs": [],
      "name": "pool",
      "outputs": [
        {
          "internalType": "uint256",
          "name": "",
          "type": "uint256"
        }
      ],
      "stateMutability": "view",
      "type": "function",
      "constant": true
    },
    {
      "inputs": [],
      "name": "symbol",
      "outputs": [
        {
          "internalType": "string",
          "name": "",
          "type": "string"
        }
      ],
      "stateMutability": "view",
      "type": "function",
      "constant": true
    },
    {
      "inputs": [],
      "name": "totalSupply",
      "outputs": [
        {
          "internalType": "uint256",
          "name": "",
          "type": "uint256"
        }
      ],
      "stateMutability": "view",
      "type": "function",
      "constant": true
    },
    {
      "inputs": [
        {
          "internalType": "address",
          "name": "recipient",
          "type": "address"
        },
        {
          "internalType": "uint256",
          "name": "amount",
          "type": "uint256"
        }
      ],
      "name": "transfer",
      "outputs": [
        {
          "internalType": "bool",
          "name": "",
          "type": "bool"
        }
      ],
      "stateMutability": "nonpayable",
      "type": "function"
    },
    {
      "inputs": [
        {
          "internalType": "address",
          "name": "sender",
          "type": "address"
        },
        {
          "internalType": "address",
          "name": "recipient",
          "type": "address"
        },
        {
          "internalType": "uint256",
          "name": "amount",
          "type": "uint256"
        }
      ],
      "name": "transferFrom",
      "outputs": [
        {
          "internalType": "bool",
          "name": "",
          "type": "bool"
        }
      ],
      "stateMutability": "nonpayable",
      "type": "function"
    },
    {
      "inputs": [
        {
          "internalType": "uint256",
          "name": "amount",
          "type": "uint256"
        }
      ],
      "name": "deposit",
      "outputs": [],
      "stateMutability": "nonpayable",
      "type": "function"
    },
    {
      "inputs": [
        {
          "internalType": "uint256",
          "name": "shares",
          "type": "uint256"
        }
      ],
      "name": "withdraw",
      "outputs": [],
      "stateMutability": "nonpayable",
      "type": "function"
    },
    {
      "inputs": [],
      "name": "getPricePerFullShare",
      "outputs": [
        {
          "internalType": "uint256",
          "name": "",
          "type": "uint256"
        }
      ],
      "stateMutability": "view",
      "type": "function",
      "constant": true
    }
  ],
  "bytecode": "0x60806040523480156200001157600080fd5b5060405162003248380380620032488339818101604052810190620000379190620006f1565b6040518060400160405280600e81526020017f5265616c204865646765204441490000000000000000000000000000000000008152506040518060400160405280600481526020017f72444149000000000000000000000000000000000000000000000000000000008152508160039080519060200190620000bb929190620005c3565b508060049080519060200190620000d4929190620005c3565b506012600560006101000a81548160ff021916908360ff160217905550505080600560016101000a81548173ffffffffffffffffffffffffffffffffffffffff021916908373ffffffffffffffffffffffffffffffffffffffff16021790555081600660006101000a81548173ffffffffffffffffffffffffffffffffffffffff021916908373ffffffffffffffffffffffffffffffffffffffff1602179055506200020b600560019054906101000a900473ffffffffffffffffffffffffffffffffffffffff167fffffffffffffffffffffffffffffffffffffffffffffffffffffffffffffffff600660009054906101000a900473ffffffffffffffffffffffffffffffffffffffff1673ffffffffffffffffffffffffffffffffffffffff166200021360201b62000d89179092919060201c565b505062000b5a565b6000811480620002b3575060008373ffffffffffffffffffffffffffffffffffffffff1663dd62ed3e30856040518363ffffffff1660e01b81526004016200025d92919062000923565b60206040518083038186803b1580156200027657600080fd5b505afa1580156200028b573d6000803e3d6000fd5b505050506040513d601f19601f82011682018060405250810190620002b1919062000732565b145b620002f5576040517f08c379a0000000000000000000000000000000000000000000000000000000008152600401620002ec90620009e5565b60405180910390fd5b620003808363095ea7b360e01b84846040516024016200031792919062000950565b604051602081830303815290604052907bffffffffffffffffffffffffffffffffffffffffffffffffffffffff19166020820180517bffffffffffffffffffffffffffffffffffffffffffffffffffffffff83818316178352505050506200038560201b60201c565b505050565b6060620003ee826040518060400160405280602081526020017f5361666545524332303a206c6f772d6c6576656c2063616c6c206661696c65648152508573ffffffffffffffffffffffffffffffffffffffff166200045960201b62000ee7179092919060201c565b9050600081511115620004545780806020019051810190620004119190620006c5565b62000453576040517f08c379a00000000000000000000000000000000000000000000000000000000081526004016200044a90620009c3565b60405180910390fd5b5b505050565b60606200047084846000856200047960201b60201c565b90509392505050565b60606200048c85620005b060201b60201c565b620004ce576040517f08c379a0000000000000000000000000000000000000000000000000000000008152600401620004c590620009a1565b60405180910390fd5b600060608673ffffffffffffffffffffffffffffffffffffffff168587604051620004fa91906200090a565b60006040518083038185875af1925050503d806000811462000539576040519150601f19603f3d011682016040523d82523d6000602084013e6200053e565b606091505b5091509150811562000555578092505050620005a8565b600081511115620005695780518082602001fd5b836040517f08c379a00000000000000000000000000000000000000000000000000000000081526004016200059f91906200097d565b60405180910390fd5b949350505050565b600080823b905060008111915050919050565b828054600181600116156101000203166002900490600052602060002090601f016020900481019282601f106200060657805160ff191683800117855562000637565b8280016001018555821562000637579182015b828111156200063657825182559160200191906001019062000619565b5b5090506200064691906200064a565b5090565b5b80821115620006655760008160009055506001016200064b565b5090565b6000815190506200067a8162000af2565b92915050565b600081519050620006918162000b0c565b92915050565b600081519050620006a88162000b26565b92915050565b600081519050620006bf8162000b40565b92915050565b600060208284031215620006d857600080fd5b6000620006e88482850162000669565b91505092915050565b600080604083850312156200070557600080fd5b6000620007158582860162000680565b9250506020620007288582860162000697565b9150509250929050565b6000602082840312156200074557600080fd5b60006200075584828501620006ae565b91505092915050565b620007698162000a39565b82525050565b60006200077c8262000a07565b62000788818562000a1d565b93506200079a81856020860162000aab565b80840191505092915050565b6000620007b38262000a12565b620007bf818562000a28565b9350620007d181856020860162000aab565b620007dc8162000ae1565b840191505092915050565b6000620007f6601d8362000a28565b91507f416464726573733a2063616c6c20746f206e6f6e2d636f6e74726163740000006000830152602082019050919050565b600062000838602a8362000a28565b91507f5361666545524332303a204552433230206f7065726174696f6e20646964206e60008301527f6f742073756363656564000000000000000000000000000000000000000000006020830152604082019050919050565b6000620008a060368362000a28565b91507f5361666545524332303a20617070726f76652066726f6d206e6f6e2d7a65726f60008301527f20746f206e6f6e2d7a65726f20616c6c6f77616e6365000000000000000000006020830152604082019050919050565b620009048162000aa1565b82525050565b60006200091882846200076f565b915081905092915050565b60006040820190506200093a60008301856200075e565b6200094960208301846200075e565b9392505050565b60006040820190506200096760008301856200075e565b620009766020830184620008f9565b9392505050565b60006020820190508181036000830152620009998184620007a6565b905092915050565b60006020820190508181036000830152620009bc81620007e7565b9050919050565b60006020820190508181036000830152620009de8162000829565b9050919050565b6000602082019050818103600083015262000a008162000891565b9050919050565b600081519050919050565b600081519050919050565b600081905092915050565b600082825260208201905092915050565b600062000a468262000a81565b9050919050565b60008115159050919050565b600062000a668262000a39565b9050919050565b600062000a7a8262000a39565b9050919050565b600073ffffffffffffffffffffffffffffffffffffffff82169050919050565b6000819050919050565b60005b8381101562000acb57808201518184015260208101905062000aae565b8381111562000adb576000848401525b50505050565b6000601f19601f8301169050919050565b62000afd8162000a4d565b811462000b0957600080fd5b50565b62000b178162000a59565b811462000b2357600080fd5b50565b62000b318162000a6d565b811462000b3d57600080fd5b50565b62000b4b8162000aa1565b811462000b5757600080fd5b50565b6126de8062000b6a6000396000f3fe608060405234801561001057600080fd5b506004361061010b5760003560e01c806342966c68116100a257806395d89b411161007157806395d89b41146102ba578063a457c2d7146102d8578063a9059cbb14610308578063b6b55f2514610338578063dd62ed3e146103545761010b565b806342966c681461023457806370a082311461025057806377c7b8fc1461028057806379cc67901461029e5761010b565b806323b872dd116100de57806323b872dd1461019a5780632e1a7d4d146101ca578063313ce567146101e657806339509351146102045761010b565b806306fdde0314610110578063095ea7b31461012e57806316f0115b1461015e57806318160ddd1461017c575b600080fd5b610118610384565b6040516101259190612268565b60405180910390f35b61014860048036038101906101439190611bc8565b610426565b604051610155919061224d565b60405180910390f35b610166610444565b604051610173919061244a565b60405180910390f35b61018461044a565b604051610191919061244a565b60405180910390f35b6101b460048036038101906101af9190611b79565b610454565b6040516101c1919061224d565b60405180910390f35b6101e460048036038101906101df9190611c2d565b61052d565b005b6101ee610733565b6040516101fb919061248e565b60405180910390f35b61021e60048036038101906102199190611bc8565b61074a565b60405161022b919061224d565b60405180910390f35b61024e60048036038101906102499190611c2d565b6107fd565b005b61026a60048036038101906102659190611b14565b610811565b604051610277919061244a565b60405180910390f35b610288610859565b604051610295919061244a565b60405180910390f35b6102b860048036038101906102b39190611bc8565b610938565b005b6102c261099a565b6040516102cf9190612268565b60405180910390f35b6102f260048036038101906102ed9190611bc8565b610a3c565b6040516102ff919061224d565b60405180910390f35b610322600480360381019061031d9190611bc8565b610b09565b60405161032f919061224d565b60405180910390f35b610352600480360381019061034d9190611c2d565b610b27565b005b61036e60048036038101906103699190611b3d565b610d02565b60405161037b919061244a565b60405180910390f35b606060038054600181600116156101000203166002900480601f01602080910402602001604051908101604052809291908181526020018280546001816001161561010002031660029004801561041c5780601f106103f15761010080835404028352916020019161041c565b820191906000526020600020905b8154815290600101906020018083116103ff57829003601f168201915b5050505050905090565b600061043a610433610eff565b8484610f07565b6001905092915050565b60075481565b6000600254905090565b60006104618484846110d2565b6105228461046d610eff565b61051d8560405180606001604052806028815260200161263860289139600160008b73ffffffffffffffffffffffffffffffffffffffff1673ffffffffffffffffffffffffffffffffffffffff16815260200190815260200160002060006104d3610eff565b73ffffffffffffffffffffffffffffffffffffffff1673ffffffffffffffffffffffffffffffffffffffff168152602001908152602001600020546113679092919063ffffffff16565b610f07565b600190509392505050565b60008111610570576040517f08c379a00000000000000000000000000000000000000000000000000000000081526004016105679061230a565b60405180910390fd5b600061057b33610811565b9050808211156105c0576040517f08c379a00000000000000000000000000000000000000000000000000000000081526004016105b7906122ea565b60405180910390fd5b6000600560019054906101000a900473ffffffffffffffffffffffffffffffffffffffff1673ffffffffffffffffffffffffffffffffffffffff1663ad7a672f6040518163ffffffff1660e01b815260040160206040518083038186803b15801561062a57600080fd5b505afa15801561063e573d6000803e3d6000fd5b505050506040513d601f19601f820116820180604052508101906106629190611c56565b9050600061069261067161044a565b61068486856113c290919063ffffffff16565b61143290919063ffffffff16565b905061069e338561147c565b600560019054906101000a900473ffffffffffffffffffffffffffffffffffffffff1673ffffffffffffffffffffffffffffffffffffffff1663be95e01a82336040518363ffffffff1660e01b81526004016106fb929190612465565b600060405180830381600087803b15801561071557600080fd5b505af1158015610729573d6000803e3d6000fd5b5050505050505050565b6000600560009054906101000a900460ff16905090565b60006107f3610757610eff565b846107ee8560016000610768610eff565b73ffffffffffffffffffffffffffffffffffffffff1673ffffffffffffffffffffffffffffffffffffffff16815260200190815260200160002060008973ffffffffffffffffffffffffffffffffffffffff1673ffffffffffffffffffffffffffffffffffffffff1681526020019081526020016000205461162a90919063ffffffff16565b610f07565b6001905092915050565b61080e610808610eff565b8261147c565b50565b60008060008373ffffffffffffffffffffffffffffffffffffffff1673ffffffffffffffffffffffffffffffffffffffff168152602001908152602001600020549050919050565b600080600560019054906101000a900473ffffffffffffffffffffffffffffffffffffffff1673ffffffffffffffffffffffffffffffffffffffff1663ad7a672f6040518163ffffffff1660e01b815260040160206040518083038186803b1580156108c457600080fd5b505afa1580156108d8573d6000803e3d6000fd5b505050506040513d601f19601f820116820180604052508101906108fc9190611c56565b905061093261090961044a565b610924670de0b6b3a7640000846113c290919063ffffffff16565b61143290919063ffffffff16565b91505090565b6000610977826040518060600160405280602481526020016126606024913961096886610963610eff565b610d02565b6113679092919063ffffffff16565b905061098b83610985610eff565b83610f07565b610995838361147c565b505050565b606060048054600181600116156101000203166002900480601f016020809104026020016040519081016040528092919081815260200182805460018160011615610100020316600290048015610a325780601f10610a0757610100808354040283529160200191610a32565b820191906000526020600020905b815481529060010190602001808311610a1557829003601f168201915b5050505050905090565b6000610aff610a49610eff565b84610afa856040518060600160405280602581526020016126846025913960016000610a73610eff565b73ffffffffffffffffffffffffffffffffffffffff1673ffffffffffffffffffffffffffffffffffffffff16815260200190815260200160002060008a73ffffffffffffffffffffffffffffffffffffffff1673ffffffffffffffffffffffffffffffffffffffff168152602001908152602001600020546113679092919063ffffffff16565b610f07565b6001905092915050565b6000610b1d610b16610eff565b84846110d2565b6001905092915050565b60008111610b6a576040517f08c379a0000000000000000000000000000000000000000000000000000000008152600401610b619061234a565b60405180910390fd5b6000600560019054906101000a900473ffffffffffffffffffffffffffffffffffffffff1673ffffffffffffffffffffffffffffffffffffffff1663ad7a672f6040518163ffffffff1660e01b815260040160206040518083038186803b158015610bd457600080fd5b505afa158015610be8573d6000803e3d6000fd5b505050506040513d601f19601f82011682018060405250810190610c0c9190611c56565b9050600560019054906101000a900473ffffffffffffffffffffffffffffffffffffffff1673ffffffffffffffffffffffffffffffffffffffff16636e553f6583336040518363ffffffff1660e01b8152600401610c6b929190612465565b600060405180830381600087803b158015610c8557600080fd5b505af1158015610c99573d6000803e3d6000fd5b50505050600080821415610cc457829050610cbd828461162a90919063ffffffff16565b9150610cf3565b610cf082610ce2610cd361044a565b866113c290919063ffffffff16565b61143290919063ffffffff16565b90505b610cfd338261167f565b505050565b6000600160008473ffffffffffffffffffffffffffffffffffffffff1673ffffffffffffffffffffffffffffffffffffffff16815260200190815260200160002060008373ffffffffffffffffffffffffffffffffffffffff1673ffffffffffffffffffffffffffffffffffffffff16815260200190815260200160002054905092915050565b6000811480610e22575060008373ffffffffffffffffffffffffffffffffffffffff1663dd62ed3e30856040518363ffffffff1660e01b8152600401610dd09291906121fb565b60206040518083038186803b158015610de857600080fd5b505afa158015610dfc573d6000803e3d6000fd5b505050506040513d601f19601f82011682018060405250810190610e209190611c56565b145b610e61576040517f08c379a0000000000000000000000000000000000000000000000000000000008152600401610e589061240a565b60405180910390fd5b610ee28363095ea7b360e01b8484604051602401610e80929190612224565b604051602081830303815290604052907bffffffffffffffffffffffffffffffffffffffffffffffffffffffff19166020820180517bffffffffffffffffffffffffffffffffffffffffffffffffffffffff8381831617835250505050611813565b505050565b6060610ef684846000856118da565b90509392505050565b600033905090565b600073ffffffffffffffffffffffffffffffffffffffff168373ffffffffffffffffffffffffffffffffffffffff161415610f77576040517f08c379a0000000000000000000000000000000000000000000000000000000008152600401610f6e906123aa565b60405180910390fd5b600073ffffffffffffffffffffffffffffffffffffffff168273ffffffffffffffffffffffffffffffffffffffff161415610fe7576040517f08c379a0000000000000000000000000000000000000000000000000000000008152600401610fde906122aa565b60405180910390fd5b80600160008573ffffffffffffffffffffffffffffffffffffffff1673ffffffffffffffffffffffffffffffffffffffff16815260200190815260200160002060008473ffffffffffffffffffffffffffffffffffffffff1673ffffffffffffffffffffffffffffffffffffffff168152602001908152602001600020819055508173ffffffffffffffffffffffffffffffffffffffff168373ffffffffffffffffffffffffffffffffffffffff167f8c5be1e5ebec7d5bd14f71427d1e84f3dd0314c0f7b2291e5b200ac8c7c3b925836040516110c5919061244a565b60405180910390a3505050565b600073ffffffffffffffffffffffffffffffffffffffff168373ffffffffffffffffffffffffffffffffffffffff161415611142576040517f08c379a00000000000000000000000000000000000000000000000000000000081526004016111399061238a565b60405180910390fd5b600073ffffffffffffffffffffffffffffffffffffffff168273ffffffffffffffffffffffffffffffffffffffff1614156111b2576040517f08c379a00000000000000000000000000000000000000000000000000000000081526004016111a99061228a565b60405180910390fd5b6111bd8383836119fd565b61122881604051806060016040528060268152602001612612602691396000808773ffffffffffffffffffffffffffffffffffffffff1673ffffffffffffffffffffffffffffffffffffffff168152602001908152602001600020546113679092919063ffffffff16565b6000808573ffffffffffffffffffffffffffffffffffffffff1673ffffffffffffffffffffffffffffffffffffffff168152602001908152602001600020819055506112bb816000808573ffffffffffffffffffffffffffffffffffffffff1673ffffffffffffffffffffffffffffffffffffffff1681526020019081526020016000205461162a90919063ffffffff16565b6000808473ffffffffffffffffffffffffffffffffffffffff1673ffffffffffffffffffffffffffffffffffffffff168152602001908152602001600020819055508173ffffffffffffffffffffffffffffffffffffffff168373ffffffffffffffffffffffffffffffffffffffff167fddf252ad1be2c89b69c2b068fc378daa952ba7f163c4a11628f55a4df523b3ef8360405161135a919061244a565b60405180910390a3505050565b60008383111582906113af576040517f08c379a00000000000000000000000000000000000000000000000000000000081526004016113a69190612268565b60405180910390fd5b5060008385039050809150509392505050565b6000808314156113d5576000905061142c565b60008284029050828482816113e657fe5b0414611427576040517f08c379a000000000000000000000000000000000000000000000000000000000815260040161141e9061232a565b60405180910390fd5b809150505b92915050565b600061147483836040518060400160405280601a81526020017f536166654d6174683a206469766973696f6e206279207a65726f000000000000815250611a02565b905092915050565b600073ffffffffffffffffffffffffffffffffffffffff168273ffffffffffffffffffffffffffffffffffffffff1614156114ec576040517f08c379a00000000000000000000000000000000000000000000000000000000081526004016114e39061236a565b60405180910390fd5b6114f8826000836119fd565b611563816040518060600160405280602281526020016125f0602291396000808673ffffffffffffffffffffffffffffffffffffffff1673ffffffffffffffffffffffffffffffffffffffff168152602001908152602001600020546113679092919063ffffffff16565b6000808473ffffffffffffffffffffffffffffffffffffffff1673ffffffffffffffffffffffffffffffffffffffff168152602001908152602001600020819055506115ba81600254611a6390919063ffffffff16565b600281905550600073ffffffffffffffffffffffffffffffffffffffff168273ffffffffffffffffffffffffffffffffffffffff167fddf252ad1be2c89b69c2b068fc378daa952ba7f163c4a11628f55a4df523b3ef8360405161161e919061244a565b60405180910390a35050565b600080828401905083811015611675576040517f08c379a000000000000000000000000000000000000000000000000000000000815260040161166c906122ca565b60405180910390fd5b8091505092915050565b600073ffffffffffffffffffffffffffffffffffffffff168273ffffffffffffffffffffffffffffffffffffffff1614156116ef576040517f08c379a00000000000000000000000000000000000000000000000000000000081526004016116e69061242a565b60405180910390fd5b6116fb600083836119fd565b6117108160025461162a90919063ffffffff16565b600281905550611767816000808573ffffffffffffffffffffffffffffffffffffffff1673ffffffffffffffffffffffffffffffffffffffff1681526020019081526020016000205461162a90919063ffffffff16565b6000808473ffffffffffffffffffffffffffffffffffffffff1673ffffffffffffffffffffffffffffffffffffffff168152602001908152602001600020819055508173ffffffffffffffffffffffffffffffffffffffff16600073ffffffffffffffffffffffffffffffffffffffff167fddf252ad1be2c89b69c2b068fc378daa952ba7f163c4a11628f55a4df523b3ef83604051611807919061244a565b60405180910390a35050565b6060611875826040518060400160405280602081526020017f5361666545524332303a206c6f772d6c6576656c2063616c6c206661696c65648152508573ffffffffffffffffffffffffffffffffffffffff16610ee79092919063ffffffff16565b90506000815111156118d557808060200190518101906118959190611c04565b6118d4576040517f08c379a00000000000000000000000000000000000000000000000000000000081526004016118cb906123ea565b60405180910390fd5b5b505050565b60606118e585611aad565b611924576040517f08c379a000000000000000000000000000000000000000000000000000000000815260040161191b906123ca565b60405180910390fd5b600060608673ffffffffffffffffffffffffffffffffffffffff16858760405161194e91906121e4565b60006040518083038185875af1925050503d806000811461198b576040519150601f19603f3d011682016040523d82523d6000602084013e611990565b606091505b509150915081156119a55780925050506119f5565b6000815111156119b85780518082602001fd5b836040517f08c379a00000000000000000000000000000000000000000000000000000000081526004016119ec9190612268565b60405180910390fd5b949350505050565b505050565b60008083118290611a49576040517f08c379a0000000000000000000000000000000000000000000000000000000008152600401611a409190612268565b60405180910390fd5b506000838581611a5557fe5b049050809150509392505050565b6000611aa583836040518060400160405280601e81526020017f536166654d6174683a207375627472616374696f6e206f766572666c6f770000815250611367565b905092915050565b600080823b905060008111915050919050565b600081359050611acf816125aa565b92915050565b600081519050611ae4816125c1565b92915050565b600081359050611af9816125d8565b92915050565b600081519050611b0e816125d8565b92915050565b600060208284031215611b2657600080fd5b6000611b3484828501611ac0565b91505092915050565b60008060408385031215611b5057600080fd5b6000611b5e85828601611ac0565b9250506020611b6f85828601611ac0565b9150509250929050565b600080600060608486031215611b8e57600080fd5b6000611b9c86828701611ac0565b9350506020611bad86828701611ac0565b9250506040611bbe86828701611aea565b9150509250925092565b60008060408385031215611bdb57600080fd5b6000611be985828601611ac0565b9250506020611bfa85828601611aea565b9150509250929050565b600060208284031215611c1657600080fd5b6000611c2484828501611ad5565b91505092915050565b600060208284031215611c3f57600080fd5b6000611c4d84828501611aea565b91505092915050565b600060208284031215611c6857600080fd5b6000611c7684828501611aff565b91505092915050565b611c8881612530565b82525050565b611c97816124db565b82525050565b611ca6816124ed565b82525050565b6000611cb7826124a9565b611cc181856124bf565b9350611cd1818560208601612566565b80840191505092915050565b6000611ce8826124b4565b611cf281856124ca565b9350611d02818560208601612566565b611d0b81612599565b840191505092915050565b6000611d236023836124ca565b91507f45524332303a207472616e7366657220746f20746865207a65726f206164647260008301527f65737300000000000000000000000000000000000000000000000000000000006020830152604082019050919050565b6000611d896022836124ca565b91507f45524332303a20617070726f766520746f20746865207a65726f20616464726560008301527f73730000000000000000000000000000000000000000000000000000000000006020830152604082019050919050565b6000611def601b836124ca565b91507f536166654d6174683a206164646974696f6e206f766572666c6f7700000000006000830152602082019050919050565b6000611e2f6014836124ca565b91507f496e73756666696369656e742062616c616e63650000000000000000000000006000830152602082019050919050565b6000611e6f601f836124ca565b91507f5769746864726177206d7573742062652067726561746572207468616e2030006000830152602082019050919050565b6000611eaf6021836124ca565b91507f536166654d6174683a206d756c7469706c69636174696f6e206f766572666c6f60008301527f77000000000000000000000000000000000000000000000000000000000000006020830152604082019050919050565b6000611f15601e836124ca565b91507f4465706f736974206d7573742062652067726561746572207468616e203000006000830152602082019050919050565b6000611f556021836124ca565b91507f45524332303a206275726e2066726f6d20746865207a65726f2061646472657360008301527f73000000000000000000000000000000000000000000000000000000000000006020830152604082019050919050565b6000611fbb6025836124ca565b91507f45524332303a207472616e736665722066726f6d20746865207a65726f20616460008301527f64726573730000000000000000000000000000000000000000000000000000006020830152604082019050919050565b60006120216024836124ca565b91507f45524332303a20617070726f76652066726f6d20746865207a65726f2061646460008301527f72657373000000000000000000000000000000000000000000000000000000006020830152604082019050919050565b6000612087601d836124ca565b91507f416464726573733a2063616c6c20746f206e6f6e2d636f6e74726163740000006000830152602082019050919050565b60006120c7602a836124ca565b91507f5361666545524332303a204552433230206f7065726174696f6e20646964206e60008301527f6f742073756363656564000000000000000000000000000000000000000000006020830152604082019050919050565b600061212d6036836124ca565b91507f5361666545524332303a20617070726f76652066726f6d206e6f6e2d7a65726f60008301527f20746f206e6f6e2d7a65726f20616c6c6f77616e6365000000000000000000006020830152604082019050919050565b6000612193601f836124ca565b91507f45524332303a206d696e7420746f20746865207a65726f2061646472657373006000830152602082019050919050565b6121cf81612519565b82525050565b6121de81612523565b82525050565b60006121f08284611cac565b915081905092915050565b60006040820190506122106000830185611c8e565b61221d6020830184611c8e565b9392505050565b60006040820190506122396000830185611c8e565b61224660208301846121c6565b9392505050565b60006020820190506122626000830184611c9d565b92915050565b600060208201905081810360008301526122828184611cdd565b905092915050565b600060208201905081810360008301526122a381611d16565b9050919050565b600060208201905081810360008301526122c381611d7c565b9050919050565b600060208201905081810360008301526122e381611de2565b9050919050565b6000602082019050818103600083015261230381611e22565b9050919050565b6000602082019050818103600083015261232381611e62565b9050919050565b6000602082019050818103600083015261234381611ea2565b9050919050565b6000602082019050818103600083015261236381611f08565b9050919050565b6000602082019050818103600083015261238381611f48565b9050919050565b600060208201905081810360008301526123a381611fae565b9050919050565b600060208201905081810360008301526123c381612014565b9050919050565b600060208201905081810360008301526123e38161207a565b9050919050565b60006020820190508181036000830152612403816120ba565b9050919050565b6000602082019050818103600083015261242381612120565b9050919050565b6000602082019050818103600083015261244381612186565b9050919050565b600060208201905061245f60008301846121c6565b92915050565b600060408201905061247a60008301856121c6565b6124876020830184611c7f565b9392505050565b60006020820190506124a360008301846121d5565b92915050565b600081519050919050565b600081519050919050565b600081905092915050565b600082825260208201905092915050565b60006124e6826124f9565b9050919050565b60008115159050919050565b600073ffffffffffffffffffffffffffffffffffffffff82169050919050565b6000819050919050565b600060ff82169050919050565b600061253b82612542565b9050919050565b600061254d82612554565b9050919050565b600061255f826124f9565b9050919050565b60005b83811015612584578082015181840152602081019050612569565b83811115612593576000848401525b50505050565b6000601f19601f8301169050919050565b6125b3816124db565b81146125be57600080fd5b50565b6125ca816124ed565b81146125d557600080fd5b50565b6125e181612519565b81146125ec57600080fd5b5056fe45524332303a206275726e20616d6f756e7420657863656564732062616c616e636545524332303a207472616e7366657220616d6f756e7420657863656564732062616c616e636545524332303a207472616e7366657220616d6f756e74206578636565647320616c6c6f77616e636545524332303a206275726e20616d6f756e74206578636565647320616c6c6f77616e636545524332303a2064656372656173656420616c6c6f77616e63652062656c6f77207a65726fa2646970667358221220b63058ec92e353e684493654e9c577a18859c3be19a3820de5b53a3bf7490afb64736f6c634300060c0033",
  "immutableReferences": {},
  "source": "// SPDX-License-Identifier: MIT\npragma solidity >=0.6.0 <0.7.0;\npragma experimental ABIEncoderV2;\n\nimport \"@openzeppelin/contracts/token/ERC20/ERC20Burnable.sol\";\nimport \"@openzeppelin/contracts/token/ERC20/SafeERC20.sol\";\nimport \"./interfaces/ITreasury.sol\";\n\ncontract RDAI is ERC20Burnable {\n    using SafeERC20 for IERC20;\n    using Address for address;\n    using SafeMath for uint256;\n\n    ITreasury private _treasury;\n    IERC20 private _dai;\n\n    uint256 public pool;\n\n    constructor(IERC20 dai, ITreasury treasury)\n        public\n        ERC20(\"Real Hedge DAI\", \"rDAI\")\n    {\n        _treasury = treasury;\n        _dai = dai;\n        _dai.safeApprove(address(_treasury), uint256(-1));\n    }\n\n    function deposit(uint256 amount) external {\n        require(amount > 0, \"Deposit must be greater than 0\");\n        uint256 value = _treasury.totalBalance();\n\n        _treasury.deposit(amount, msg.sender);\n\n        uint256 shares = 0;\n        if (value == 0) {\n            shares = amount;\n            value = amount.add(value);\n        } else {\n            shares = (amount.mul(totalSupply())).div(value);\n        }\n        _mint(msg.sender, shares);\n    }\n\n    function withdraw(uint256 shares) external {\n        require(shares > 0, \"Withdraw must be greater than 0\");\n\n        uint256 ibalance = balanceOf(msg.sender);\n        require(shares <= ibalance, \"Insufficient balance\");\n\n        uint256 value = _treasury.totalBalance();\n        uint256 amount = (value.mul(shares)).div(totalSupply());\n        _burn(msg.sender, shares);\n\n        // This reverts if capital not available\n        _treasury.payout(amount, msg.sender);\n    }\n\n    function getPricePerFullShare() public view returns (uint256) {\n        uint256 value = _treasury.totalBalance();\n        return value.mul(1e18).div(totalSupply());\n    }\n}\n",
  "sourcePath": "/RDAI.sol",
  "compiler": {
    "name": "solc",
    "version": "0.6.12+commit.27d51765.Emscripten.clang"
  },
  "schemaVersion": "3.2.5",
  "updatedAt": "2020-09-27T15:52:52.662Z",
  "networkType": "ethereum",
  "devdoc": {
    "kind": "dev",
    "methods": {
      "allowance(address,address)": {
        "details": "See {IERC20-allowance}."
      },
      "approve(address,uint256)": {
        "details": "See {IERC20-approve}. Requirements: - `spender` cannot be the zero address."
      },
      "balanceOf(address)": {
        "details": "See {IERC20-balanceOf}."
      },
      "burn(uint256)": {
        "details": "Destroys `amount` tokens from the caller. See {ERC20-_burn}."
      },
      "burnFrom(address,uint256)": {
        "details": "Destroys `amount` tokens from `account`, deducting from the caller's allowance. See {ERC20-_burn} and {ERC20-allowance}. Requirements: - the caller must have allowance for ``accounts``'s tokens of at least `amount`."
      },
      "decimals()": {
        "details": "Returns the number of decimals used to get its user representation. For example, if `decimals` equals `2`, a balance of `505` tokens should be displayed to a user as `5,05` (`505 / 10 ** 2`). Tokens usually opt for a value of 18, imitating the relationship between Ether and Wei. This is the value {ERC20} uses, unless {_setupDecimals} is called. NOTE: This information is only used for _display_ purposes: it in no way affects any of the arithmetic of the contract, including {IERC20-balanceOf} and {IERC20-transfer}."
      },
      "decreaseAllowance(address,uint256)": {
        "details": "Atomically decreases the allowance granted to `spender` by the caller. This is an alternative to {approve} that can be used as a mitigation for problems described in {IERC20-approve}. Emits an {Approval} event indicating the updated allowance. Requirements: - `spender` cannot be the zero address. - `spender` must have allowance for the caller of at least `subtractedValue`."
      },
      "increaseAllowance(address,uint256)": {
        "details": "Atomically increases the allowance granted to `spender` by the caller. This is an alternative to {approve} that can be used as a mitigation for problems described in {IERC20-approve}. Emits an {Approval} event indicating the updated allowance. Requirements: - `spender` cannot be the zero address."
      },
      "name()": {
        "details": "Returns the name of the token."
      },
      "symbol()": {
        "details": "Returns the symbol of the token, usually a shorter version of the name."
      },
      "totalSupply()": {
        "details": "See {IERC20-totalSupply}."
      },
      "transfer(address,uint256)": {
        "details": "See {IERC20-transfer}. Requirements: - `recipient` cannot be the zero address. - the caller must have a balance of at least `amount`."
      },
      "transferFrom(address,address,uint256)": {
        "details": "See {IERC20-transferFrom}. Emits an {Approval} event indicating the updated allowance. This is not required by the EIP. See the note at the beginning of {ERC20}; Requirements: - `sender` and `recipient` cannot be the zero address. - `sender` must have a balance of at least `amount`. - the caller must have allowance for ``sender``'s tokens of at least `amount`."
      }
    },
    "version": 1
  },
  "userdoc": {
    "kind": "user",
    "methods": {},
    "version": 1
  }
}