{
  "contractName": "Treasury",
  "abi": [
    {
      "inputs": [
        {
          "internalType": "contract IERC20",
          "name": "dai",
          "type": "address"
        }
      ],
      "stateMutability": "nonpayable",
      "type": "constructor"
    },
    {
      "anonymous": false,
      "inputs": [
        {
          "indexed": true,
          "internalType": "bytes32",
          "name": "role",
          "type": "bytes32"
        },
        {
          "indexed": true,
          "internalType": "bytes32",
          "name": "previousAdminRole",
          "type": "bytes32"
        },
        {
          "indexed": true,
          "internalType": "bytes32",
          "name": "newAdminRole",
          "type": "bytes32"
        }
      ],
      "name": "RoleAdminChanged",
      "type": "event"
    },
    {
      "anonymous": false,
      "inputs": [
        {
          "indexed": true,
          "internalType": "bytes32",
          "name": "role",
          "type": "bytes32"
        },
        {
          "indexed": true,
          "internalType": "address",
          "name": "account",
          "type": "address"
        },
        {
          "indexed": true,
          "internalType": "address",
          "name": "sender",
          "type": "address"
        }
      ],
      "name": "RoleGranted",
      "type": "event"
    },
    {
      "anonymous": false,
      "inputs": [
        {
          "indexed": true,
          "internalType": "bytes32",
          "name": "role",
          "type": "bytes32"
        },
        {
          "indexed": true,
          "internalType": "address",
          "name": "account",
          "type": "address"
        },
        {
          "indexed": true,
          "internalType": "address",
          "name": "sender",
          "type": "address"
        }
      ],
      "name": "RoleRevoked",
      "type": "event"
    },
    {
      "inputs": [],
      "name": "DEFAULT_ADMIN_ROLE",
      "outputs": [
        {
          "internalType": "bytes32",
          "name": "",
          "type": "bytes32"
        }
      ],
      "stateMutability": "view",
      "type": "function"
    },
    {
      "inputs": [],
      "name": "TREASURER_ROLE",
      "outputs": [
        {
          "internalType": "bytes32",
          "name": "",
          "type": "bytes32"
        }
      ],
      "stateMutability": "view",
      "type": "function"
    },
    {
      "inputs": [
        {
          "internalType": "bytes32",
          "name": "role",
          "type": "bytes32"
        }
      ],
      "name": "getRoleAdmin",
      "outputs": [
        {
          "internalType": "bytes32",
          "name": "",
          "type": "bytes32"
        }
      ],
      "stateMutability": "view",
      "type": "function"
    },
    {
      "inputs": [
        {
          "internalType": "bytes32",
          "name": "role",
          "type": "bytes32"
        },
        {
          "internalType": "uint256",
          "name": "index",
          "type": "uint256"
        }
      ],
      "name": "getRoleMember",
      "outputs": [
        {
          "internalType": "address",
          "name": "",
          "type": "address"
        }
      ],
      "stateMutability": "view",
      "type": "function"
    },
    {
      "inputs": [
        {
          "internalType": "bytes32",
          "name": "role",
          "type": "bytes32"
        }
      ],
      "name": "getRoleMemberCount",
      "outputs": [
        {
          "internalType": "uint256",
          "name": "",
          "type": "uint256"
        }
      ],
      "stateMutability": "view",
      "type": "function"
    },
    {
      "inputs": [
        {
          "internalType": "bytes32",
          "name": "role",
          "type": "bytes32"
        },
        {
          "internalType": "address",
          "name": "account",
          "type": "address"
        }
      ],
      "name": "grantRole",
      "outputs": [],
      "stateMutability": "nonpayable",
      "type": "function"
    },
    {
      "inputs": [
        {
          "internalType": "bytes32",
          "name": "role",
          "type": "bytes32"
        },
        {
          "internalType": "address",
          "name": "account",
          "type": "address"
        }
      ],
      "name": "hasRole",
      "outputs": [
        {
          "internalType": "bool",
          "name": "",
          "type": "bool"
        }
      ],
      "stateMutability": "view",
      "type": "function"
    },
    {
      "inputs": [
        {
          "internalType": "bytes32",
          "name": "role",
          "type": "bytes32"
        },
        {
          "internalType": "address",
          "name": "account",
          "type": "address"
        }
      ],
      "name": "renounceRole",
      "outputs": [],
      "stateMutability": "nonpayable",
      "type": "function"
    },
    {
      "inputs": [
        {
          "internalType": "bytes32",
          "name": "role",
          "type": "bytes32"
        },
        {
          "internalType": "address",
          "name": "account",
          "type": "address"
        }
      ],
      "name": "revokeRole",
      "outputs": [],
      "stateMutability": "nonpayable",
      "type": "function"
    },
    {
      "inputs": [],
      "name": "totalEarmarkedFunds",
      "outputs": [
        {
          "internalType": "uint256",
          "name": "",
          "type": "uint256"
        }
      ],
      "stateMutability": "view",
      "type": "function"
    },
    {
      "stateMutability": "payable",
      "type": "receive"
    },
    {
      "inputs": [
        {
          "internalType": "uint256",
          "name": "premium",
          "type": "uint256"
        },
        {
          "internalType": "address",
          "name": "payee",
          "type": "address"
        }
      ],
      "name": "deposit",
      "outputs": [],
      "stateMutability": "nonpayable",
      "type": "function"
    },
    {
      "inputs": [
        {
          "internalType": "uint256",
          "name": "amount",
          "type": "uint256"
        }
      ],
      "name": "isCapitalAvailable",
      "outputs": [
        {
          "internalType": "bool",
          "name": "",
          "type": "bool"
        }
      ],
      "stateMutability": "view",
      "type": "function"
    },
    {
      "inputs": [],
      "name": "totalBalance",
      "outputs": [
        {
          "internalType": "uint256",
          "name": "",
          "type": "uint256"
        }
      ],
      "stateMutability": "view",
      "type": "function"
    },
    {
      "inputs": [
        {
          "internalType": "uint256",
          "name": "earmarkedFunds",
          "type": "uint256"
        }
      ],
      "name": "earmarkFunds",
      "outputs": [],
      "stateMutability": "nonpayable",
      "type": "function"
    },
    {
      "inputs": [
        {
          "internalType": "uint256",
          "name": "amount",
          "type": "uint256"
        },
        {
          "internalType": "address",
          "name": "payee",
          "type": "address"
        }
      ],
      "name": "payout",
      "outputs": [],
      "stateMutability": "nonpayable",
      "type": "function"
    },
    {
      "inputs": [
        {
          "internalType": "uint256",
          "name": "amount",
          "type": "uint256"
        },
        {
          "internalType": "address",
          "name": "payee",
          "type": "address"
        }
      ],
      "name": "payoutEarmarked",
      "outputs": [],
      "stateMutability": "nonpayable",
      "type": "function"
    },
    {
      "inputs": [
        {
          "internalType": "uint256",
          "name": "releasedFunds",
          "type": "uint256"
        }
      ],
      "name": "releaseFunds",
      "outputs": [],
      "stateMutability": "nonpayable",
      "type": "function"
    },
    {
      "inputs": [
        {
          "internalType": "address",
          "name": "newTreasurer",
          "type": "address"
        }
      ],
      "name": "addTreasurer",
      "outputs": [],
      "stateMutability": "nonpayable",
      "type": "function"
    },
    {
      "inputs": [
        {
          "internalType": "address",
          "name": "treasurer",
          "type": "address"
        }
      ],
      "name": "removeTreasurer",
      "outputs": [],
      "stateMutability": "nonpayable",
      "type": "function"
    }
  ],
  "bytecode": "0x60806040523480156200001157600080fd5b506040516200219b3803806200219b833981810160405281019062000037919062000250565b6200005b6000801b6200004f620000a360201b60201c565b620000ab60201b60201c565b80600260006101000a81548173ffffffffffffffffffffffffffffffffffffffff021916908373ffffffffffffffffffffffffffffffffffffffff16021790555050620002de565b600033905090565b620000bd8282620000c160201b60201c565b5050565b620000ef816000808581526020019081526020016000206000016200016460201b62000b3a1790919060201c565b15620001605762000105620000a360201b60201c565b73ffffffffffffffffffffffffffffffffffffffff168173ffffffffffffffffffffffffffffffffffffffff16837f2f8788117e7eff1d82e926ec794901d17c78024a50270940304540a733656f0d60405160405180910390a45b5050565b600062000194836000018373ffffffffffffffffffffffffffffffffffffffff1660001b6200019c60201b60201c565b905092915050565b6000620001b083836200021660201b60201c565b6200020b57826000018290806001815401808255809150506001900390600052602060002001600090919091909150558260000180549050836001016000848152602001908152602001600020819055506001905062000210565b600090505b92915050565b600080836001016000848152602001908152602001600020541415905092915050565b6000815190506200024a81620002c4565b92915050565b6000602082840312156200026357600080fd5b6000620002738482850162000239565b91505092915050565b60006200028982620002a4565b9050919050565b60006200029d826200027c565b9050919050565b600073ffffffffffffffffffffffffffffffffffffffff82169050919050565b620002cf8162000290565b8114620002db57600080fd5b50565b611ead80620002ee6000396000f3fe6080604052600436106101185760003560e01c80639010d07c116100a0578063ad7a672f11610064578063ad7a672f146103b6578063be95e01a146103e1578063ca15c8731461040a578063d547741f14610447578063f0a3a97c146104705761011f565b80639010d07c146102bf57806391d14854146102fc57806396f0248a14610339578063a217fddf14610362578063ab56a29c1461038d5761011f565b806341ad07b1116100e757806341ad07b1146101dc5780634d68282f146102195780636e553f65146102425780637c8cd6e01461026b5780637ee41478146102965761011f565b8063248a9ca3146101245780632f2ff15d14610161578063323bcc421461018a57806336568abe146101b35761011f565b3661011f57005b600080fd5b34801561013057600080fd5b5061014b60048036038101906101469190611575565b61049b565b6040516101589190611b85565b60405180910390f35b34801561016d57600080fd5b506101886004803603810190610183919061159e565b6104ba565b005b34801561019657600080fd5b506101b160048036038101906101ac9190611668565b61052d565b005b3480156101bf57600080fd5b506101da60048036038101906101d5919061159e565b6105b4565b005b3480156101e857600080fd5b5061020360048036038101906101fe9190611616565b610637565b6040516102109190611b6a565b60405180910390f35b34801561022557600080fd5b50610240600480360381019061023b9190611616565b61065f565b005b34801561024e57600080fd5b5061026960048036038101906102649190611668565b6106db565b005b34801561027757600080fd5b5061028061072e565b60405161028d9190611d02565b60405180910390f35b3480156102a257600080fd5b506102bd60048036038101906102b89190611616565b610734565b005b3480156102cb57600080fd5b506102e660048036038101906102e191906115da565b61088a565b6040516102f39190611ad4565b60405180910390f35b34801561030857600080fd5b50610323600480360381019061031e919061159e565b6108bb565b6040516103309190611b6a565b60405180910390f35b34801561034557600080fd5b50610360600480360381019061035b9190611523565b6108ec565b005b34801561036e57600080fd5b50610377610919565b6040516103849190611b85565b60405180910390f35b34801561039957600080fd5b506103b460048036038101906103af9190611523565b610920565b005b3480156103c257600080fd5b506103cb61094d565b6040516103d89190611d02565b60405180910390f35b3480156103ed57600080fd5b5061040860048036038101906104039190611668565b6109ff565b005b34801561041657600080fd5b50610431600480360381019061042c9190611575565b610a7d565b60405161043e9190611d02565b60405180910390f35b34801561045357600080fd5b5061046e6004803603810190610469919061159e565b610aa3565b005b34801561047c57600080fd5b50610485610b16565b6040516104929190611b85565b60405180910390f35b6000806000838152602001908152602001600020600201549050919050565b6104e0600080848152602001908152602001600020600201546104db610b6a565b6108bb565b61051f576040517f08c379a000000000000000000000000000000000000000000000000000000000815260040161051690611be2565b60405180910390fd5b6105298282610b72565b5050565b61055e7f3496e2e73c4d42b75d702e60d9e48102720b8691234415963a5a857b86425d07610559610b6a565b6108bb565b61059d576040517f08c379a000000000000000000000000000000000000000000000000000000000815260040161059490611c42565b60405180910390fd5b6105a682610c05565b6105b08282610c68565b5050565b6105bc610b6a565b73ffffffffffffffffffffffffffffffffffffffff168173ffffffffffffffffffffffffffffffffffffffff1614610629576040517f08c379a000000000000000000000000000000000000000000000000000000000815260040161062090611ce2565b60405180910390fd5b6106338282610d81565b5050565b600061064e82600154610e1490919063ffffffff16565b61065661094d565b10159050919050565b6106907f3496e2e73c4d42b75d702e60d9e48102720b8691234415963a5a857b86425d0761068b610b6a565b6108bb565b6106cf576040517f08c379a00000000000000000000000000000000000000000000000000000000081526004016106c690611c42565b60405180910390fd5b6106d881610c05565b50565b61072a813084600260009054906101000a900473ffffffffffffffffffffffffffffffffffffffff1673ffffffffffffffffffffffffffffffffffffffff16610e69909392919063ffffffff16565b5050565b60015481565b6107657f3496e2e73c4d42b75d702e60d9e48102720b8691234415963a5a857b86425d07610760610b6a565b6108bb565b6107a4576040517f08c379a000000000000000000000000000000000000000000000000000000000815260040161079b90611c42565b60405180910390fd5b3073ffffffffffffffffffffffffffffffffffffffff166341ad07b1826040518263ffffffff1660e01b81526004016107dd9190611d02565b60206040518083038186803b1580156107f557600080fd5b505afa158015610809573d6000803e3d6000fd5b505050506040513d601f19601f8201168201806040525081019061082d919061154c565b61086c576040517f08c379a000000000000000000000000000000000000000000000000000000000815260040161086390611c22565b60405180910390fd5b61088181600154610e1490919063ffffffff16565b60018190555050565b60006108b382600080868152602001908152602001600020600001610ef290919063ffffffff16565b905092915050565b60006108e482600080868152602001908152602001600020600001610f0c90919063ffffffff16565b905092915050565b6109167f3496e2e73c4d42b75d702e60d9e48102720b8691234415963a5a857b86425d0782610aa3565b50565b6000801b81565b61094a7f3496e2e73c4d42b75d702e60d9e48102720b8691234415963a5a857b86425d07826104ba565b50565b6000600260009054906101000a900473ffffffffffffffffffffffffffffffffffffffff1673ffffffffffffffffffffffffffffffffffffffff166370a08231306040518263ffffffff1660e01b81526004016109aa9190611aef565b60206040518083038186803b1580156109c257600080fd5b505afa1580156109d6573d6000803e3d6000fd5b505050506040513d601f19601f820116820180604052508101906109fa919061163f565b905090565b610a307f3496e2e73c4d42b75d702e60d9e48102720b8691234415963a5a857b86425d07610a2b610b6a565b6108bb565b610a6f576040517f08c379a0000000000000000000000000000000000000000000000000000000008152600401610a6690611c42565b60405180910390fd5b610a798282610c68565b5050565b6000610a9c600080848152602001908152602001600020600001610f3c565b9050919050565b610ac960008084815260200190815260200160002060020154610ac4610b6a565b6108bb565b610b08576040517f08c379a0000000000000000000000000000000000000000000000000000000008152600401610aff90611c62565b60405180910390fd5b610b128282610d81565b5050565b7f3496e2e73c4d42b75d702e60d9e48102720b8691234415963a5a857b86425d0781565b6000610b62836000018373ffffffffffffffffffffffffffffffffffffffff1660001b610f51565b905092915050565b600033905090565b610b9981600080858152602001908152602001600020600001610b3a90919063ffffffff16565b15610c0157610ba6610b6a565b73ffffffffffffffffffffffffffffffffffffffff168173ffffffffffffffffffffffffffffffffffffffff16837f2f8788117e7eff1d82e926ec794901d17c78024a50270940304540a733656f0d60405160405180910390a45b5050565b806001541015610c4a576040517f08c379a0000000000000000000000000000000000000000000000000000000008152600401610c4190611c82565b60405180910390fd5b610c5f81600154610fc190919063ffffffff16565b60018190555050565b3073ffffffffffffffffffffffffffffffffffffffff166341ad07b1836040518263ffffffff1660e01b8152600401610ca19190611d02565b60206040518083038186803b158015610cb957600080fd5b505afa158015610ccd573d6000803e3d6000fd5b505050506040513d601f19601f82011682018060405250810190610cf1919061154c565b610d30576040517f08c379a0000000000000000000000000000000000000000000000000000000008152600401610d2790611c22565b60405180910390fd5b610d7d8183600260009054906101000a900473ffffffffffffffffffffffffffffffffffffffff1673ffffffffffffffffffffffffffffffffffffffff1661100b9092919063ffffffff16565b5050565b610da88160008085815260200190815260200160002060000161109190919063ffffffff16565b15610e1057610db5610b6a565b73ffffffffffffffffffffffffffffffffffffffff168173ffffffffffffffffffffffffffffffffffffffff16837ff6391f5c32d9c69d2a47ea670b442974b53935d1edc7fd64eb21e047a839171b60405160405180910390a45b5050565b600080828401905083811015610e5f576040517f08c379a0000000000000000000000000000000000000000000000000000000008152600401610e5690611c02565b60405180910390fd5b8091505092915050565b610eec846323b872dd60e01b858585604051602401610e8a93929190611b0a565b604051602081830303815290604052907bffffffffffffffffffffffffffffffffffffffffffffffffffffffff19166020820180517bffffffffffffffffffffffffffffffffffffffffffffffffffffffff83818316178352505050506110c1565b50505050565b6000610f018360000183611188565b60001c905092915050565b6000610f34836000018373ffffffffffffffffffffffffffffffffffffffff1660001b6111f5565b905092915050565b6000610f4a82600001611218565b9050919050565b6000610f5d83836111f5565b610fb6578260000182908060018154018082558091505060019003906000526020600020016000909190919091505582600001805490508360010160008481526020019081526020016000208190555060019050610fbb565b600090505b92915050565b600061100383836040518060400160405280601e81526020017f536166654d6174683a207375627472616374696f6e206f766572666c6f770000815250611229565b905092915050565b61108c8363a9059cbb60e01b848460405160240161102a929190611b41565b604051602081830303815290604052907bffffffffffffffffffffffffffffffffffffffffffffffffffffffff19166020820180517bffffffffffffffffffffffffffffffffffffffffffffffffffffffff83818316178352505050506110c1565b505050565b60006110b9836000018373ffffffffffffffffffffffffffffffffffffffff1660001b611284565b905092915050565b6060611123826040518060400160405280602081526020017f5361666545524332303a206c6f772d6c6576656c2063616c6c206661696c65648152508573ffffffffffffffffffffffffffffffffffffffff1661136c9092919063ffffffff16565b90506000815111156111835780806020019051810190611143919061154c565b611182576040517f08c379a000000000000000000000000000000000000000000000000000000000815260040161117990611cc2565b60405180910390fd5b5b505050565b6000818360000180549050116111d3576040517f08c379a00000000000000000000000000000000000000000000000000000000081526004016111ca90611bc2565b60405180910390fd5b8260000182815481106111e257fe5b9060005260206000200154905092915050565b600080836001016000848152602001908152602001600020541415905092915050565b600081600001805490509050919050565b6000838311158290611271576040517f08c379a00000000000000000000000000000000000000000000000000000000081526004016112689190611ba0565b60405180910390fd5b5060008385039050809150509392505050565b6000808360010160008481526020019081526020016000205490506000811461136057600060018203905060006001866000018054905003905060008660000182815481106112cf57fe5b90600052602060002001549050808760000184815481106112ec57fe5b906000526020600020018190555060018301876001016000838152602001908152602001600020819055508660000180548061132457fe5b60019003818190600052602060002001600090559055866001016000878152602001908152602001600020600090556001945050505050611366565b60009150505b92915050565b606061137b8484600085611384565b90509392505050565b606061138f856114a7565b6113ce576040517f08c379a00000000000000000000000000000000000000000000000000000000081526004016113c590611ca2565b60405180910390fd5b600060608673ffffffffffffffffffffffffffffffffffffffff1685876040516113f89190611abd565b60006040518083038185875af1925050503d8060008114611435576040519150601f19603f3d011682016040523d82523d6000602084013e61143a565b606091505b5091509150811561144f57809250505061149f565b6000815111156114625780518082602001fd5b836040517f08c379a00000000000000000000000000000000000000000000000000000000081526004016114969190611ba0565b60405180910390fd5b949350505050565b600080823b905060008111915050919050565b6000813590506114c981611e1b565b92915050565b6000815190506114de81611e32565b92915050565b6000813590506114f381611e49565b92915050565b60008135905061150881611e60565b92915050565b60008151905061151d81611e60565b92915050565b60006020828403121561153557600080fd5b6000611543848285016114ba565b91505092915050565b60006020828403121561155e57600080fd5b600061156c848285016114cf565b91505092915050565b60006020828403121561158757600080fd5b6000611595848285016114e4565b91505092915050565b600080604083850312156115b157600080fd5b60006115bf858286016114e4565b92505060206115d0858286016114ba565b9150509250929050565b600080604083850312156115ed57600080fd5b60006115fb858286016114e4565b925050602061160c858286016114f9565b9150509250929050565b60006020828403121561162857600080fd5b6000611636848285016114f9565b91505092915050565b60006020828403121561165157600080fd5b600061165f8482850161150e565b91505092915050565b6000806040838503121561167b57600080fd5b6000611689858286016114f9565b925050602061169a858286016114ba565b9150509250929050565b6116ad81611da1565b82525050565b6116bc81611d4f565b82525050565b6116cb81611d61565b82525050565b6116da81611d6d565b82525050565b60006116eb82611d1d565b6116f58185611d33565b9350611705818560208601611dd7565b80840191505092915050565b600061171c82611d28565b6117268185611d3e565b9350611736818560208601611dd7565b61173f81611e0a565b840191505092915050565b6000611757602283611d3e565b91507f456e756d657261626c655365743a20696e646578206f7574206f6620626f756e60008301527f64730000000000000000000000000000000000000000000000000000000000006020830152604082019050919050565b60006117bd602f83611d3e565b91507f416363657373436f6e74726f6c3a2073656e646572206d75737420626520616e60008301527f2061646d696e20746f206772616e7400000000000000000000000000000000006020830152604082019050919050565b6000611823601b83611d3e565b91507f536166654d6174683a206164646974696f6e206f766572666c6f7700000000006000830152602082019050919050565b6000611863601283611d3e565b91507f496e73756666696369656e742046756e647300000000000000000000000000006000830152602082019050919050565b60006118a3600d83611d3e565b91507f4163636573732044656e696564000000000000000000000000000000000000006000830152602082019050919050565b60006118e3603083611d3e565b91507f416363657373436f6e74726f6c3a2073656e646572206d75737420626520616e60008301527f2061646d696e20746f207265766f6b65000000000000000000000000000000006020830152604082019050919050565b6000611949602283611d3e565b91507f43616e6e6f742072656c65617365206d6f7265207468616e206561726d61726b60008301527f65640000000000000000000000000000000000000000000000000000000000006020830152604082019050919050565b60006119af601d83611d3e565b91507f416464726573733a2063616c6c20746f206e6f6e2d636f6e74726163740000006000830152602082019050919050565b60006119ef602a83611d3e565b91507f5361666545524332303a204552433230206f7065726174696f6e20646964206e60008301527f6f742073756363656564000000000000000000000000000000000000000000006020830152604082019050919050565b6000611a55602f83611d3e565b91507f416363657373436f6e74726f6c3a2063616e206f6e6c792072656e6f756e636560008301527f20726f6c657320666f722073656c6600000000000000000000000000000000006020830152604082019050919050565b611ab781611d97565b82525050565b6000611ac982846116e0565b915081905092915050565b6000602082019050611ae960008301846116b3565b92915050565b6000602082019050611b0460008301846116a4565b92915050565b6000606082019050611b1f60008301866116b3565b611b2c60208301856116b3565b611b396040830184611aae565b949350505050565b6000604082019050611b5660008301856116b3565b611b636020830184611aae565b9392505050565b6000602082019050611b7f60008301846116c2565b92915050565b6000602082019050611b9a60008301846116d1565b92915050565b60006020820190508181036000830152611bba8184611711565b905092915050565b60006020820190508181036000830152611bdb8161174a565b9050919050565b60006020820190508181036000830152611bfb816117b0565b9050919050565b60006020820190508181036000830152611c1b81611816565b9050919050565b60006020820190508181036000830152611c3b81611856565b9050919050565b60006020820190508181036000830152611c5b81611896565b9050919050565b60006020820190508181036000830152611c7b816118d6565b9050919050565b60006020820190508181036000830152611c9b8161193c565b9050919050565b60006020820190508181036000830152611cbb816119a2565b9050919050565b60006020820190508181036000830152611cdb816119e2565b9050919050565b60006020820190508181036000830152611cfb81611a48565b9050919050565b6000602082019050611d176000830184611aae565b92915050565b600081519050919050565b600081519050919050565b600081905092915050565b600082825260208201905092915050565b6000611d5a82611d77565b9050919050565b60008115159050919050565b6000819050919050565b600073ffffffffffffffffffffffffffffffffffffffff82169050919050565b6000819050919050565b6000611dac82611db3565b9050919050565b6000611dbe82611dc5565b9050919050565b6000611dd082611d77565b9050919050565b60005b83811015611df5578082015181840152602081019050611dda565b83811115611e04576000848401525b50505050565b6000601f19601f8301169050919050565b611e2481611d4f565b8114611e2f57600080fd5b50565b611e3b81611d61565b8114611e4657600080fd5b50565b611e5281611d6d565b8114611e5d57600080fd5b50565b611e6981611d97565b8114611e7457600080fd5b5056fea2646970667358221220692f37057d6e1e416cb22a5ab7e1905d105ce5bca91152f45ac2ed9531d3b8ee64736f6c634300060c0033",
  "immutableReferences": {},
  "source": "// SPDX-License-Identifier: MIT\npragma solidity >=0.6.2 <0.7.0;\npragma experimental ABIEncoderV2;\n\nimport \"@openzeppelin/contracts/math/SafeMath.sol\";\nimport \"@openzeppelin/contracts/access/AccessControl.sol\";\nimport \"@openzeppelin/contracts/token/ERC20/SafeERC20.sol\";\nimport \"./interfaces/ITreasury.sol\";\nimport \"./interfaces/IPolicy.sol\";\n\ncontract Treasury is AccessControl, ITreasury {\n    using SafeMath for uint256;\n    using SafeERC20 for IERC20;\n\n    bytes32 public constant TREASURER_ROLE = keccak256(\"TREASURER_ROLE\");\n    uint256 public totalEarmarkedFunds;\n    IERC20 internal _dai;\n\n    constructor(IERC20 dai) public {\n        _setupRole(DEFAULT_ADMIN_ROLE, _msgSender());\n        _dai = dai;\n    }\n\n    receive() external payable {}\n\n    function deposit(uint256 premium, address payee) external virtual override {\n        _dai.safeTransferFrom(payee, address(this), premium);\n    }\n\n    function isCapitalAvailable(uint256 amount)\n        external\n        override\n        view\n        returns (bool)\n    {\n        return totalBalance() >= totalEarmarkedFunds.add(amount);\n    }\n\n    function totalBalance() public virtual override view returns (uint256) {\n        return _dai.balanceOf(address(this));\n    }\n\n    function earmarkFunds(uint256 earmarkedFunds) external override {\n        require(hasRole(TREASURER_ROLE, _msgSender()), \"Access Denied\");\n        require(this.isCapitalAvailable(earmarkedFunds), \"Insufficient Funds\");\n        totalEarmarkedFunds = totalEarmarkedFunds.add(earmarkedFunds);\n    }\n\n    function payout(uint256 amount, address payee) public override {\n        require(hasRole(TREASURER_ROLE, _msgSender()), \"Access Denied\");\n        _payout(amount, payee);\n    }\n\n    function payoutEarmarked(uint256 amount, address payee) external override {\n        require(hasRole(TREASURER_ROLE, _msgSender()), \"Access Denied\");\n        _releaseFunds(amount);\n        _payout(amount, payee);\n    }\n\n    function _payout(uint256 amount, address payee) internal virtual {\n        require(this.isCapitalAvailable(amount), \"Insufficient Funds\");\n        _dai.safeTransfer(payee, amount);\n    }\n\n    function releaseFunds(uint256 releasedFunds) external override {\n        require(hasRole(TREASURER_ROLE, _msgSender()), \"Access Denied\");\n        _releaseFunds(releasedFunds);\n    }\n\n    function _releaseFunds(uint256 releasedFunds) private {\n        require(\n            totalEarmarkedFunds >= releasedFunds,\n            \"Cannot release more than earmarked\"\n        );\n        totalEarmarkedFunds = totalEarmarkedFunds.sub(releasedFunds);\n    }\n\n    function addTreasurer(address newTreasurer) external override {\n        grantRole(TREASURER_ROLE, newTreasurer);\n    }\n\n    function removeTreasurer(address treasurer) external override {\n        revokeRole(TREASURER_ROLE, treasurer);\n    }\n}\n",
  "sourcePath": "/Treasury.sol",
  "compiler": {
    "name": "solc",
    "version": "0.6.12+commit.27d51765.Emscripten.clang"
  },
  "schemaVersion": "3.2.5",
  "updatedAt": "2020-09-27T11:32:33.114Z",
  "networkType": "ethereum",
  "devdoc": {
    "kind": "dev",
    "methods": {
      "getRoleAdmin(bytes32)": {
        "details": "Returns the admin role that controls `role`. See {grantRole} and {revokeRole}. To change a role's admin, use {_setRoleAdmin}."
      },
      "getRoleMember(bytes32,uint256)": {
        "details": "Returns one of the accounts that have `role`. `index` must be a value between 0 and {getRoleMemberCount}, non-inclusive. Role bearers are not sorted in any particular way, and their ordering may change at any point. WARNING: When using {getRoleMember} and {getRoleMemberCount}, make sure you perform all queries on the same block. See the following https://forum.openzeppelin.com/t/iterating-over-elements-on-enumerableset-in-openzeppelin-contracts/2296[forum post] for more information."
      },
      "getRoleMemberCount(bytes32)": {
        "details": "Returns the number of accounts that have `role`. Can be used together with {getRoleMember} to enumerate all bearers of a role."
      },
      "grantRole(bytes32,address)": {
        "details": "Grants `role` to `account`. If `account` had not been already granted `role`, emits a {RoleGranted} event. Requirements: - the caller must have ``role``'s admin role."
      },
      "hasRole(bytes32,address)": {
        "details": "Returns `true` if `account` has been granted `role`."
      },
      "renounceRole(bytes32,address)": {
        "details": "Revokes `role` from the calling account. Roles are often managed via {grantRole} and {revokeRole}: this function's purpose is to provide a mechanism for accounts to lose their privileges if they are compromised (such as when a trusted device is misplaced). If the calling account had been granted `role`, emits a {RoleRevoked} event. Requirements: - the caller must be `account`."
      },
      "revokeRole(bytes32,address)": {
        "details": "Revokes `role` from `account`. If `account` had been granted `role`, emits a {RoleRevoked} event. Requirements: - the caller must have ``role``'s admin role."
      }
    },
    "version": 1
  },
  "userdoc": {
    "kind": "user",
    "methods": {},
    "version": 1
  }
}