{
  "contractName": "Underwriter",
  "abi": [
    {
      "inputs": [
        {
          "internalType": "contract ITreasury",
          "name": "treasury",
          "type": "address"
        },
        {
          "internalType": "contract IPriceProducer",
          "name": "priceFetcher",
          "type": "address"
        },
        {
          "internalType": "contract IPolicy",
          "name": "policy",
          "type": "address"
        },
        {
          "internalType": "contract IERC20",
          "name": "dai",
          "type": "address"
        }
      ],
      "stateMutability": "nonpayable",
      "type": "constructor"
    },
    {
      "anonymous": false,
      "inputs": [
        {
          "indexed": true,
          "internalType": "address",
          "name": "previousOwner",
          "type": "address"
        },
        {
          "indexed": true,
          "internalType": "address",
          "name": "newOwner",
          "type": "address"
        }
      ],
      "name": "OwnershipTransferred",
      "type": "event"
    },
    {
      "anonymous": false,
      "inputs": [
        {
          "indexed": true,
          "internalType": "address",
          "name": "holder",
          "type": "address"
        },
        {
          "indexed": false,
          "internalType": "uint256",
          "name": "policyId",
          "type": "uint256"
        },
        {
          "indexed": false,
          "internalType": "uint256",
          "name": "end",
          "type": "uint256"
        }
      ],
      "name": "PolicyUnderwritten",
      "type": "event"
    },
    {
      "anonymous": false,
      "inputs": [
        {
          "indexed": true,
          "internalType": "address",
          "name": "holder",
          "type": "address"
        },
        {
          "indexed": false,
          "internalType": "uint256",
          "name": "premium",
          "type": "uint256"
        }
      ],
      "name": "PremiumRefunded",
      "type": "event"
    },
    {
      "inputs": [],
      "name": "maxCoverAmount",
      "outputs": [
        {
          "internalType": "uint256",
          "name": "",
          "type": "uint256"
        }
      ],
      "stateMutability": "view",
      "type": "function",
      "constant": true
    },
    {
      "inputs": [],
      "name": "maxPolicyDurationInS",
      "outputs": [
        {
          "internalType": "uint256",
          "name": "",
          "type": "uint256"
        }
      ],
      "stateMutability": "view",
      "type": "function",
      "constant": true
    },
    {
      "inputs": [],
      "name": "minLossProtectionInBps",
      "outputs": [
        {
          "internalType": "uint256",
          "name": "",
          "type": "uint256"
        }
      ],
      "stateMutability": "view",
      "type": "function",
      "constant": true
    },
    {
      "inputs": [],
      "name": "minimumPrice",
      "outputs": [
        {
          "internalType": "uint256",
          "name": "",
          "type": "uint256"
        }
      ],
      "stateMutability": "view",
      "type": "function",
      "constant": true
    },
    {
      "inputs": [],
      "name": "owner",
      "outputs": [
        {
          "internalType": "address",
          "name": "",
          "type": "address"
        }
      ],
      "stateMutability": "view",
      "type": "function",
      "constant": true
    },
    {
      "inputs": [],
      "name": "renounceOwnership",
      "outputs": [],
      "stateMutability": "nonpayable",
      "type": "function"
    },
    {
      "inputs": [
        {
          "internalType": "address",
          "name": "newOwner",
          "type": "address"
        }
      ],
      "name": "transferOwnership",
      "outputs": [],
      "stateMutability": "nonpayable",
      "type": "function"
    },
    {
      "inputs": [
        {
          "components": [
            {
              "internalType": "uint256",
              "name": "durationInS",
              "type": "uint256"
            },
            {
              "internalType": "string",
              "name": "externalCode",
              "type": "string"
            },
            {
              "internalType": "uint256",
              "name": "coverAmount",
              "type": "uint256"
            },
            {
              "internalType": "uint256",
              "name": "minLossInBps",
              "type": "uint256"
            }
          ],
          "internalType": "struct Underwriter.PolicyRequest",
          "name": "request",
          "type": "tuple"
        }
      ],
      "name": "buyPolicy",
      "outputs": [],
      "stateMutability": "payable",
      "type": "function",
      "payable": true
    },
    {
      "inputs": [
        {
          "components": [
            {
              "internalType": "uint256",
              "name": "durationInS",
              "type": "uint256"
            },
            {
              "internalType": "string",
              "name": "externalCode",
              "type": "string"
            },
            {
              "internalType": "uint256",
              "name": "coverAmount",
              "type": "uint256"
            },
            {
              "internalType": "uint256",
              "name": "minLossInBps",
              "type": "uint256"
            }
          ],
          "internalType": "struct Underwriter.PolicyRequest",
          "name": "request",
          "type": "tuple"
        }
      ],
      "name": "calculatePremium",
      "outputs": [
        {
          "internalType": "uint256",
          "name": "",
          "type": "uint256"
        }
      ],
      "stateMutability": "pure",
      "type": "function",
      "constant": true
    },
    {
      "inputs": [
        {
          "internalType": "bytes32",
          "name": "requestId",
          "type": "bytes32"
        },
        {
          "internalType": "uint256",
          "name": "currentPrice",
          "type": "uint256"
        }
      ],
      "name": "onPriceResponse",
      "outputs": [],
      "stateMutability": "nonpayable",
      "type": "function"
    }
  ],
  "bytecode": "0x60806040523480156200001157600080fd5b50604051620024a6380380620024a6833981810160405281019062000037919062000288565b6000620000496200022460201b60201c565b9050806000806101000a81548173ffffffffffffffffffffffffffffffffffffffff021916908373ffffffffffffffffffffffffffffffffffffffff1602179055508073ffffffffffffffffffffffffffffffffffffffff16600073ffffffffffffffffffffffffffffffffffffffff167f8be0079c531659141344cd1fd0a4f28419497f9722a3daafe3b4186f6b6457e060405160405180910390a35083600160006101000a81548173ffffffffffffffffffffffffffffffffffffffff021916908373ffffffffffffffffffffffffffffffffffffffff16021790555082600360006101000a81548173ffffffffffffffffffffffffffffffffffffffff021916908373ffffffffffffffffffffffffffffffffffffffff16021790555081600260006101000a81548173ffffffffffffffffffffffffffffffffffffffff021916908373ffffffffffffffffffffffffffffffffffffffff16021790555080600460006101000a81548173ffffffffffffffffffffffffffffffffffffffff021916908373ffffffffffffffffffffffffffffffffffffffff160217905550620186a0600881905550690a968163f0a57b40000060058190555063095f6a006007819055506103e860068190555050505050620003e0565b600033905090565b6000815190506200023d8162000378565b92915050565b600081519050620002548162000392565b92915050565b6000815190506200026b81620003ac565b92915050565b6000815190506200028281620003c6565b92915050565b600080600080608085870312156200029f57600080fd5b6000620002af8782880162000271565b9450506020620002c2878288016200025a565b9350506040620002d58782880162000243565b9250506060620002e8878288016200022c565b91505092959194509250565b6000620003018262000358565b9050919050565b60006200031582620002f4565b9050919050565b60006200032982620002f4565b9050919050565b60006200033d82620002f4565b9050919050565b60006200035182620002f4565b9050919050565b600073ffffffffffffffffffffffffffffffffffffffff82169050919050565b620003838162000308565b81146200038f57600080fd5b50565b6200039d816200031c565b8114620003a957600080fd5b50565b620003b78162000330565b8114620003c357600080fd5b50565b620003d18162000344565b8114620003dd57600080fd5b50565b6120b680620003f06000396000f3fe6080604052600436106100915760003560e01c80637f386b6c116100595780637f386b6c1461015c57806381114341146101875780638da5cb5b146101b2578063c1c1f85a146101dd578063f2fde38b1461020657610091565b8063364da22b1461009657806346be136e146100b257806366bc6811146100dd578063715018a614610108578063749c60d51461011f575b600080fd5b6100b060048036038101906100ab91906116d1565b61022f565b005b3480156100be57600080fd5b506100c7610699565b6040516100d49190611e76565b60405180910390f35b3480156100e957600080fd5b506100f261069f565b6040516100ff9190611e76565b60405180910390f35b34801561011457600080fd5b5061011d6106a5565b005b34801561012b57600080fd5b50610146600480360381019061014191906116d1565b6107f8565b6040516101539190611e76565b60405180910390f35b34801561016857600080fd5b50610171610860565b60405161017e9190611e76565b60405180910390f35b34801561019357600080fd5b5061019c610866565b6040516101a99190611e76565b60405180910390f35b3480156101be57600080fd5b506101c761086c565b6040516101d49190611c52565b60405180910390f35b3480156101e957600080fd5b5061020460048036038101906101ff9190611695565b610895565b005b34801561021257600080fd5b5061022d6004803603810190610228919061161a565b610d3b565b005b60055481604001511115610278576040517f08c379a000000000000000000000000000000000000000000000000000000000815260040161026f90611cf6565b60405180910390fd5b60008160400151116102bf576040517f08c379a00000000000000000000000000000000000000000000000000000000081526004016102b690611e56565b60405180910390fd5b6000816000015111610306576040517f08c379a00000000000000000000000000000000000000000000000000000000081526004016102fd90611df6565b60405180910390fd5b60075481600001511061034e576040517f08c379a000000000000000000000000000000000000000000000000000000000815260040161034590611d36565b60405180910390fd5b600654816060015111610396576040517f08c379a000000000000000000000000000000000000000000000000000000000815260040161038d90611e16565b60405180910390fd5b612710816060015111156103df576040517f08c379a00000000000000000000000000000000000000000000000000000000081526004016103d690611d96565b60405180910390fd5b60006103ea826107f8565b905061045d33600160009054906101000a900473ffffffffffffffffffffffffffffffffffffffff1683600460009054906101000a900473ffffffffffffffffffffffffffffffffffffffff1673ffffffffffffffffffffffffffffffffffffffff16610efd909392919063ffffffff16565b600160009054906101000a900473ffffffffffffffffffffffffffffffffffffffff1673ffffffffffffffffffffffffffffffffffffffff16637ee41478826040518263ffffffff1660e01b81526004016104b89190611e76565b600060405180830381600087803b1580156104d257600080fd5b505af11580156104e6573d6000803e3d6000fd5b505050506000600360009054906101000a900473ffffffffffffffffffffffffffffffffffffffff1673ffffffffffffffffffffffffffffffffffffffff1663d4fe6bd084602001516040518263ffffffff1660e01b815260040161054b9190611cd4565b602060405180830381600087803b15801561056557600080fd5b505af1158015610579573d6000803e3d6000fd5b505050506040513d601f19601f8201168201806040525081019061059d919061166c565b90506040518060c001604052803373ffffffffffffffffffffffffffffffffffffffff16815260200183815260200184600001518152602001846020015181526020018460400151815260200184606001518152506009600083815260200190815260200160002060008201518160000160006101000a81548173ffffffffffffffffffffffffffffffffffffffff021916908373ffffffffffffffffffffffffffffffffffffffff1602179055506020820151816001015560408201518160020155606082015181600301908051906020019061067c92919061139f565b506080820151816004015560a08201518160050155905050505050565b60075481565b60065481565b6106ad610f86565b73ffffffffffffffffffffffffffffffffffffffff1660008054906101000a900473ffffffffffffffffffffffffffffffffffffffff1673ffffffffffffffffffffffffffffffffffffffff161461073a576040517f08c379a000000000000000000000000000000000000000000000000000000000815260040161073190611d76565b60405180910390fd5b600073ffffffffffffffffffffffffffffffffffffffff1660008054906101000a900473ffffffffffffffffffffffffffffffffffffffff1673ffffffffffffffffffffffffffffffffffffffff167f8be0079c531659141344cd1fd0a4f28419497f9722a3daafe3b4186f6b6457e060405160405180910390a360008060006101000a81548173ffffffffffffffffffffffffffffffffffffffff021916908373ffffffffffffffffffffffffffffffffffffffff160217905550565b60006108598260600151612af80361084b623d090061083d866040015161082f62278d008960000151610f8e90919063ffffffff16565b610fd890919063ffffffff16565b610f8e90919063ffffffff16565b610fd890919063ffffffff16565b9050919050565b60085481565b60055481565b60008060009054906101000a900473ffffffffffffffffffffffffffffffffffffffff16905090565b600360009054906101000a900473ffffffffffffffffffffffffffffffffffffffff1673ffffffffffffffffffffffffffffffffffffffff163373ffffffffffffffffffffffffffffffffffffffff1614610925576040517f08c379a000000000000000000000000000000000000000000000000000000000815260040161091c90611e36565b60405180910390fd5b6000600960008481526020019081526020016000209050600160009054906101000a900473ffffffffffffffffffffffffffffffffffffffff1673ffffffffffffffffffffffffffffffffffffffff16637ee4147882600401546040518263ffffffff1660e01b815260040161099b9190611e76565b600060405180830381600087803b1580156109b557600080fd5b505af19250505080156109c6575060015b610a01576109fc8160000160009054906101000a900473ffffffffffffffffffffffffffffffffffffffff168260010154611048565b610cc9565b600854821115610c95576000610a3c612710610a2e85856005015461271003610fd890919063ffffffff16565b610f8e90919063ffffffff16565b9050610a4661141f565b6040518060c001604052807fffffffffffffffffffffffffffffffffffffffffffffffffffffffffffffffff815260200184600401548152602001846002015442018152602001846003018054600181600116156101000203166002900480601f016020809104026020016040519081016040528092919081815260200182805460018160011615610100020316600290048015610b255780601f10610afa57610100808354040283529160200191610b25565b820191906000526020600020905b815481529060010190602001808311610b0857829003601f168201915b505050505081526020018381526020016001151581525090506000600260009054906101000a900473ffffffffffffffffffffffffffffffffffffffff1673ffffffffffffffffffffffffffffffffffffffff16638d501cc88560000160009054906101000a900473ffffffffffffffffffffffffffffffffffffffff16846040518363ffffffff1660e01b8152600401610bc1929190611ca4565b602060405180830381600087803b158015610bdb57600080fd5b505af1158015610bef573d6000803e3d6000fd5b505050506040513d601f19601f82011682018060405250810190610c139190611712565b90508360000160009054906101000a900473ffffffffffffffffffffffffffffffffffffffff1673ffffffffffffffffffffffffffffffffffffffff167fccbeabe93cc4dee74b27fc71f4f73bd50b3b2ffb6e61ac1478fbe34b6868677c828460400151604051610c85929190611eba565b60405180910390a2505050610cc8565b610cc78160000160009054906101000a900473ffffffffffffffffffffffffffffffffffffffff168260010154611048565b5b5b60096000848152602001908152602001600020600080820160006101000a81549073ffffffffffffffffffffffffffffffffffffffff021916905560018201600090556002820160009055600382016000610d249190611457565b600482016000905560058201600090555050505050565b610d43610f86565b73ffffffffffffffffffffffffffffffffffffffff1660008054906101000a900473ffffffffffffffffffffffffffffffffffffffff1673ffffffffffffffffffffffffffffffffffffffff1614610dd0576040517f08c379a0000000000000000000000000000000000000000000000000000000008152600401610dc790611d76565b60405180910390fd5b600073ffffffffffffffffffffffffffffffffffffffff168173ffffffffffffffffffffffffffffffffffffffff161415610e40576040517f08c379a0000000000000000000000000000000000000000000000000000000008152600401610e3790611d16565b60405180910390fd5b8073ffffffffffffffffffffffffffffffffffffffff1660008054906101000a900473ffffffffffffffffffffffffffffffffffffffff1673ffffffffffffffffffffffffffffffffffffffff167f8be0079c531659141344cd1fd0a4f28419497f9722a3daafe3b4186f6b6457e060405160405180910390a3806000806101000a81548173ffffffffffffffffffffffffffffffffffffffff021916908373ffffffffffffffffffffffffffffffffffffffff16021790555050565b610f80846323b872dd60e01b858585604051602401610f1e93929190611c6d565b604051602081830303815290604052907bffffffffffffffffffffffffffffffffffffffffffffffffffffffff19166020820180517bffffffffffffffffffffffffffffffffffffffffffffffffffffffff8381831617835250505050611129565b50505050565b600033905090565b6000610fd083836040518060400160405280601a81526020017f536166654d6174683a206469766973696f6e206279207a65726f0000000000008152506111f0565b905092915050565b600080831415610feb5760009050611042565b6000828402905082848281610ffc57fe5b041461103d576040517f08c379a000000000000000000000000000000000000000000000000000000000815260040161103490611d56565b60405180910390fd5b809150505b92915050565b600160009054906101000a900473ffffffffffffffffffffffffffffffffffffffff1673ffffffffffffffffffffffffffffffffffffffff1663323bcc4282846040518363ffffffff1660e01b81526004016110a5929190611e91565b600060405180830381600087803b1580156110bf57600080fd5b505af11580156110d3573d6000803e3d6000fd5b505050508173ffffffffffffffffffffffffffffffffffffffff167f1928e3e8c2834c2c27531edd16c070f18f46b41df499205db07cc0e939b9ecb98260405161111d9190611e76565b60405180910390a25050565b606061118b826040518060400160405280602081526020017f5361666545524332303a206c6f772d6c6576656c2063616c6c206661696c65648152508573ffffffffffffffffffffffffffffffffffffffff166112519092919063ffffffff16565b90506000815111156111eb57808060200190518101906111ab9190611643565b6111ea576040517f08c379a00000000000000000000000000000000000000000000000000000000081526004016111e190611dd6565b60405180910390fd5b5b505050565b60008083118290611237576040517f08c379a000000000000000000000000000000000000000000000000000000000815260040161122e9190611cd4565b60405180910390fd5b50600083858161124357fe5b049050809150509392505050565b60606112608484600085611269565b90509392505050565b60606112748561138c565b6112b3576040517f08c379a00000000000000000000000000000000000000000000000000000000081526004016112aa90611db6565b60405180910390fd5b600060608673ffffffffffffffffffffffffffffffffffffffff1685876040516112dd9190611c3b565b60006040518083038185875af1925050503d806000811461131a576040519150601f19603f3d011682016040523d82523d6000602084013e61131f565b606091505b50915091508115611334578092505050611384565b6000815111156113475780518082602001fd5b836040517f08c379a000000000000000000000000000000000000000000000000000000000815260040161137b9190611cd4565b60405180910390fd5b949350505050565b600080823b905060008111915050919050565b828054600181600116156101000203166002900490600052602060002090601f016020900481019282601f106113e057805160ff191683800117855561140e565b8280016001018555821561140e579182015b8281111561140d5782518255916020019190600101906113f2565b5b50905061141b919061149f565b5090565b6040518060c0016040528060008152602001600081526020016000815260200160608152602001600081526020016000151581525090565b50805460018160011615610100020316600290046000825580601f1061147d575061149c565b601f01602090049060005260206000209081019061149b919061149f565b5b50565b5b808211156114b85760008160009055506001016114a0565b5090565b6000813590506114cb81612024565b92915050565b6000815190506114e08161203b565b92915050565b6000813590506114f581612052565b92915050565b60008151905061150a81612052565b92915050565b600082601f83011261152157600080fd5b813561153461152f82611f10565b611ee3565b9150808252602083016020830185838301111561155057600080fd5b61155b838284611fd1565b50505092915050565b60006080828403121561157657600080fd5b6115806080611ee3565b90506000611590848285016115f0565b600083015250602082013567ffffffffffffffff8111156115b057600080fd5b6115bc84828501611510565b60208301525060406115d0848285016115f0565b60408301525060606115e4848285016115f0565b60608301525092915050565b6000813590506115ff81612069565b92915050565b60008151905061161481612069565b92915050565b60006020828403121561162c57600080fd5b600061163a848285016114bc565b91505092915050565b60006020828403121561165557600080fd5b6000611663848285016114d1565b91505092915050565b60006020828403121561167e57600080fd5b600061168c848285016114fb565b91505092915050565b600080604083850312156116a857600080fd5b60006116b6858286016114e6565b92505060206116c7858286016115f0565b9150509250929050565b6000602082840312156116e357600080fd5b600082013567ffffffffffffffff8111156116fd57600080fd5b61170984828501611564565b91505092915050565b60006020828403121561172457600080fd5b600061173284828501611605565b91505092915050565b61174481611f7f565b82525050565b61175381611f91565b82525050565b600061176482611f3c565b61176e8185611f52565b935061177e818560208601611fe0565b80840191505092915050565b600061179582611f47565b61179f8185611f5d565b93506117af818560208601611fe0565b6117b881612013565b840191505092915050565b60006117ce82611f47565b6117d88185611f6e565b93506117e8818560208601611fe0565b6117f181612013565b840191505092915050565b6000611809601683611f6e565b91507f416d6f756e742065786365656473206d6178696d756d000000000000000000006000830152602082019050919050565b6000611849602683611f6e565b91507f4f776e61626c653a206e6577206f776e657220697320746865207a65726f206160008301527f64647265737300000000000000000000000000000000000000000000000000006020830152604082019050919050565b60006118af601883611f6e565b91507f4475726174696f6e2065786365656473206d6178696d756d00000000000000006000830152602082019050919050565b60006118ef602183611f6e565b91507f536166654d6174683a206d756c7469706c69636174696f6e206f766572666c6f60008301527f77000000000000000000000000000000000000000000000000000000000000006020830152604082019050919050565b6000611955602083611f6e565b91507f4f776e61626c653a2063616c6c6572206973206e6f7420746865206f776e65726000830152602082019050919050565b6000611995601c83611f6e565b91507f50726f74656374696f6e2067726561746572207468616e2031303025000000006000830152602082019050919050565b60006119d5601d83611f6e565b91507f416464726573733a2063616c6c20746f206e6f6e2d636f6e74726163740000006000830152602082019050919050565b6000611a15602a83611f6e565b91507f5361666545524332303a204552433230206f7065726174696f6e20646964206e60008301527f6f742073756363656564000000000000000000000000000000000000000000006020830152604082019050919050565b6000611a7b601983611f6e565b91507f4475726174696f6e206d75737420626520706f736974697665000000000000006000830152602082019050919050565b6000611abb601d83611f6e565b91507f50726f74656374696f6e206c6f776572207468616e206d696e696d756d0000006000830152602082019050919050565b6000611afb602783611f6e565b91507f4f6e6c7920707269636520666574636865722063616e2063616c6c207468697360008301527f206d6574686f64000000000000000000000000000000000000000000000000006020830152604082019050919050565b6000611b61601783611f6e565b91507f416d6f756e74206d75737420626520706f7369746976650000000000000000006000830152602082019050919050565b600060c083016000830151611bac6000860182611c1d565b506020830151611bbf6020860182611c1d565b506040830151611bd26040860182611c1d565b5060608301518482036060860152611bea828261178a565b9150506080830151611bff6080860182611c1d565b5060a0830151611c1260a086018261174a565b508091505092915050565b611c2681611fc7565b82525050565b611c3581611fc7565b82525050565b6000611c478284611759565b915081905092915050565b6000602082019050611c67600083018461173b565b92915050565b6000606082019050611c82600083018661173b565b611c8f602083018561173b565b611c9c6040830184611c2c565b949350505050565b6000604082019050611cb9600083018561173b565b8181036020830152611ccb8184611b94565b90509392505050565b60006020820190508181036000830152611cee81846117c3565b905092915050565b60006020820190508181036000830152611d0f816117fc565b9050919050565b60006020820190508181036000830152611d2f8161183c565b9050919050565b60006020820190508181036000830152611d4f816118a2565b9050919050565b60006020820190508181036000830152611d6f816118e2565b9050919050565b60006020820190508181036000830152611d8f81611948565b9050919050565b60006020820190508181036000830152611daf81611988565b9050919050565b60006020820190508181036000830152611dcf816119c8565b9050919050565b60006020820190508181036000830152611def81611a08565b9050919050565b60006020820190508181036000830152611e0f81611a6e565b9050919050565b60006020820190508181036000830152611e2f81611aae565b9050919050565b60006020820190508181036000830152611e4f81611aee565b9050919050565b60006020820190508181036000830152611e6f81611b54565b9050919050565b6000602082019050611e8b6000830184611c2c565b92915050565b6000604082019050611ea66000830185611c2c565b611eb3602083018461173b565b9392505050565b6000604082019050611ecf6000830185611c2c565b611edc6020830184611c2c565b9392505050565b6000604051905081810181811067ffffffffffffffff82111715611f0657600080fd5b8060405250919050565b600067ffffffffffffffff821115611f2757600080fd5b601f19601f8301169050602081019050919050565b600081519050919050565b600081519050919050565b600081905092915050565b600082825260208201905092915050565b600082825260208201905092915050565b6000611f8a82611fa7565b9050919050565b60008115159050919050565b6000819050919050565b600073ffffffffffffffffffffffffffffffffffffffff82169050919050565b6000819050919050565b82818337600083830152505050565b60005b83811015611ffe578082015181840152602081019050611fe3565b8381111561200d576000848401525b50505050565b6000601f19601f8301169050919050565b61202d81611f7f565b811461203857600080fd5b50565b61204481611f91565b811461204f57600080fd5b50565b61205b81611f9d565b811461206657600080fd5b50565b61207281611fc7565b811461207d57600080fd5b5056fea2646970667358221220a606aa233e9cd240b2e7f4f09b6b9a25355aac84c8d343db2a3f222f116c558d64736f6c634300060c0033",
  "immutableReferences": {},
  "source": "// SPDX-License-Identifier: MIT\npragma solidity >=0.6.0 <0.7.0;\npragma experimental ABIEncoderV2;\n\nimport \"./interfaces/ITreasury.sol\";\nimport \"./interfaces/IPolicy.sol\";\nimport \"./interfaces/IPriceConsumer.sol\";\nimport \"./interfaces/IPriceProducer.sol\";\nimport \"@openzeppelin/contracts/access/Ownable.sol\";\nimport \"@openzeppelin/contracts/math/SafeMath.sol\";\nimport \"@openzeppelin/contracts/token/ERC20/SafeERC20.sol\";\n\ncontract Underwriter is Ownable, IPriceConsumer {\n    using SafeMath for uint256;\n    using SafeERC20 for IERC20;\n\n    struct PolicyRequest {\n        uint256 durationInS;\n        string externalCode;\n        uint256 coverAmount;\n        uint256 minLossInBps;\n    }\n\n    struct PendingPolicy {\n        address holder;\n        uint256 premium;\n        uint256 durationInS;\n        string externalCode;\n        uint256 coverAmount;\n        uint256 minLossInBps;\n    }\n\n    event PolicyUnderwritten(\n        address indexed holder,\n        uint256 policyId,\n        uint256 end\n    );\n\n    event PremiumRefunded(address indexed holder, uint256 premium);\n\n    ITreasury private _treasury;\n    IPolicy private _policy;\n    IPriceProducer private _priceFetcher;\n    IERC20 private _dai;\n\n    uint256 public maxCoverAmount;\n    uint256 public minLossProtectionInBps;\n    uint256 public maxPolicyDurationInS;\n    uint256 public minimumPrice;\n\n    mapping(bytes32 => PendingPolicy) private _pendingPolicies;\n\n    constructor(\n        ITreasury treasury,\n        IPriceProducer priceFetcher,\n        IPolicy policy,\n        IERC20 dai\n    ) public {\n        _treasury = treasury;\n        _priceFetcher = priceFetcher;\n        _policy = policy;\n        _dai = dai;\n        minimumPrice = 100000;\n        maxCoverAmount = 50000 * 1e18;\n        maxPolicyDurationInS = 52 * 5 weeks; //~5 Years\n        minLossProtectionInBps = 10 * 100; //Minimum loss protection is 10%\n    }\n\n    function buyPolicy(PolicyRequest memory request) public payable {\n        require(\n            request.coverAmount <= maxCoverAmount,\n            \"Amount exceeds maximum\"\n        );\n        require(request.coverAmount > 0, \"Amount must be positive\");\n        require(request.durationInS > 0, \"Duration must be positive\");\n        require(\n            request.durationInS < maxPolicyDurationInS,\n            \"Duration exceeds maximum\"\n        );\n        require(\n            request.minLossInBps > minLossProtectionInBps,\n            \"Protection lower than minimum\"\n        );\n        require(\n            request.minLossInBps <= 100 * 100, //100%\n            \"Protection greater than 100%\"\n        );\n        uint256 premium = calculatePremium(request);\n        _dai.safeTransferFrom(msg.sender, address(_treasury), premium);\n        _treasury.earmarkFunds(premium);\n        bytes32 requestId = _priceFetcher.requestPrice(request.externalCode);\n        _pendingPolicies[requestId] = PendingPolicy(\n            msg.sender,\n            premium,\n            request.durationInS,\n            request.externalCode,\n            request.coverAmount,\n            request.minLossInBps\n        );\n    }\n\n    function calculatePremium(PolicyRequest memory request)\n        public\n        pure\n        returns (uint256)\n    {\n        return\n            request\n                .durationInS\n                .div(30 days)\n                .mul(request.coverAmount)\n                .div(4000000)\n                .mul(11000 - request.minLossInBps);\n    }\n\n    function onPriceResponse(bytes32 requestId, uint256 currentPrice)\n        public\n        override\n    {\n        require(\n            msg.sender == address(_priceFetcher),\n            \"Only price fetcher can call this method\"\n        );\n\n        PendingPolicy storage pendingPolicy = _pendingPolicies[requestId];\n\n        try _treasury.earmarkFunds(pendingPolicy.coverAmount)  {\n            if (currentPrice > minimumPrice) {\n                //This would not overflow even with average prices in the billions\n                uint256 strikePrice = (10000 - pendingPolicy.minLossInBps)\n                    .mul(currentPrice)\n                    .div(10000);\n\n                IPolicy.PolicyData memory policyData = IPolicy.PolicyData({\n                    coverAmount: pendingPolicy.coverAmount,\n                    end: block.timestamp + pendingPolicy.durationInS,\n                    externalCode: pendingPolicy.externalCode,\n                    strikePrice: strikePrice,\n                    active: true,\n                    policyId: uint256(-1) //Uninitialised id\n                });\n\n                uint256 policyId = _policy.mintPolicy(\n                    pendingPolicy.holder,\n                    policyData\n                );\n                emit PolicyUnderwritten(\n                    pendingPolicy.holder,\n                    policyId,\n                    policyData.end\n                );\n            } else {\n                _refund(pendingPolicy.holder, pendingPolicy.premium);\n            }\n        } catch {\n            _refund(pendingPolicy.holder, pendingPolicy.premium);\n        }\n\n        delete _pendingPolicies[requestId];\n    }\n\n    function _refund(address holder, uint256 premium) private {\n        _treasury.payoutEarmarked(premium, holder);\n        emit PremiumRefunded(holder, premium);\n    }\n}\n",
  "sourcePath": "/Underwriter.sol",
  "compiler": {
    "name": "solc",
    "version": "0.6.12+commit.27d51765.Emscripten.clang"
  },
  "schemaVersion": "3.2.5",
  "updatedAt": "2020-09-27T11:32:33.128Z",
  "networkType": "ethereum",
  "devdoc": {
    "kind": "dev",
    "methods": {
      "owner()": {
        "details": "Returns the address of the current owner."
      },
      "renounceOwnership()": {
        "details": "Leaves the contract without owner. It will not be possible to call `onlyOwner` functions anymore. Can only be called by the current owner. NOTE: Renouncing ownership will leave the contract without an owner, thereby removing any functionality that is only available to the owner."
      },
      "transferOwnership(address)": {
        "details": "Transfers ownership of the contract to a new account (`newOwner`). Can only be called by the current owner."
      }
    },
    "version": 1
  },
  "userdoc": {
    "kind": "user",
    "methods": {},
    "version": 1
  }
}